{
  "contractName": "creator",
  "abi": [
    {
      "inputs": [
        {
          "internalType": "uint32",
          "name": "",
          "type": "uint32"
        }
      ],
      "name": "cryptomonList",
      "outputs": [
        {
          "internalType": "uint32",
          "name": "id",
          "type": "uint32"
        },
        {
          "internalType": "string",
          "name": "name",
          "type": "string"
        },
        {
          "internalType": "uint32",
          "name": "attack",
          "type": "uint32"
        },
        {
          "internalType": "uint32",
          "name": "defense",
          "type": "uint32"
        },
        {
          "internalType": "uint32",
          "name": "hp",
          "type": "uint32"
        },
        {
          "internalType": "address",
          "name": "owner",
          "type": "address"
        },
        {
          "components": [
            {
              "internalType": "uint32",
              "name": "id",
              "type": "uint32"
            },
            {
              "internalType": "string",
              "name": "name",
              "type": "string"
            },
            {
              "internalType": "uint32",
              "name": "damage",
              "type": "uint32"
            },
            {
              "internalType": "uint32",
              "name": "missRate",
              "type": "uint32"
            }
          ],
          "internalType": "struct creator.move",
          "name": "move1",
          "type": "tuple"
        },
        {
          "components": [
            {
              "internalType": "uint32",
              "name": "id",
              "type": "uint32"
            },
            {
              "internalType": "string",
              "name": "name",
              "type": "string"
            },
            {
              "internalType": "uint32",
              "name": "damage",
              "type": "uint32"
            },
            {
              "internalType": "uint32",
              "name": "missRate",
              "type": "uint32"
            }
          ],
          "internalType": "struct creator.move",
          "name": "move2",
          "type": "tuple"
        }
      ],
      "stateMutability": "view",
      "type": "function"
    },
    {
      "inputs": [
        {
          "internalType": "uint32",
          "name": "",
          "type": "uint32"
        }
      ],
      "name": "movesList",
      "outputs": [
        {
          "internalType": "uint32",
          "name": "id",
          "type": "uint32"
        },
        {
          "internalType": "string",
          "name": "name",
          "type": "string"
        },
        {
          "internalType": "uint32",
          "name": "damage",
          "type": "uint32"
        },
        {
          "internalType": "uint32",
          "name": "missRate",
          "type": "uint32"
        }
      ],
      "stateMutability": "view",
      "type": "function"
    },
    {
      "inputs": [
        {
          "internalType": "string",
          "name": "n",
          "type": "string"
        },
        {
          "internalType": "uint32",
          "name": "a",
          "type": "uint32"
        },
        {
          "internalType": "uint32",
          "name": "d",
          "type": "uint32"
        },
        {
          "internalType": "uint32",
          "name": "h",
          "type": "uint32"
        }
      ],
      "name": "createCryptomon",
      "outputs": [
        {
          "internalType": "string",
          "name": "",
          "type": "string"
        }
      ],
      "stateMutability": "nonpayable",
      "type": "function"
    },
    {
      "inputs": [
        {
          "internalType": "string",
          "name": "n",
          "type": "string"
        },
        {
          "internalType": "uint32",
          "name": "d",
          "type": "uint32"
        },
        {
          "internalType": "uint32",
          "name": "m",
          "type": "uint32"
        }
      ],
      "name": "createMove",
      "outputs": [
        {
          "internalType": "string",
          "name": "",
          "type": "string"
        }
      ],
      "stateMutability": "nonpayable",
      "type": "function"
    },
    {
      "inputs": [
        {
          "internalType": "uint32",
          "name": "cID_",
          "type": "uint32"
        },
        {
          "internalType": "uint32",
          "name": "mID_",
          "type": "uint32"
        }
      ],
      "name": "addMove",
      "outputs": [
        {
          "internalType": "string",
          "name": "",
          "type": "string"
        }
      ],
      "stateMutability": "nonpayable",
      "type": "function"
    },
    {
      "inputs": [
        {
          "internalType": "uint32",
          "name": "cID_",
          "type": "uint32"
        },
        {
          "internalType": "address",
          "name": "newOwner_",
          "type": "address"
        }
      ],
      "name": "updateOwner",
      "outputs": [
        {
          "internalType": "string",
          "name": "",
          "type": "string"
        }
      ],
      "stateMutability": "nonpayable",
      "type": "function"
    },
    {
      "inputs": [
        {
          "internalType": "uint32",
          "name": "cID_",
          "type": "uint32"
        }
      ],
      "name": "ToString",
      "outputs": [
        {
          "internalType": "string",
          "name": "s",
          "type": "string"
        }
      ],
      "stateMutability": "view",
      "type": "function"
    }
  ],
  "bytecode": "0x608060405234801561001057600080fd5b506118a6806100206000396000f3fe608060405234801561001057600080fd5b506004361061007d5760003560e01c806393df1bca1161005b57806393df1bca14610115578063a73ad2a61461014c578063bc5ff07b1461017c578063d29f3efc146101ac5761007d565b80631fd8e3ce14610082578063558dfe1c146100b257806373ff5039146100e2575b600080fd5b61009c60048036038101906100979190610f5f565b6101dc565b6040516100a99190611025565b60405180910390f35b6100cc60048036038101906100c791906110a5565b610203565b6040516100d99190611025565b60405180910390f35b6100fc60048036038101906100f79190610f5f565b6102af565b60405161010c94939291906110f4565b60405180910390f35b61012f600480360381019061012a9190610f5f565b610397565b60405161014398979695949392919061120b565b60405180910390f35b6101666004803603810190610161919061129e565b6106e3565b6040516101739190611025565b60405180910390f35b61019660048036038101906101919190611413565b610ab4565b6040516101a39190611025565b60405180910390f35b6101c660048036038101906101c19190611496565b610ce2565b6040516101d39190611025565b60405180910390f35b60606040516020016101ed9061155c565b6040516020818303038152906040529050919050565b606081600360008563ffffffff1663ffffffff168152602001908152602001600020600201600c6101000a81548173ffffffffffffffffffffffffffffffffffffffff021916908373ffffffffffffffffffffffffffffffffffffffff160217905550600360008463ffffffff1663ffffffff16815260200190815260200160002060010160405160200161029891906116b2565b604051602081830303815290604052905092915050565b60016020528060005260406000206000915090508060000160009054906101000a900463ffffffff16908060010180546102e8906115a0565b80601f0160208091040260200160405190810160405280929190818152602001828054610314906115a0565b80156103615780601f1061033657610100808354040283529160200191610361565b820191906000526020600020905b81548152906001019060200180831161034457829003601f168201915b5050505050908060020160009054906101000a900463ffffffff16908060020160049054906101000a900463ffffffff16905084565b60036020528060005260406000206000915090508060000160009054906101000a900463ffffffff16908060010180546103d0906115a0565b80601f01602080910402602001604051908101604052809291908181526020018280546103fc906115a0565b80156104495780601f1061041e57610100808354040283529160200191610449565b820191906000526020600020905b81548152906001019060200180831161042c57829003601f168201915b5050505050908060020160009054906101000a900463ffffffff16908060020160049054906101000a900463ffffffff16908060020160089054906101000a900463ffffffff169080600201600c9054906101000a900473ffffffffffffffffffffffffffffffffffffffff1690806003016040518060800160405290816000820160009054906101000a900463ffffffff1663ffffffff1663ffffffff1681526020016001820180546104fc906115a0565b80601f0160208091040260200160405190810160405280929190818152602001828054610528906115a0565b80156105755780601f1061054a57610100808354040283529160200191610575565b820191906000526020600020905b81548152906001019060200180831161055857829003601f168201915b505050505081526020016002820160009054906101000a900463ffffffff1663ffffffff1663ffffffff1681526020016002820160049054906101000a900463ffffffff1663ffffffff1663ffffffff168152505090806006016040518060800160405290816000820160009054906101000a900463ffffffff1663ffffffff1663ffffffff168152602001600182018054610610906115a0565b80601f016020809104026020016040519081016040528092919081815260200182805461063c906115a0565b80156106895780601f1061065e57610100808354040283529160200191610689565b820191906000526020600020905b81548152906001019060200180831161066c57829003601f168201915b505050505081526020016002820160009054906101000a900463ffffffff1663ffffffff1663ffffffff1681526020016002820160049054906101000a900463ffffffff1663ffffffff1663ffffffff1681525050905088565b606060006040518060800160405280600160008663ffffffff1663ffffffff16815260200190815260200160002060000160009054906101000a900463ffffffff1663ffffffff168152602001600160008663ffffffff1663ffffffff168152602001908152602001600020600101805461075d906115a0565b80601f0160208091040260200160405190810160405280929190818152602001828054610789906115a0565b80156107d65780601f106107ab576101008083540402835291602001916107d6565b820191906000526020600020905b8154815290600101906020018083116107b957829003601f168201915b50505050508152602001600160008663ffffffff1663ffffffff16815260200190815260200160002060020160009054906101000a900463ffffffff1663ffffffff168152602001600160008663ffffffff1663ffffffff16815260200190815260200160002060020160049054906101000a900463ffffffff1663ffffffff1681525090506000600360008663ffffffff1663ffffffff168152602001908152602001600020600301600101805461088e906115a0565b905014156109535780600360008663ffffffff1663ffffffff16815260200190815260200160002060030160008201518160000160006101000a81548163ffffffff021916908363ffffffff16021790555060208201518160010190805190602001906108fc929190610e6c565b5060408201518160020160006101000a81548163ffffffff021916908363ffffffff16021790555060608201518160020160046101000a81548163ffffffff021916908363ffffffff160217905550905050610a47565b6000600360008663ffffffff1663ffffffff1681526020019081526020016000206006016001018054610985906115a0565b90501415610a465780600360008663ffffffff1663ffffffff16815260200190815260200160002060060160008201518160000160006101000a81548163ffffffff021916908363ffffffff16021790555060208201518160010190805190602001906109f3929190610e6c565b5060408201518160020160006101000a81548163ffffffff021916908363ffffffff16021790555060608201518160020160046101000a81548163ffffffff021916908363ffffffff1602179055509050505b5b600160008463ffffffff1663ffffffff168152602001908152602001600020600101600360008663ffffffff1663ffffffff168152602001908152602001600020600101604051602001610a9c92919061176c565b60405160208183030381529060405291505092915050565b606060006002600081819054906101000a900463ffffffff1680929190610ada906117d5565b91906101000a81548163ffffffff021916908363ffffffff160217905550905080600360008363ffffffff1663ffffffff16815260200190815260200160002060000160006101000a81548163ffffffff021916908363ffffffff16021790555085600360008363ffffffff1663ffffffff1681526020019081526020016000206001019080519060200190610b71929190610e6c565b5084600360008363ffffffff1663ffffffff16815260200190815260200160002060020160006101000a81548163ffffffff021916908363ffffffff16021790555083600360008363ffffffff1663ffffffff16815260200190815260200160002060020160046101000a81548163ffffffff021916908363ffffffff16021790555082600360008363ffffffff1663ffffffff16815260200190815260200160002060020160086101000a81548163ffffffff021916908363ffffffff16021790555033600360008363ffffffff1663ffffffff168152602001908152602001600020600201600c6101000a81548173ffffffffffffffffffffffffffffffffffffffff021916908373ffffffffffffffffffffffffffffffffffffffff160217905550600360008263ffffffff1663ffffffff168152602001908152602001600020600101604051602001610cc8919061184e565b604051602081830303815290604052915050949350505050565b6060600080600081819054906101000a900463ffffffff1680929190610d07906117d5565b91906101000a81548163ffffffff021916908363ffffffff160217905550905080600160008363ffffffff1663ffffffff16815260200190815260200160002060000160006101000a81548163ffffffff021916908363ffffffff16021790555084600160008363ffffffff1663ffffffff1681526020019081526020016000206001019080519060200190610d9e929190610e6c565b5083600160008363ffffffff1663ffffffff16815260200190815260200160002060020160006101000a81548163ffffffff021916908363ffffffff16021790555082600160008363ffffffff1663ffffffff16815260200190815260200160002060020160046101000a81548163ffffffff021916908363ffffffff160217905550600160008263ffffffff1663ffffffff168152602001908152602001600020600101604051602001610e53919061184e565b6040516020818303038152906040529150509392505050565b828054610e78906115a0565b90600052602060002090601f016020900481019282610e9a5760008555610ee1565b82601f10610eb357805160ff1916838001178555610ee1565b82800160010185558215610ee1579182015b82811115610ee0578251825591602001919060010190610ec5565b5b509050610eee9190610ef2565b5090565b5b80821115610f0b576000816000905550600101610ef3565b5090565b6000604051905090565b600080fd5b600080fd5b600063ffffffff82169050919050565b610f3c81610f23565b8114610f4757600080fd5b50565b600081359050610f5981610f33565b92915050565b600060208284031215610f7557610f74610f19565b5b6000610f8384828501610f4a565b91505092915050565b600081519050919050565b600082825260208201905092915050565b60005b83811015610fc6578082015181840152602081019050610fab565b83811115610fd5576000848401525b50505050565b6000601f19601f8301169050919050565b6000610ff782610f8c565b6110018185610f97565b9350611011818560208601610fa8565b61101a81610fdb565b840191505092915050565b6000602082019050818103600083015261103f8184610fec565b905092915050565b600073ffffffffffffffffffffffffffffffffffffffff82169050919050565b600061107282611047565b9050919050565b61108281611067565b811461108d57600080fd5b50565b60008135905061109f81611079565b92915050565b600080604083850312156110bc576110bb610f19565b5b60006110ca85828601610f4a565b92505060206110db85828601611090565b9150509250929050565b6110ee81610f23565b82525050565b600060808201905061110960008301876110e5565b818103602083015261111b8186610fec565b905061112a60408301856110e5565b61113760608301846110e5565b95945050505050565b61114981611067565b82525050565b61115881610f23565b82525050565b600082825260208201905092915050565b600061117a82610f8c565b611184818561115e565b9350611194818560208601610fa8565b61119d81610fdb565b840191505092915050565b60006080830160008301516111c0600086018261114f565b50602083015184820360208601526111d8828261116f565b91505060408301516111ed604086018261114f565b506060830151611200606086018261114f565b508091505092915050565b600061010082019050611221600083018b6110e5565b8181036020830152611233818a610fec565b905061124260408301896110e5565b61124f60608301886110e5565b61125c60808301876110e5565b61126960a0830186611140565b81810360c083015261127b81856111a8565b905081810360e083015261128f81846111a8565b90509998505050505050505050565b600080604083850312156112b5576112b4610f19565b5b60006112c385828601610f4a565b92505060206112d485828601610f4a565b9150509250929050565b600080fd5b600080fd5b7f4e487b7100000000000000000000000000000000000000000000000000000000600052604160045260246000fd5b61132082610fdb565b810181811067ffffffffffffffff8211171561133f5761133e6112e8565b5b80604052505050565b6000611352610f0f565b905061135e8282611317565b919050565b600067ffffffffffffffff82111561137e5761137d6112e8565b5b61138782610fdb565b9050602081019050919050565b82818337600083830152505050565b60006113b66113b184611363565b611348565b9050828152602081018484840111156113d2576113d16112e3565b5b6113dd848285611394565b509392505050565b600082601f8301126113fa576113f96112de565b5b813561140a8482602086016113a3565b91505092915050565b6000806000806080858703121561142d5761142c610f19565b5b600085013567ffffffffffffffff81111561144b5761144a610f1e565b5b611457878288016113e5565b945050602061146887828801610f4a565b935050604061147987828801610f4a565b925050606061148a87828801610f4a565b91505092959194509250565b6000806000606084860312156114af576114ae610f19565b5b600084013567ffffffffffffffff8111156114cd576114cc610f1e565b5b6114d9868287016113e5565b93505060206114ea86828701610f4a565b92505060406114fb86828701610f4a565b9150509250925092565b600081905092915050565b7f6e616d653a200000000000000000000000000000000000000000000000000000600082015250565b6000611546600683611505565b915061155182611510565b600682019050919050565b600061156782611539565b9150819050919050565b7f4e487b7100000000000000000000000000000000000000000000000000000000600052602260045260246000fd5b600060028204905060018216806115b857607f821691505b602082108114156115cc576115cb611571565b5b50919050565b60008190508160005260206000209050919050565b600081546115f4816115a0565b6115fe8186611505565b94506001821660008114611619576001811461162a5761165d565b60ff1983168652818601935061165d565b611633856115d2565b60005b8381101561165557815481890152600182019150602081019050611636565b838801955050505b50505092915050565b7f206f776e65722075706461746564207375636365737366756c6c792100000000600082015250565b600061169c601c83611505565b91506116a782611666565b601c82019050919050565b60006116be82846115e7565b91506116c98261168f565b915081905092915050565b7f20616464656420746f2000000000000000000000000000000000000000000000600082015250565b600061170a600a83611505565b9150611715826116d4565b600a82019050919050565b7f207375636365737366756c6c7921000000000000000000000000000000000000600082015250565b6000611756600e83611505565b915061176182611720565b600e82019050919050565b600061177882856115e7565b9150611783826116fd565b915061178f82846115e7565b915061179a82611749565b91508190509392505050565b7f4e487b7100000000000000000000000000000000000000000000000000000000600052601160045260246000fd5b60006117e082610f23565b915063ffffffff8214156117f7576117f66117a6565b5b600182019050919050565b7f2063726561746564207375636365737366756c6c792100000000000000000000600082015250565b6000611838601683611505565b915061184382611802565b601682019050919050565b600061185a82846115e7565b91506118658261182b565b91508190509291505056fea2646970667358221220f9dacd5f657fd0c4e62a6f02ee83bbf7aea8a852ca0b19b23c11b9f855c1ff5864736f6c634300080b0033",
  "immutableReferences": {},
  "source": "// SPDX-License-Identifier: Logan Hoots and Collin Stratton Project\npragma solidity >=0.4.22 <0.9.0;\n\n\n// create contract that creates cryptomons and moves\ncontract creator {\n    uint32 move_id;\n    struct move {\n        uint32 id;\n        string name;\n        uint32 damage;\n        uint32 missRate;\n    } mapping(uint32 => move) public movesList;\n\n    uint32 cryptomon_id;\n    struct cryptomon {\n        uint32 id;\n        string name;\n        uint32 attack;\n        uint32 defense;\n        uint32 hp;\n        address owner;\n        move move1;\n        move move2;\n    } mapping(uint32 => cryptomon) public cryptomonList;\n\n    function createCryptomon(string memory n, uint32 a, uint32 d, uint32 h) public returns (string memory) {\n        uint32 ID = cryptomon_id++;\n        cryptomonList[ID].id = ID;\n        cryptomonList[ID].name = n;\n        cryptomonList[ID].attack = a;\n        cryptomonList[ID].defense = d;\n        cryptomonList[ID].hp = h;\n        cryptomonList[ID].owner = msg.sender;\n        return string(abi.encodePacked(cryptomonList[ID].name, \" created successfully!\"));\n    }\n\n    function createMove(string memory n, uint32 d, uint32 m) public returns (string memory) {\n        uint32 ID = move_id++;\n        movesList[ID].id = ID;\n        movesList[ID].name = n;\n        movesList[ID].damage = d;\n        movesList[ID].missRate = m;\n        return string(abi.encodePacked(movesList[ID].name, \" created successfully!\"));\n    }\n\n    function addMove(uint32 cID_, uint32 mID_) public returns (string memory) {\n        move memory m = move(movesList[mID_].id, movesList[mID_].name, movesList[mID_].damage, movesList[mID_].missRate);\n        if (bytes(cryptomonList[cID_].move1.name).length == 0) cryptomonList[cID_].move1 = m;\n        else if (bytes(cryptomonList[cID_].move2.name).length == 0) cryptomonList[cID_].move2 = m;\n        return string(abi.encodePacked(movesList[mID_].name, \" added to \", cryptomonList[cID_].name, \" successfully!\"));\n    }\n\n    // function to update the owner of the cryptomon\n    function updateOwner(uint32 cID_, address newOwner_) public returns (string memory) {\n        cryptomonList[cID_].owner = newOwner_;\n        return string(abi.encodePacked(cryptomonList[cID_].name, \" owner updated successfully!\"));\n    }\n\n    // function to return cryptomon from cryptomon list by id as string\n    function ToString(uint32 cID_) public view returns (string memory s) {\n        s = string(abi.encodePacked(\"name: \"));\n    }\n}",
  "sourcePath": "/Users/collinstratton/Google Drive/School/GCU/Fall 2021 - Spring 2022/CST-461/CST-461/Cryptomon/contracts/creator.sol",
  "compiler": {
    "name": "solc",
    "version": "0.8.11+commit.d7f03943.Emscripten.clang"
  },
  "schemaVersion": "3.4.4",
  "updatedAt": "2022-04-17T01:10:42.710Z",
  "devdoc": {
    "kind": "dev",
    "methods": {},
    "version": 1
  },
  "userdoc": {
    "kind": "user",
    "methods": {},
    "version": 1
  }
}