{
  "contractName": "creator",
  "abi": [
    {
      "inputs": [
        {
          "internalType": "string",
          "name": "name",
          "type": "string"
        },
        {
          "internalType": "uint32",
          "name": "attack",
          "type": "uint32"
        },
        {
          "internalType": "uint32",
          "name": "defense",
          "type": "uint32"
        },
        {
          "internalType": "uint32",
          "name": "hp",
          "type": "uint32"
        },
        {
          "internalType": "address",
          "name": "owner",
          "type": "address"
        }
      ],
      "name": "createCryptomon",
      "outputs": [
        {
          "internalType": "contract cryptomon",
          "name": "c",
          "type": "address"
        }
      ],
      "stateMutability": "nonpayable",
      "type": "function"
    },
    {
      "inputs": [
        {
          "internalType": "uint32",
          "name": "damage",
          "type": "uint32"
        },
        {
          "internalType": "string",
          "name": "name",
          "type": "string"
        }
      ],
      "name": "createMove",
      "outputs": [
        {
          "internalType": "contract move",
          "name": "m",
          "type": "address"
        }
      ],
      "stateMutability": "nonpayable",
      "type": "function"
    },
    {
      "inputs": [
        {
          "internalType": "contract cryptomon",
          "name": "cryptomon_",
          "type": "address"
        },
        {
          "internalType": "contract move",
          "name": "move_",
          "type": "address"
        }
      ],
      "name": "addMove",
      "outputs": [],
      "stateMutability": "nonpayable",
      "type": "function"
    }
  ],
  "bytecode": "0x608060405234801561001057600080fd5b50611626806100206000396000f3fe60806040523480156200001157600080fd5b5060043610620000465760003560e01c80630684035f146200004b5780632597521a1462000081578063f728f3e814620000a1575b600080fd5b620000696004803603810190620000639190620004e2565b620000d7565b604051620000789190620005f4565b60405180910390f35b6200009f60048036038101906200009991906200069b565b62000188565b005b620000bf6004803603810190620000b99190620006e2565b620001fb565b604051620000ce91906200076d565b60405180910390f35b60008585858585604051620000ec90620002aa565b620000fc9594939291906200083f565b604051809103906000f08015801562000119573d6000803e3d6000fd5b5090506000819080600181540180825580915050600190039060005260206000200160009091909190916101000a81548173ffffffffffffffffffffffffffffffffffffffff021916908373ffffffffffffffffffffffffffffffffffffffff16021790555095945050505050565b8173ffffffffffffffffffffffffffffffffffffffff1663846eb6d7826040518263ffffffff1660e01b8152600401620001c391906200076d565b600060405180830381600087803b158015620001de57600080fd5b505af1158015620001f3573d6000803e3d6000fd5b505050505050565b600060018054905083836040516200021390620002b8565b6200022193929190620008a3565b604051809103906000f0801580156200023e573d6000803e3d6000fd5b5090506001819080600181540180825580915050600190039060005260206000200160009091909190916101000a81548173ffffffffffffffffffffffffffffffffffffffff021916908373ffffffffffffffffffffffffffffffffffffffff16021790555092915050565b6108fd80620008e883390190565b61040c80620011e583390190565b6000604051905090565b600080fd5b600080fd5b600080fd5b600080fd5b6000601f19601f8301169050919050565b7f4e487b7100000000000000000000000000000000000000000000000000000000600052604160045260246000fd5b6200032f82620002e4565b810181811067ffffffffffffffff82111715620003515762000350620002f5565b5b80604052505050565b600062000366620002c6565b905062000374828262000324565b919050565b600067ffffffffffffffff821115620003975762000396620002f5565b5b620003a282620002e4565b9050602081019050919050565b82818337600083830152505050565b6000620003d5620003cf8462000379565b6200035a565b905082815260208101848484011115620003f457620003f3620002df565b5b62000401848285620003af565b509392505050565b600082601f830112620004215762000420620002da565b5b813562000433848260208601620003be565b91505092915050565b600063ffffffff82169050919050565b62000457816200043c565b81146200046357600080fd5b50565b60008135905062000477816200044c565b92915050565b600073ffffffffffffffffffffffffffffffffffffffff82169050919050565b6000620004aa826200047d565b9050919050565b620004bc816200049d565b8114620004c857600080fd5b50565b600081359050620004dc81620004b1565b92915050565b600080600080600060a08688031215620005015762000500620002d0565b5b600086013567ffffffffffffffff811115620005225762000521620002d5565b5b620005308882890162000409565b9550506020620005438882890162000466565b9450506040620005568882890162000466565b9350506060620005698882890162000466565b92505060806200057c88828901620004cb565b9150509295509295909350565b6000819050919050565b6000620005b4620005ae620005a8846200047d565b62000589565b6200047d565b9050919050565b6000620005c88262000593565b9050919050565b6000620005dc82620005bb565b9050919050565b620005ee81620005cf565b82525050565b60006020820190506200060b6000830184620005e3565b92915050565b60006200061e826200049d565b9050919050565b620006308162000611565b81146200063c57600080fd5b50565b600081359050620006508162000625565b92915050565b600062000663826200049d565b9050919050565b620006758162000656565b81146200068157600080fd5b50565b60008135905062000695816200066a565b92915050565b60008060408385031215620006b557620006b4620002d0565b5b6000620006c5858286016200063f565b9250506020620006d88582860162000684565b9150509250929050565b60008060408385031215620006fc57620006fb620002d0565b5b60006200070c8582860162000466565b925050602083013567ffffffffffffffff81111562000730576200072f620002d5565b5b6200073e8582860162000409565b9150509250929050565b60006200075582620005bb565b9050919050565b620007678162000748565b82525050565b60006020820190506200078460008301846200075c565b92915050565b600081519050919050565b600082825260208201905092915050565b60005b83811015620007c6578082015181840152602081019050620007a9565b83811115620007d6576000848401525b50505050565b6000620007e9826200078a565b620007f5818562000795565b935062000807818560208601620007a6565b6200081281620002e4565b840191505092915050565b62000828816200043c565b82525050565b62000839816200049d565b82525050565b600060a08201905081810360008301526200085b8188620007dc565b90506200086c60208301876200081d565b6200087b60408301866200081d565b6200088a60608301856200081d565b6200089960808301846200082e565b9695505050505050565b6000606082019050620008ba60008301866200081d565b620008c960208301856200081d565b8181036040830152620008dd8184620007dc565b905094935050505056fe608060405260405180602001604052806000815250600090805190602001906200002b9291906200018d565b506000600160006101000a81548163ffffffff021916908363ffffffff1602179055506000600160046101000a81548163ffffffff021916908363ffffffff1602179055506000600160086101000a81548163ffffffff021916908363ffffffff1602179055503480156200009f57600080fd5b50604051620008fd380380620008fd8339818101604052810190620000c5919062000480565b8460009080519060200190620000dd9291906200018d565b5083600160006101000a81548163ffffffff021916908363ffffffff16021790555082600160046101000a81548163ffffffff021916908363ffffffff16021790555081600160086101000a81548163ffffffff021916908363ffffffff160217905550806001600c6101000a81548173ffffffffffffffffffffffffffffffffffffffff021916908373ffffffffffffffffffffffffffffffffffffffff16021790555050505050506200058c565b8280546200019b9062000556565b90600052602060002090601f016020900481019282620001bf57600085556200020b565b82601f10620001da57805160ff19168380011785556200020b565b828001600101855582156200020b579182015b828111156200020a578251825591602001919060010190620001ed565b5b5090506200021a91906200021e565b5090565b5b80821115620002395760008160009055506001016200021f565b5090565b6000604051905090565b600080fd5b600080fd5b600080fd5b600080fd5b6000601f19601f8301169050919050565b7f4e487b7100000000000000000000000000000000000000000000000000000000600052604160045260246000fd5b620002a6826200025b565b810181811067ffffffffffffffff82111715620002c857620002c76200026c565b5b80604052505050565b6000620002dd6200023d565b9050620002eb82826200029b565b919050565b600067ffffffffffffffff8211156200030e576200030d6200026c565b5b62000319826200025b565b9050602081019050919050565b60005b838110156200034657808201518184015260208101905062000329565b8381111562000356576000848401525b50505050565b6000620003736200036d84620002f0565b620002d1565b90508281526020810184848401111562000392576200039162000256565b5b6200039f84828562000326565b509392505050565b600082601f830112620003bf57620003be62000251565b5b8151620003d18482602086016200035c565b91505092915050565b600063ffffffff82169050919050565b620003f581620003da565b81146200040157600080fd5b50565b6000815190506200041581620003ea565b92915050565b600073ffffffffffffffffffffffffffffffffffffffff82169050919050565b600062000448826200041b565b9050919050565b6200045a816200043b565b81146200046657600080fd5b50565b6000815190506200047a816200044f565b92915050565b600080600080600060a086880312156200049f576200049e62000247565b5b600086015167ffffffffffffffff811115620004c057620004bf6200024c565b5b620004ce88828901620003a7565b9550506020620004e18882890162000404565b9450506040620004f48882890162000404565b9350506060620005078882890162000404565b92505060806200051a8882890162000469565b9150509295509295909350565b7f4e487b7100000000000000000000000000000000000000000000000000000000600052602260045260246000fd5b600060028204905060018216806200056f57607f821691505b6020821081141562000586576200058562000527565b5b50919050565b610361806200059c6000396000f3fe608060405234801561001057600080fd5b50600436106100365760003560e01c8063846eb6d71461003b578063bf7297a214610057575b600080fd5b610055600480360381019061005091906101e2565b610075565b005b61005f6100db565b60405161006c91906102a8565b60405180910390f35b6002819080600181540180825580915050600190039060005260206000200160009091909190916101000a81548173ffffffffffffffffffffffffffffffffffffffff021916908373ffffffffffffffffffffffffffffffffffffffff16021790555050565b6060600080546100ea906102f9565b80601f0160208091040260200160405190810160405280929190818152602001828054610116906102f9565b80156101635780601f1061013857610100808354040283529160200191610163565b820191906000526020600020905b81548152906001019060200180831161014657829003601f168201915b5050505050905090565b600080fd5b600073ffffffffffffffffffffffffffffffffffffffff82169050919050565b600061019d82610172565b9050919050565b60006101af82610192565b9050919050565b6101bf816101a4565b81146101ca57600080fd5b50565b6000813590506101dc816101b6565b92915050565b6000602082840312156101f8576101f761016d565b5b6000610206848285016101cd565b91505092915050565b600081519050919050565b600082825260208201905092915050565b60005b8381101561024957808201518184015260208101905061022e565b83811115610258576000848401525b50505050565b6000601f19601f8301169050919050565b600061027a8261020f565b610284818561021a565b935061029481856020860161022b565b61029d8161025e565b840191505092915050565b600060208201905081810360008301526102c2818461026f565b905092915050565b7f4e487b7100000000000000000000000000000000000000000000000000000000600052602260045260246000fd5b6000600282049050600182168061031157607f821691505b60208210811415610325576103246102ca565b5b5091905056fea2646970667358221220b3e4ff5e8ce100fcf1b5fada6a165e2c5349c83e580a303a083e76382d6ddb1a64736f6c634300080b0033608060405234801561001057600080fd5b5060405161040c38038061040c833981810160405281019061003291906102ef565b826000806101000a81548163ffffffff021916908363ffffffff16021790555081600060046101000a81548163ffffffff021916908363ffffffff1602179055508060019080519060200190610089929190610092565b505050506103bf565b82805461009e9061038d565b90600052602060002090601f0160209004810192826100c05760008555610107565b82601f106100d957805160ff1916838001178555610107565b82800160010185558215610107579182015b828111156101065782518255916020019190600101906100eb565b5b5090506101149190610118565b5090565b5b80821115610131576000816000905550600101610119565b5090565b6000604051905090565b600080fd5b600080fd5b600063ffffffff82169050919050565b61016281610149565b811461016d57600080fd5b50565b60008151905061017f81610159565b92915050565b600080fd5b600080fd5b6000601f19601f8301169050919050565b7f4e487b7100000000000000000000000000000000000000000000000000000000600052604160045260246000fd5b6101d88261018f565b810181811067ffffffffffffffff821117156101f7576101f66101a0565b5b80604052505050565b600061020a610135565b905061021682826101cf565b919050565b600067ffffffffffffffff821115610236576102356101a0565b5b61023f8261018f565b9050602081019050919050565b60005b8381101561026a57808201518184015260208101905061024f565b83811115610279576000848401525b50505050565b600061029261028d8461021b565b610200565b9050828152602081018484840111156102ae576102ad61018a565b5b6102b984828561024c565b509392505050565b600082601f8301126102d6576102d5610185565b5b81516102e684826020860161027f565b91505092915050565b6000806000606084860312156103085761030761013f565b5b600061031686828701610170565b935050602061032786828701610170565b925050604084015167ffffffffffffffff81111561034857610347610144565b5b610354868287016102c1565b9150509250925092565b7f4e487b7100000000000000000000000000000000000000000000000000000000600052602260045260246000fd5b600060028204905060018216806103a557607f821691505b602082108114156103b9576103b861035e565b5b50919050565b603f806103cd6000396000f3fe6080604052600080fdfea264697066735822122020bfd54b669c2476c928970001dffe3706336c3cfcb507cb1f8a865f7af3849b64736f6c634300080b0033a26469706673582212205818f986f81373104a1cb31e21fa66c423ce5546d152fc643a39d6e196601ad364736f6c634300080b0033",
  "immutableReferences": {},
  "source": "// SPDX-License-Identifier: Logan Hoots and Collin Stratton Project\npragma solidity >=0.4.22 <0.9.0;\nimport \"./cryptomon.sol\";\n//import \"./move.sol\";\n\n// create contract that creates cryptomons and moves\ncontract creator {\n    // create list of cryptomon\n    cryptomon[] cryptomonList;\n    // create list of moves\n    move[] movesList;\n    \n    // create cryptomon and add it to a list of cryptomon\n    function createCryptomon(string memory name, uint32 attack, uint32 defense, uint32 hp, address owner) public returns (cryptomon c) {\n        c = new cryptomon(name, attack, defense, hp, owner);\n        cryptomonList.push(c);\n    }\n    \n    // create move\n    function createMove(uint32 damage, string memory name) public returns (move m) {\n        m = new move(uint32(uint256(movesList.length)), damage, name);\n        movesList.push(m);\n    }\n\n    // add additional moves to cryptomon\n    function addMove(cryptomon cryptomon_, move move_) public {\n        cryptomon_.addMove(move_);\n    }\n}",
  "sourcePath": "/Users/collinstratton/Google Drive/School/GCU/Fall 2021 - Spring 2022/CST-461/CST-461/Cryptomon/contracts/creator.sol",
  "compiler": {
    "name": "solc",
    "version": "0.8.11+commit.d7f03943.Emscripten.clang"
  },
  "schemaVersion": "3.4.4",
  "updatedAt": "2022-04-01T15:44:39.904Z",
  "devdoc": {
    "kind": "dev",
    "methods": {},
    "version": 1
  },
  "userdoc": {
    "kind": "user",
    "methods": {},
    "version": 1
  }
}