{
  "contractName": "creator",
  "abi": [
    {
      "inputs": [
        {
          "internalType": "uint32",
          "name": "",
          "type": "uint32"
        }
      ],
      "name": "cryptomonList",
      "outputs": [
        {
          "internalType": "uint32",
          "name": "id",
          "type": "uint32"
        },
        {
          "internalType": "string",
          "name": "name",
          "type": "string"
        },
        {
          "internalType": "uint32",
          "name": "attack",
          "type": "uint32"
        },
        {
          "internalType": "uint32",
          "name": "defense",
          "type": "uint32"
        },
        {
          "internalType": "uint32",
          "name": "hp",
          "type": "uint32"
        },
        {
          "internalType": "address",
          "name": "owner",
          "type": "address"
        },
        {
          "components": [
            {
              "internalType": "uint32",
              "name": "id",
              "type": "uint32"
            },
            {
              "internalType": "string",
              "name": "name",
              "type": "string"
            },
            {
              "internalType": "uint32",
              "name": "damage",
              "type": "uint32"
            }
          ],
          "internalType": "struct creator.move",
          "name": "move1",
          "type": "tuple"
        },
        {
          "components": [
            {
              "internalType": "uint32",
              "name": "id",
              "type": "uint32"
            },
            {
              "internalType": "string",
              "name": "name",
              "type": "string"
            },
            {
              "internalType": "uint32",
              "name": "damage",
              "type": "uint32"
            }
          ],
          "internalType": "struct creator.move",
          "name": "move2",
          "type": "tuple"
        }
      ],
      "stateMutability": "view",
      "type": "function",
      "constant": true
    },
    {
      "inputs": [
        {
          "internalType": "uint32",
          "name": "",
          "type": "uint32"
        }
      ],
      "name": "movesList",
      "outputs": [
        {
          "internalType": "uint32",
          "name": "id",
          "type": "uint32"
        },
        {
          "internalType": "string",
          "name": "name",
          "type": "string"
        },
        {
          "internalType": "uint32",
          "name": "damage",
          "type": "uint32"
        }
      ],
      "stateMutability": "view",
      "type": "function",
      "constant": true
    },
    {
      "inputs": [
        {
          "internalType": "string",
          "name": "n",
          "type": "string"
        },
        {
          "internalType": "uint32",
          "name": "a",
          "type": "uint32"
        },
        {
          "internalType": "uint32",
          "name": "d",
          "type": "uint32"
        },
        {
          "internalType": "uint32",
          "name": "h",
          "type": "uint32"
        }
      ],
      "name": "createCryptomon",
      "outputs": [
        {
          "internalType": "string",
          "name": "",
          "type": "string"
        }
      ],
      "stateMutability": "nonpayable",
      "type": "function"
    },
    {
      "inputs": [
        {
          "internalType": "string",
          "name": "n",
          "type": "string"
        },
        {
          "internalType": "uint32",
          "name": "d",
          "type": "uint32"
        }
      ],
      "name": "createMove",
      "outputs": [
        {
          "internalType": "string",
          "name": "",
          "type": "string"
        }
      ],
      "stateMutability": "nonpayable",
      "type": "function"
    },
    {
      "inputs": [
        {
          "internalType": "uint32",
          "name": "cID_",
          "type": "uint32"
        },
        {
          "internalType": "uint32",
          "name": "mID_",
          "type": "uint32"
        }
      ],
      "name": "addMove",
      "outputs": [
        {
          "internalType": "string",
          "name": "",
          "type": "string"
        }
      ],
      "stateMutability": "nonpayable",
      "type": "function"
    }
  ],
  "bytecode": "0x608060405234801561001057600080fd5b506114ad806100206000396000f3fe608060405234801561001057600080fd5b50600436106100575760003560e01c806373ff50391461005c57806393df1bca1461008e578063a73ad2a6146100c5578063bc5ff07b146100f5578063eda9da5014610125575b600080fd5b61007660048036038101906100719190610cd5565b610155565b60405161008593929190610daa565b60405180910390f35b6100a860048036038101906100a39190610cd5565b610227565b6040516100bc989796959493929190610ed2565b60405180910390f35b6100df60048036038101906100da9190610f65565b610527565b6040516100ec9190610fa5565b60405180910390f35b61010f600480360381019061010a91906110fc565b61086c565b60405161011c9190610fa5565b60405180910390f35b61013f600480360381019061013a919061117f565b610a9a565b60405161014c9190610fa5565b60405180910390f35b60016020528060005260406000206000915090508060000160009054906101000a900463ffffffff169080600101805461018e9061120a565b80601f01602080910402602001604051908101604052809291908181526020018280546101ba9061120a565b80156102075780601f106101dc57610100808354040283529160200191610207565b820191906000526020600020905b8154815290600101906020018083116101ea57829003601f168201915b5050505050908060020160009054906101000a900463ffffffff16905083565b60036020528060005260406000206000915090508060000160009054906101000a900463ffffffff16908060010180546102609061120a565b80601f016020809104026020016040519081016040528092919081815260200182805461028c9061120a565b80156102d95780601f106102ae576101008083540402835291602001916102d9565b820191906000526020600020905b8154815290600101906020018083116102bc57829003601f168201915b5050505050908060020160009054906101000a900463ffffffff16908060020160049054906101000a900463ffffffff16908060020160089054906101000a900463ffffffff169080600201600c9054906101000a900473ffffffffffffffffffffffffffffffffffffffff1690806003016040518060600160405290816000820160009054906101000a900463ffffffff1663ffffffff1663ffffffff16815260200160018201805461038c9061120a565b80601f01602080910402602001604051908101604052809291908181526020018280546103b89061120a565b80156104055780601f106103da57610100808354040283529160200191610405565b820191906000526020600020905b8154815290600101906020018083116103e857829003601f168201915b505050505081526020016002820160009054906101000a900463ffffffff1663ffffffff1663ffffffff168152505090806006016040518060600160405290816000820160009054906101000a900463ffffffff1663ffffffff1663ffffffff16815260200160018201805461047a9061120a565b80601f01602080910402602001604051908101604052809291908181526020018280546104a69061120a565b80156104f35780601f106104c8576101008083540402835291602001916104f3565b820191906000526020600020905b8154815290600101906020018083116104d657829003601f168201915b505050505081526020016002820160009054906101000a900463ffffffff1663ffffffff1663ffffffff1681525050905088565b606060006040518060600160405280600160008663ffffffff1663ffffffff16815260200190815260200160002060000160009054906101000a900463ffffffff1663ffffffff168152602001600160008663ffffffff1663ffffffff16815260200190815260200160002060010180546105a19061120a565b80601f01602080910402602001604051908101604052809291908181526020018280546105cd9061120a565b801561061a5780601f106105ef5761010080835404028352916020019161061a565b820191906000526020600020905b8154815290600101906020018083116105fd57829003601f168201915b50505050508152602001600160008663ffffffff1663ffffffff16815260200190815260200160002060020160009054906101000a900463ffffffff1663ffffffff1681525090506000600360008663ffffffff1663ffffffff16815260200190815260200160002060030160010180546106949061120a565b905014156107325780600360008663ffffffff1663ffffffff16815260200190815260200160002060030160008201518160000160006101000a81548163ffffffff021916908363ffffffff1602179055506020820151816001019080519060200190610702929190610be2565b5060408201518160020160006101000a81548163ffffffff021916908363ffffffff1602179055509050506107ff565b6000600360008663ffffffff1663ffffffff16815260200190815260200160002060060160010180546107649061120a565b905014156107fe5780600360008663ffffffff1663ffffffff16815260200190815260200160002060060160008201518160000160006101000a81548163ffffffff021916908363ffffffff16021790555060208201518160010190805190602001906107d2929190610be2565b5060408201518160020160006101000a81548163ffffffff021916908363ffffffff1602179055509050505b5b600160008463ffffffff1663ffffffff168152602001908152602001600020600101600360008663ffffffff1663ffffffff168152602001908152602001600020600101604051602001610854929190611373565b60405160208183030381529060405291505092915050565b606060006002600081819054906101000a900463ffffffff1680929190610892906113dc565b91906101000a81548163ffffffff021916908363ffffffff160217905550905080600360008363ffffffff1663ffffffff16815260200190815260200160002060000160006101000a81548163ffffffff021916908363ffffffff16021790555085600360008363ffffffff1663ffffffff1681526020019081526020016000206001019080519060200190610929929190610be2565b5084600360008363ffffffff1663ffffffff16815260200190815260200160002060020160006101000a81548163ffffffff021916908363ffffffff16021790555083600360008363ffffffff1663ffffffff16815260200190815260200160002060020160046101000a81548163ffffffff021916908363ffffffff16021790555082600360008363ffffffff1663ffffffff16815260200190815260200160002060020160086101000a81548163ffffffff021916908363ffffffff16021790555033600360008363ffffffff1663ffffffff168152602001908152602001600020600201600c6101000a81548173ffffffffffffffffffffffffffffffffffffffff021916908373ffffffffffffffffffffffffffffffffffffffff160217905550600360008263ffffffff1663ffffffff168152602001908152602001600020600101604051602001610a809190611455565b604051602081830303815290604052915050949350505050565b6060600080600081819054906101000a900463ffffffff1680929190610abf906113dc565b91906101000a81548163ffffffff021916908363ffffffff160217905550905080600160008363ffffffff1663ffffffff16815260200190815260200160002060000160006101000a81548163ffffffff021916908363ffffffff16021790555083600160008363ffffffff1663ffffffff1681526020019081526020016000206001019080519060200190610b56929190610be2565b5082600160008363ffffffff1663ffffffff16815260200190815260200160002060020160006101000a81548163ffffffff021916908363ffffffff160217905550600160008263ffffffff1663ffffffff168152602001908152602001600020600101604051602001610bca9190611455565b60405160208183030381529060405291505092915050565b828054610bee9061120a565b90600052602060002090601f016020900481019282610c105760008555610c57565b82601f10610c2957805160ff1916838001178555610c57565b82800160010185558215610c57579182015b82811115610c56578251825591602001919060010190610c3b565b5b509050610c649190610c68565b5090565b5b80821115610c81576000816000905550600101610c69565b5090565b6000604051905090565b600080fd5b600080fd5b600063ffffffff82169050919050565b610cb281610c99565b8114610cbd57600080fd5b50565b600081359050610ccf81610ca9565b92915050565b600060208284031215610ceb57610cea610c8f565b5b6000610cf984828501610cc0565b91505092915050565b610d0b81610c99565b82525050565b600081519050919050565b600082825260208201905092915050565b60005b83811015610d4b578082015181840152602081019050610d30565b83811115610d5a576000848401525b50505050565b6000601f19601f8301169050919050565b6000610d7c82610d11565b610d868185610d1c565b9350610d96818560208601610d2d565b610d9f81610d60565b840191505092915050565b6000606082019050610dbf6000830186610d02565b8181036020830152610dd18185610d71565b9050610de06040830184610d02565b949350505050565b600073ffffffffffffffffffffffffffffffffffffffff82169050919050565b6000610e1382610de8565b9050919050565b610e2381610e08565b82525050565b610e3281610c99565b82525050565b600082825260208201905092915050565b6000610e5482610d11565b610e5e8185610e38565b9350610e6e818560208601610d2d565b610e7781610d60565b840191505092915050565b6000606083016000830151610e9a6000860182610e29565b5060208301518482036020860152610eb28282610e49565b9150506040830151610ec76040860182610e29565b508091505092915050565b600061010082019050610ee8600083018b610d02565b8181036020830152610efa818a610d71565b9050610f096040830189610d02565b610f166060830188610d02565b610f236080830187610d02565b610f3060a0830186610e1a565b81810360c0830152610f428185610e82565b905081810360e0830152610f568184610e82565b90509998505050505050505050565b60008060408385031215610f7c57610f7b610c8f565b5b6000610f8a85828601610cc0565b9250506020610f9b85828601610cc0565b9150509250929050565b60006020820190508181036000830152610fbf8184610d71565b905092915050565b600080fd5b600080fd5b7f4e487b7100000000000000000000000000000000000000000000000000000000600052604160045260246000fd5b61100982610d60565b810181811067ffffffffffffffff8211171561102857611027610fd1565b5b80604052505050565b600061103b610c85565b90506110478282611000565b919050565b600067ffffffffffffffff82111561106757611066610fd1565b5b61107082610d60565b9050602081019050919050565b82818337600083830152505050565b600061109f61109a8461104c565b611031565b9050828152602081018484840111156110bb576110ba610fcc565b5b6110c684828561107d565b509392505050565b600082601f8301126110e3576110e2610fc7565b5b81356110f384826020860161108c565b91505092915050565b6000806000806080858703121561111657611115610c8f565b5b600085013567ffffffffffffffff81111561113457611133610c94565b5b611140878288016110ce565b945050602061115187828801610cc0565b935050604061116287828801610cc0565b925050606061117387828801610cc0565b91505092959194509250565b6000806040838503121561119657611195610c8f565b5b600083013567ffffffffffffffff8111156111b4576111b3610c94565b5b6111c0858286016110ce565b92505060206111d185828601610cc0565b9150509250929050565b7f4e487b7100000000000000000000000000000000000000000000000000000000600052602260045260246000fd5b6000600282049050600182168061122257607f821691505b60208210811415611236576112356111db565b5b50919050565b600081905092915050565b60008190508160005260206000209050919050565b600081546112698161120a565b611273818661123c565b9450600182166000811461128e576001811461129f576112d2565b60ff198316865281860193506112d2565b6112a885611247565b60005b838110156112ca578154818901526001820191506020810190506112ab565b838801955050505b50505092915050565b7f20616464656420746f2000000000000000000000000000000000000000000000600082015250565b6000611311600a8361123c565b915061131c826112db565b600a82019050919050565b7f207375636365737366756c6c7921000000000000000000000000000000000000600082015250565b600061135d600e8361123c565b915061136882611327565b600e82019050919050565b600061137f828561125c565b915061138a82611304565b9150611396828461125c565b91506113a182611350565b91508190509392505050565b7f4e487b7100000000000000000000000000000000000000000000000000000000600052601160045260246000fd5b60006113e782610c99565b915063ffffffff8214156113fe576113fd6113ad565b5b600182019050919050565b7f2063726561746564207375636365737366756c6c792100000000000000000000600082015250565b600061143f60168361123c565b915061144a82611409565b601682019050919050565b6000611461828461125c565b915061146c82611432565b91508190509291505056fea2646970667358221220a908ae7fcd23b06e4a16bb7e7faa38e7df73df2c6dc7f760096512b8f6c37bc164736f6c634300080b0033",
  "immutableReferences": {},
  "source": "// SPDX-License-Identifier: Logan Hoots and Collin Stratton Project\npragma solidity >=0.4.22 <0.9.0;\n\n// create contract that creates cryptomons and moves\ncontract creator {\n    uint32 move_id;\n    struct move {\n        uint32 id;\n        string name;\n        uint32 damage;\n    } mapping(uint32 => move) public movesList;\n\n    uint32 cryptomon_id;\n    struct cryptomon {\n        uint32 id;\n        string name;\n        uint32 attack;\n        uint32 defense;\n        uint32 hp;\n        address owner;\n        move move1;\n        move move2;\n    } mapping(uint32 => cryptomon) public cryptomonList;\n\n    function createCryptomon(string memory n, uint32 a, uint32 d, uint32 h) public returns (string memory) {\n        uint32 ID = cryptomon_id++;\n        cryptomonList[ID].id = ID;\n        cryptomonList[ID].name = n;\n        cryptomonList[ID].attack = a;\n        cryptomonList[ID].defense = d;\n        cryptomonList[ID].hp = h;\n        cryptomonList[ID].owner = msg.sender;\n        return string(abi.encodePacked(cryptomonList[ID].name, \" created successfully!\"));\n    }\n\n    function createMove(string memory n, uint32 d) public returns (string memory) {\n        uint32 ID = move_id++;\n        movesList[ID].id = ID;\n        movesList[ID].name = n;\n        movesList[ID].damage = d;\n        return string(abi.encodePacked(movesList[ID].name, \" created successfully!\"));\n    }\n\n    function addMove(uint32 cID_, uint32 mID_) public returns (string memory) {\n        move memory m = move(movesList[mID_].id, movesList[mID_].name, movesList[mID_].damage);\n        if (bytes(cryptomonList[cID_].move1.name).length == 0) cryptomonList[cID_].move1 = m;\n        else if (bytes(cryptomonList[cID_].move2.name).length == 0) cryptomonList[cID_].move2 = m;\n        return string(abi.encodePacked(movesList[mID_].name, \" added to \", cryptomonList[cID_].name, \" successfully!\"));\n    }\n}",
  "sourcePath": "/Users/collinstratton/Google Drive/School/GCU/Fall 2021 - Spring 2022/CST-461/CST-461/Cryptomon/contracts/creator.sol",
  "compiler": {
    "name": "solc",
    "version": "0.8.11+commit.d7f03943.Emscripten.clang"
  },
  "schemaVersion": "3.4.4",
  "updatedAt": "2022-04-09T00:10:42.640Z",
  "networkType": "ethereum",
  "devdoc": {
    "kind": "dev",
    "methods": {},
    "version": 1
  },
  "userdoc": {
    "kind": "user",
    "methods": {},
    "version": 1
  }
}