{
  "contractName": "creator",
  "abi": [
    {
      "inputs": [
        {
          "internalType": "uint32",
          "name": "",
          "type": "uint32"
        }
      ],
      "name": "cryptomonList",
      "outputs": [
        {
          "internalType": "uint32",
          "name": "id",
          "type": "uint32"
        },
        {
          "internalType": "string",
          "name": "name",
          "type": "string"
        },
        {
          "internalType": "uint32",
          "name": "attack",
          "type": "uint32"
        },
        {
          "internalType": "uint32",
          "name": "defense",
          "type": "uint32"
        },
        {
          "internalType": "uint32",
          "name": "hp",
          "type": "uint32"
        },
        {
          "internalType": "address",
          "name": "owner",
          "type": "address"
        },
        {
          "components": [
            {
              "internalType": "uint32",
              "name": "id",
              "type": "uint32"
            },
            {
              "internalType": "string",
              "name": "name",
              "type": "string"
            },
            {
              "internalType": "uint32",
              "name": "damage",
              "type": "uint32"
            }
          ],
          "internalType": "struct creator.move",
          "name": "move1",
          "type": "tuple"
        },
        {
          "components": [
            {
              "internalType": "uint32",
              "name": "id",
              "type": "uint32"
            },
            {
              "internalType": "string",
              "name": "name",
              "type": "string"
            },
            {
              "internalType": "uint32",
              "name": "damage",
              "type": "uint32"
            }
          ],
          "internalType": "struct creator.move",
          "name": "move2",
          "type": "tuple"
        }
      ],
      "stateMutability": "view",
      "type": "function"
    },
    {
      "inputs": [
        {
          "internalType": "uint32",
          "name": "",
          "type": "uint32"
        }
      ],
      "name": "movesList",
      "outputs": [
        {
          "internalType": "uint32",
          "name": "id",
          "type": "uint32"
        },
        {
          "internalType": "string",
          "name": "name",
          "type": "string"
        },
        {
          "internalType": "uint32",
          "name": "damage",
          "type": "uint32"
        }
      ],
      "stateMutability": "view",
      "type": "function"
    },
    {
      "inputs": [
        {
          "internalType": "string",
          "name": "n",
          "type": "string"
        },
        {
          "internalType": "uint32",
          "name": "a",
          "type": "uint32"
        },
        {
          "internalType": "uint32",
          "name": "d",
          "type": "uint32"
        },
        {
          "internalType": "uint32",
          "name": "h",
          "type": "uint32"
        }
      ],
      "name": "createCryptomon",
      "outputs": [
        {
          "internalType": "string",
          "name": "",
          "type": "string"
        }
      ],
      "stateMutability": "nonpayable",
      "type": "function"
    },
    {
      "inputs": [
        {
          "internalType": "string",
          "name": "n",
          "type": "string"
        },
        {
          "internalType": "uint32",
          "name": "d",
          "type": "uint32"
        }
      ],
      "name": "createMove",
      "outputs": [
        {
          "internalType": "string",
          "name": "",
          "type": "string"
        }
      ],
      "stateMutability": "nonpayable",
      "type": "function"
    },
    {
      "inputs": [
        {
          "internalType": "uint32",
          "name": "cID_",
          "type": "uint32"
        },
        {
          "internalType": "uint32",
          "name": "mID_",
          "type": "uint32"
        }
      ],
      "name": "addMove",
      "outputs": [
        {
          "internalType": "string",
          "name": "",
          "type": "string"
        }
      ],
      "stateMutability": "nonpayable",
      "type": "function"
    },
    {
      "inputs": [
        {
          "internalType": "uint32",
          "name": "cID_",
          "type": "uint32"
        },
        {
          "internalType": "address",
          "name": "newOwner_",
          "type": "address"
        }
      ],
      "name": "updateOwner",
      "outputs": [
        {
          "internalType": "string",
          "name": "",
          "type": "string"
        }
      ],
      "stateMutability": "nonpayable",
      "type": "function"
    }
  ],
  "bytecode": "0x608060405234801561001057600080fd5b5061166e806100206000396000f3fe608060405234801561001057600080fd5b50600436106100625760003560e01c8063558dfe1c1461006757806373ff50391461009757806393df1bca146100c9578063a73ad2a614610100578063bc5ff07b14610130578063eda9da5014610160575b600080fd5b610081600480360381019061007c9190610e1a565b610190565b60405161008e9190610ef3565b60405180910390f35b6100b160048036038101906100ac9190610f15565b61023c565b6040516100c093929190610f51565b60405180910390f35b6100e360048036038101906100de9190610f15565b61030e565b6040516100f7989796959493929190611047565b60405180910390f35b61011a600480360381019061011591906110da565b61060e565b6040516101279190610ef3565b60405180910390f35b61014a6004803603810190610145919061124f565b610953565b6040516101579190610ef3565b60405180910390f35b61017a600480360381019061017591906112d2565b610b81565b6040516101879190610ef3565b60405180910390f35b606081600360008563ffffffff1663ffffffff168152602001908152602001600020600201600c6101000a81548173ffffffffffffffffffffffffffffffffffffffff021916908373ffffffffffffffffffffffffffffffffffffffff160217905550600360008463ffffffff1663ffffffff168152602001908152602001600020600101604051602001610225919061147a565b604051602081830303815290604052905092915050565b60016020528060005260406000206000915090508060000160009054906101000a900463ffffffff16908060010180546102759061135d565b80601f01602080910402602001604051908101604052809291908181526020018280546102a19061135d565b80156102ee5780601f106102c3576101008083540402835291602001916102ee565b820191906000526020600020905b8154815290600101906020018083116102d157829003601f168201915b5050505050908060020160009054906101000a900463ffffffff16905083565b60036020528060005260406000206000915090508060000160009054906101000a900463ffffffff16908060010180546103479061135d565b80601f01602080910402602001604051908101604052809291908181526020018280546103739061135d565b80156103c05780601f10610395576101008083540402835291602001916103c0565b820191906000526020600020905b8154815290600101906020018083116103a357829003601f168201915b5050505050908060020160009054906101000a900463ffffffff16908060020160049054906101000a900463ffffffff16908060020160089054906101000a900463ffffffff169080600201600c9054906101000a900473ffffffffffffffffffffffffffffffffffffffff1690806003016040518060600160405290816000820160009054906101000a900463ffffffff1663ffffffff1663ffffffff1681526020016001820180546104739061135d565b80601f016020809104026020016040519081016040528092919081815260200182805461049f9061135d565b80156104ec5780601f106104c1576101008083540402835291602001916104ec565b820191906000526020600020905b8154815290600101906020018083116104cf57829003601f168201915b505050505081526020016002820160009054906101000a900463ffffffff1663ffffffff1663ffffffff168152505090806006016040518060600160405290816000820160009054906101000a900463ffffffff1663ffffffff1663ffffffff1681526020016001820180546105619061135d565b80601f016020809104026020016040519081016040528092919081815260200182805461058d9061135d565b80156105da5780601f106105af576101008083540402835291602001916105da565b820191906000526020600020905b8154815290600101906020018083116105bd57829003601f168201915b505050505081526020016002820160009054906101000a900463ffffffff1663ffffffff1663ffffffff1681525050905088565b606060006040518060600160405280600160008663ffffffff1663ffffffff16815260200190815260200160002060000160009054906101000a900463ffffffff1663ffffffff168152602001600160008663ffffffff1663ffffffff16815260200190815260200160002060010180546106889061135d565b80601f01602080910402602001604051908101604052809291908181526020018280546106b49061135d565b80156107015780601f106106d657610100808354040283529160200191610701565b820191906000526020600020905b8154815290600101906020018083116106e457829003601f168201915b50505050508152602001600160008663ffffffff1663ffffffff16815260200190815260200160002060020160009054906101000a900463ffffffff1663ffffffff1681525090506000600360008663ffffffff1663ffffffff168152602001908152602001600020600301600101805461077b9061135d565b905014156108195780600360008663ffffffff1663ffffffff16815260200190815260200160002060030160008201518160000160006101000a81548163ffffffff021916908363ffffffff16021790555060208201518160010190805190602001906107e9929190610cc9565b5060408201518160020160006101000a81548163ffffffff021916908363ffffffff1602179055509050506108e6565b6000600360008663ffffffff1663ffffffff168152602001908152602001600020600601600101805461084b9061135d565b905014156108e55780600360008663ffffffff1663ffffffff16815260200190815260200160002060060160008201518160000160006101000a81548163ffffffff021916908363ffffffff16021790555060208201518160010190805190602001906108b9929190610cc9565b5060408201518160020160006101000a81548163ffffffff021916908363ffffffff1602179055509050505b5b600160008463ffffffff1663ffffffff168152602001908152602001600020600101600360008663ffffffff1663ffffffff16815260200190815260200160002060010160405160200161093b929190611534565b60405160208183030381529060405291505092915050565b606060006002600081819054906101000a900463ffffffff16809291906109799061159d565b91906101000a81548163ffffffff021916908363ffffffff160217905550905080600360008363ffffffff1663ffffffff16815260200190815260200160002060000160006101000a81548163ffffffff021916908363ffffffff16021790555085600360008363ffffffff1663ffffffff1681526020019081526020016000206001019080519060200190610a10929190610cc9565b5084600360008363ffffffff1663ffffffff16815260200190815260200160002060020160006101000a81548163ffffffff021916908363ffffffff16021790555083600360008363ffffffff1663ffffffff16815260200190815260200160002060020160046101000a81548163ffffffff021916908363ffffffff16021790555082600360008363ffffffff1663ffffffff16815260200190815260200160002060020160086101000a81548163ffffffff021916908363ffffffff16021790555033600360008363ffffffff1663ffffffff168152602001908152602001600020600201600c6101000a81548173ffffffffffffffffffffffffffffffffffffffff021916908373ffffffffffffffffffffffffffffffffffffffff160217905550600360008263ffffffff1663ffffffff168152602001908152602001600020600101604051602001610b679190611616565b604051602081830303815290604052915050949350505050565b6060600080600081819054906101000a900463ffffffff1680929190610ba69061159d565b91906101000a81548163ffffffff021916908363ffffffff160217905550905080600160008363ffffffff1663ffffffff16815260200190815260200160002060000160006101000a81548163ffffffff021916908363ffffffff16021790555083600160008363ffffffff1663ffffffff1681526020019081526020016000206001019080519060200190610c3d929190610cc9565b5082600160008363ffffffff1663ffffffff16815260200190815260200160002060020160006101000a81548163ffffffff021916908363ffffffff160217905550600160008263ffffffff1663ffffffff168152602001908152602001600020600101604051602001610cb19190611616565b60405160208183030381529060405291505092915050565b828054610cd59061135d565b90600052602060002090601f016020900481019282610cf75760008555610d3e565b82601f10610d1057805160ff1916838001178555610d3e565b82800160010185558215610d3e579182015b82811115610d3d578251825591602001919060010190610d22565b5b509050610d4b9190610d4f565b5090565b5b80821115610d68576000816000905550600101610d50565b5090565b6000604051905090565b600080fd5b600080fd5b600063ffffffff82169050919050565b610d9981610d80565b8114610da457600080fd5b50565b600081359050610db681610d90565b92915050565b600073ffffffffffffffffffffffffffffffffffffffff82169050919050565b6000610de782610dbc565b9050919050565b610df781610ddc565b8114610e0257600080fd5b50565b600081359050610e1481610dee565b92915050565b60008060408385031215610e3157610e30610d76565b5b6000610e3f85828601610da7565b9250506020610e5085828601610e05565b9150509250929050565b600081519050919050565b600082825260208201905092915050565b60005b83811015610e94578082015181840152602081019050610e79565b83811115610ea3576000848401525b50505050565b6000601f19601f8301169050919050565b6000610ec582610e5a565b610ecf8185610e65565b9350610edf818560208601610e76565b610ee881610ea9565b840191505092915050565b60006020820190508181036000830152610f0d8184610eba565b905092915050565b600060208284031215610f2b57610f2a610d76565b5b6000610f3984828501610da7565b91505092915050565b610f4b81610d80565b82525050565b6000606082019050610f666000830186610f42565b8181036020830152610f788185610eba565b9050610f876040830184610f42565b949350505050565b610f9881610ddc565b82525050565b610fa781610d80565b82525050565b600082825260208201905092915050565b6000610fc982610e5a565b610fd38185610fad565b9350610fe3818560208601610e76565b610fec81610ea9565b840191505092915050565b600060608301600083015161100f6000860182610f9e565b50602083015184820360208601526110278282610fbe565b915050604083015161103c6040860182610f9e565b508091505092915050565b60006101008201905061105d600083018b610f42565b818103602083015261106f818a610eba565b905061107e6040830189610f42565b61108b6060830188610f42565b6110986080830187610f42565b6110a560a0830186610f8f565b81810360c08301526110b78185610ff7565b905081810360e08301526110cb8184610ff7565b90509998505050505050505050565b600080604083850312156110f1576110f0610d76565b5b60006110ff85828601610da7565b925050602061111085828601610da7565b9150509250929050565b600080fd5b600080fd5b7f4e487b7100000000000000000000000000000000000000000000000000000000600052604160045260246000fd5b61115c82610ea9565b810181811067ffffffffffffffff8211171561117b5761117a611124565b5b80604052505050565b600061118e610d6c565b905061119a8282611153565b919050565b600067ffffffffffffffff8211156111ba576111b9611124565b5b6111c382610ea9565b9050602081019050919050565b82818337600083830152505050565b60006111f26111ed8461119f565b611184565b90508281526020810184848401111561120e5761120d61111f565b5b6112198482856111d0565b509392505050565b600082601f8301126112365761123561111a565b5b81356112468482602086016111df565b91505092915050565b6000806000806080858703121561126957611268610d76565b5b600085013567ffffffffffffffff81111561128757611286610d7b565b5b61129387828801611221565b94505060206112a487828801610da7565b93505060406112b587828801610da7565b92505060606112c687828801610da7565b91505092959194509250565b600080604083850312156112e9576112e8610d76565b5b600083013567ffffffffffffffff81111561130757611306610d7b565b5b61131385828601611221565b925050602061132485828601610da7565b9150509250929050565b7f4e487b7100000000000000000000000000000000000000000000000000000000600052602260045260246000fd5b6000600282049050600182168061137557607f821691505b602082108114156113895761138861132e565b5b50919050565b600081905092915050565b60008190508160005260206000209050919050565b600081546113bc8161135d565b6113c6818661138f565b945060018216600081146113e157600181146113f257611425565b60ff19831686528186019350611425565b6113fb8561139a565b60005b8381101561141d578154818901526001820191506020810190506113fe565b838801955050505b50505092915050565b7f206f776e65722075706461746564207375636365737366756c6c792100000000600082015250565b6000611464601c8361138f565b915061146f8261142e565b601c82019050919050565b600061148682846113af565b915061149182611457565b915081905092915050565b7f20616464656420746f2000000000000000000000000000000000000000000000600082015250565b60006114d2600a8361138f565b91506114dd8261149c565b600a82019050919050565b7f207375636365737366756c6c7921000000000000000000000000000000000000600082015250565b600061151e600e8361138f565b9150611529826114e8565b600e82019050919050565b600061154082856113af565b915061154b826114c5565b915061155782846113af565b915061156282611511565b91508190509392505050565b7f4e487b7100000000000000000000000000000000000000000000000000000000600052601160045260246000fd5b60006115a882610d80565b915063ffffffff8214156115bf576115be61156e565b5b600182019050919050565b7f2063726561746564207375636365737366756c6c792100000000000000000000600082015250565b600061160060168361138f565b915061160b826115ca565b601682019050919050565b600061162282846113af565b915061162d826115f3565b91508190509291505056fea2646970667358221220bb515feb334ad5b47c01c399b3bea8c79cbc9edf7d487d03aeeb597a1e8021c264736f6c634300080b0033",
  "immutableReferences": {},
  "source": "// SPDX-License-Identifier: Logan Hoots and Collin Stratton Project\npragma solidity >=0.4.22 <0.9.0;\n\n// create contract that creates cryptomons and moves\ncontract creator {\n    uint32 move_id;\n    struct move {\n        uint32 id;\n        string name;\n        uint32 damage;\n    } mapping(uint32 => move) public movesList;\n\n    uint32 cryptomon_id;\n    struct cryptomon {\n        uint32 id;\n        string name;\n        uint32 attack;\n        uint32 defense;\n        uint32 hp;\n        address owner;\n        move move1;\n        move move2;\n    } mapping(uint32 => cryptomon) public cryptomonList;\n\n    function createCryptomon(string memory n, uint32 a, uint32 d, uint32 h) public returns (string memory) {\n        uint32 ID = cryptomon_id++;\n        cryptomonList[ID].id = ID;\n        cryptomonList[ID].name = n;\n        cryptomonList[ID].attack = a;\n        cryptomonList[ID].defense = d;\n        cryptomonList[ID].hp = h;\n        cryptomonList[ID].owner = msg.sender;\n        return string(abi.encodePacked(cryptomonList[ID].name, \" created successfully!\"));\n    }\n\n    function createMove(string memory n, uint32 d) public returns (string memory) {\n        uint32 ID = move_id++;\n        movesList[ID].id = ID;\n        movesList[ID].name = n;\n        movesList[ID].damage = d;\n        return string(abi.encodePacked(movesList[ID].name, \" created successfully!\"));\n    }\n\n    function addMove(uint32 cID_, uint32 mID_) public returns (string memory) {\n        move memory m = move(movesList[mID_].id, movesList[mID_].name, movesList[mID_].damage);\n        if (bytes(cryptomonList[cID_].move1.name).length == 0) cryptomonList[cID_].move1 = m;\n        else if (bytes(cryptomonList[cID_].move2.name).length == 0) cryptomonList[cID_].move2 = m;\n        return string(abi.encodePacked(movesList[mID_].name, \" added to \", cryptomonList[cID_].name, \" successfully!\"));\n    }\n\n    // function to update the owner of the cryptomon\n    function updateOwner(uint32 cID_, address newOwner_) public returns (string memory) {\n        cryptomonList[cID_].owner = newOwner_;\n        return string(abi.encodePacked(cryptomonList[cID_].name, \" owner updated successfully!\"));\n    }\n}",
  "sourcePath": "/Users/collinstratton/Google Drive/School/GCU/Fall 2021 - Spring 2022/CST-461/CST-461/Cryptomon/contracts/creator.sol",
  "compiler": {
    "name": "solc",
    "version": "0.8.11+commit.d7f03943.Emscripten.clang"
  },
  "schemaVersion": "3.4.4",
  "updatedAt": "2022-04-15T23:28:29.104Z",
  "devdoc": {
    "kind": "dev",
    "methods": {},
    "version": 1
  },
  "userdoc": {
    "kind": "user",
    "methods": {},
    "version": 1
  }
}