{
  "contractName": "move",
  "abi": [
    {
      "inputs": [
        {
          "internalType": "uint32",
          "name": "damage_",
          "type": "uint32"
        },
        {
          "internalType": "string",
          "name": "name_",
          "type": "string"
        }
      ],
      "stateMutability": "nonpayable",
      "type": "constructor"
    },
    {
      "inputs": [
        {
          "internalType": "contract move",
          "name": "m_",
          "type": "address"
        }
      ],
      "name": "createMove",
      "outputs": [
        {
          "internalType": "contract move",
          "name": "m",
          "type": "address"
        }
      ],
      "stateMutability": "pure",
      "type": "function"
    }
  ],
  "bytecode": "0x608060405234801561001057600080fd5b50604051610555380380610555833981810160405281019061003291906102cd565b816000806101000a81548163ffffffff021916908363ffffffff1602179055508060019080519060200190610068929190610070565b50505061038a565b82805461007c90610358565b90600052602060002090601f01602090048101928261009e57600085556100e5565b82601f106100b757805160ff19168380011785556100e5565b828001600101855582156100e5579182015b828111156100e45782518255916020019190600101906100c9565b5b5090506100f291906100f6565b5090565b5b8082111561010f5760008160009055506001016100f7565b5090565b6000604051905090565b600080fd5b600080fd5b600063ffffffff82169050919050565b61014081610127565b811461014b57600080fd5b50565b60008151905061015d81610137565b92915050565b600080fd5b600080fd5b6000601f19601f8301169050919050565b7f4e487b7100000000000000000000000000000000000000000000000000000000600052604160045260246000fd5b6101b68261016d565b810181811067ffffffffffffffff821117156101d5576101d461017e565b5b80604052505050565b60006101e8610113565b90506101f482826101ad565b919050565b600067ffffffffffffffff8211156102145761021361017e565b5b61021d8261016d565b9050602081019050919050565b60005b8381101561024857808201518184015260208101905061022d565b83811115610257576000848401525b50505050565b600061027061026b846101f9565b6101de565b90508281526020810184848401111561028c5761028b610168565b5b61029784828561022a565b509392505050565b600082601f8301126102b4576102b3610163565b5b81516102c484826020860161025d565b91505092915050565b600080604083850312156102e4576102e361011d565b5b60006102f28582860161014e565b925050602083015167ffffffffffffffff81111561031357610312610122565b5b61031f8582860161029f565b9150509250929050565b7f4e487b7100000000000000000000000000000000000000000000000000000000600052602260045260246000fd5b6000600282049050600182168061037057607f821691505b6020821081141561038457610383610329565b5b50919050565b6101bc806103996000396000f3fe608060405234801561001057600080fd5b506004361061002b5760003560e01c8063201114bc14610030575b600080fd5b61004a600480360381019061004591906100df565b610060565b604051610057919061016b565b60405180910390f35b6000819050919050565b600080fd5b600073ffffffffffffffffffffffffffffffffffffffff82169050919050565b600061009a8261006f565b9050919050565b60006100ac8261008f565b9050919050565b6100bc816100a1565b81146100c757600080fd5b50565b6000813590506100d9816100b3565b92915050565b6000602082840312156100f5576100f461006a565b5b6000610103848285016100ca565b91505092915050565b6000819050919050565b600061013161012c6101278461006f565b61010c565b61006f565b9050919050565b600061014382610116565b9050919050565b600061015582610138565b9050919050565b6101658161014a565b82525050565b6000602082019050610180600083018461015c565b9291505056fea2646970667358221220fa4ca7bc42f9ec25b9312fb3ae0e504d05f690fcbf30faeabbdbeac836688e6964736f6c634300080b0033",
  "immutableReferences": {},
  "source": "// SPDX-License-Identifier: Logan Hoots and Collin Stratton Project\r\npragma solidity >=0.4.22 <0.9.0;\r\n\r\ncontract move {\r\n    uint32 damage;\r\n    string name;\r\n\r\n    constructor(uint32 damage_, string memory name_) {\r\n        damage = damage_;\r\n        name = name_;\r\n    }\r\n\r\n    function createMove(move m_) public pure returns (move m) { m = m_; }\r\n}",
  "sourcePath": "D:\\Collins_CST-461\\Cryptomon\\contracts\\move.sol",
  "compiler": {
    "name": "solc",
    "version": "0.8.11+commit.d7f03943.Emscripten.clang"
  },
  "schemaVersion": "3.4.4",
  "updatedAt": "2022-03-25T18:51:16.348Z",
  "networkType": "ethereum",
  "devdoc": {
    "kind": "dev",
    "methods": {},
    "version": 1
  },
  "userdoc": {
    "kind": "user",
    "methods": {},
    "version": 1
  }
}