{
  "contractName": "moves",
  "abi": [
    {
      "inputs": [
        {
          "internalType": "contract move",
          "name": "move1",
          "type": "address"
        },
        {
          "internalType": "contract move",
          "name": "move2",
          "type": "address"
        }
      ],
      "name": "createMoveList",
      "outputs": [
        {
          "internalType": "contract move[]",
          "name": "m",
          "type": "address[]"
        }
      ],
      "stateMutability": "pure",
      "type": "function"
    }
  ],
  "bytecode": "0x608060405234801561001057600080fd5b50610350806100206000396000f3fe608060405234801561001057600080fd5b506004361061002b5760003560e01c80635cc539bb14610030575b600080fd5b61004a6004803603810190610045919061017b565b610060565b60405161005791906102c9565b60405180910390f35b60608281600081518110610077576100766102eb565b5b602002602001019073ffffffffffffffffffffffffffffffffffffffff16908173ffffffffffffffffffffffffffffffffffffffff168152505081816001815181106100c6576100c56102eb565b5b602002602001019073ffffffffffffffffffffffffffffffffffffffff16908173ffffffffffffffffffffffffffffffffffffffff168152505092915050565b600080fd5b600073ffffffffffffffffffffffffffffffffffffffff82169050919050565b60006101368261010b565b9050919050565b60006101488261012b565b9050919050565b6101588161013d565b811461016357600080fd5b50565b6000813590506101758161014f565b92915050565b6000806040838503121561019257610191610106565b5b60006101a085828601610166565b92505060206101b185828601610166565b9150509250929050565b600081519050919050565b600082825260208201905092915050565b6000819050602082019050919050565b6000819050919050565b600061020c6102076102028461010b565b6101e7565b61010b565b9050919050565b600061021e826101f1565b9050919050565b600061023082610213565b9050919050565b61024081610225565b82525050565b60006102528383610237565b60208301905092915050565b6000602082019050919050565b6000610276826101bb565b61028081856101c6565b935061028b836101d7565b8060005b838110156102bc5781516102a38882610246565b97506102ae8361025e565b92505060018101905061028f565b5085935050505092915050565b600060208201905081810360008301526102e3818461026b565b905092915050565b7f4e487b7100000000000000000000000000000000000000000000000000000000600052603260045260246000fdfea26469706673582212207275b7ff28bda34c21dcb23d7e3480843a4b86a6c8caa096d05b4a36fc1139ca64736f6c634300080b0033",
  "immutableReferences": {},
  "source": "// SPDX-License-Identifier: Logan Hoots and Collin Stratton Project\r\npragma solidity >=0.4.22 <0.9.0;\r\nimport \"./move.sol\";\r\n\r\ncontract moves {\r\n    function createMoveList(move move1, move move2) public pure returns (move[] memory m) {\r\n        m[0] = move1;\r\n        m[1] = move2;\r\n    }\r\n}",
  "sourcePath": "D:\\Collins_CST-461\\Cryptomon\\contracts\\moves.sol",
  "compiler": {
    "name": "solc",
    "version": "0.8.11+commit.d7f03943.Emscripten.clang"
  },
  "schemaVersion": "3.4.4",
  "updatedAt": "2022-03-25T18:51:16.341Z",
  "networkType": "ethereum",
  "devdoc": {
    "kind": "dev",
    "methods": {},
    "version": 1
  },
  "userdoc": {
    "kind": "user",
    "methods": {},
    "version": 1
  }
}