{
  "contractName": "AutonomousTaxiVehicles",
  "abi": [
    {
      "inputs": [
        {
          "internalType": "uint256",
          "name": "",
          "type": "uint256"
        }
      ],
      "name": "inventory",
      "outputs": [
        {
          "internalType": "uint256",
          "name": "id",
          "type": "uint256"
        },
        {
          "internalType": "uint256",
          "name": "miles_driven",
          "type": "uint256"
        },
        {
          "internalType": "uint256",
          "name": "curr_loc",
          "type": "uint256"
        },
        {
          "internalType": "uint256",
          "name": "gas_level",
          "type": "uint256"
        },
        {
          "internalType": "uint256",
          "name": "time_driven",
          "type": "uint256"
        },
        {
          "internalType": "uint256",
          "name": "curr_route_time",
          "type": "uint256"
        },
        {
          "internalType": "bool",
          "name": "status",
          "type": "bool"
        },
        {
          "internalType": "uint256",
          "name": "miles_to_service",
          "type": "uint256"
        },
        {
          "internalType": "uint256",
          "name": "revenue",
          "type": "uint256"
        },
        {
          "internalType": "string",
          "name": "report",
          "type": "string"
        }
      ],
      "stateMutability": "view",
      "type": "function"
    },
    {
      "inputs": [
        {
          "internalType": "uint256",
          "name": "_id",
          "type": "uint256"
        },
        {
          "internalType": "uint256",
          "name": "_miles_driven",
          "type": "uint256"
        },
        {
          "internalType": "uint256",
          "name": "_curr_loc",
          "type": "uint256"
        },
        {
          "internalType": "uint256",
          "name": "_gas_level",
          "type": "uint256"
        },
        {
          "internalType": "uint256",
          "name": "_time_driven",
          "type": "uint256"
        },
        {
          "internalType": "uint256",
          "name": "_curr_route_time",
          "type": "uint256"
        },
        {
          "internalType": "bool",
          "name": "_status",
          "type": "bool"
        },
        {
          "internalType": "uint256",
          "name": "_miles_to_service",
          "type": "uint256"
        },
        {
          "internalType": "uint256",
          "name": "_revenue",
          "type": "uint256"
        },
        {
          "internalType": "string",
          "name": "_report",
          "type": "string"
        }
      ],
      "name": "AddVehicle",
      "outputs": [],
      "stateMutability": "nonpayable",
      "type": "function"
    },
    {
      "inputs": [
        {
          "internalType": "uint256",
          "name": "i",
          "type": "uint256"
        }
      ],
      "name": "DisplayVehicle",
      "outputs": [
        {
          "internalType": "uint256",
          "name": "temp_id",
          "type": "uint256"
        },
        {
          "internalType": "uint256",
          "name": "temp_miles_driven",
          "type": "uint256"
        },
        {
          "internalType": "uint256",
          "name": "temp_curr_loc",
          "type": "uint256"
        },
        {
          "internalType": "uint256",
          "name": "temp_gas_level",
          "type": "uint256"
        },
        {
          "internalType": "uint256",
          "name": "temp_time_driven",
          "type": "uint256"
        },
        {
          "internalType": "uint256",
          "name": "temp_curr_route_time",
          "type": "uint256"
        },
        {
          "internalType": "bool",
          "name": "temp_status",
          "type": "bool"
        },
        {
          "internalType": "uint256",
          "name": "temp_miles_to_service",
          "type": "uint256"
        },
        {
          "internalType": "uint256",
          "name": "temp_revenue",
          "type": "uint256"
        },
        {
          "internalType": "string",
          "name": "temp_report",
          "type": "string"
        }
      ],
      "stateMutability": "view",
      "type": "function"
    },
    {
      "inputs": [
        {
          "internalType": "uint256",
          "name": "vid",
          "type": "uint256"
        },
        {
          "internalType": "bool",
          "name": "_status",
          "type": "bool"
        }
      ],
      "name": "ModifyVehicleStatus",
      "outputs": [],
      "stateMutability": "nonpayable",
      "type": "function"
    },
    {
      "inputs": [
        {
          "internalType": "uint256",
          "name": "vid",
          "type": "uint256"
        },
        {
          "internalType": "uint256",
          "name": "_curr_route_time",
          "type": "uint256"
        }
      ],
      "name": "ModifyVehicleRouteTime",
      "outputs": [],
      "stateMutability": "nonpayable",
      "type": "function"
    },
    {
      "inputs": [
        {
          "internalType": "uint256",
          "name": "vid",
          "type": "uint256"
        }
      ],
      "name": "GetVehicleLocation",
      "outputs": [
        {
          "internalType": "uint256",
          "name": "temp_curr_loc",
          "type": "uint256"
        }
      ],
      "stateMutability": "view",
      "type": "function"
    },
    {
      "inputs": [],
      "name": "DisplayAllVehciles",
      "outputs": [
        {
          "internalType": "uint256[]",
          "name": "",
          "type": "uint256[]"
        }
      ],
      "stateMutability": "nonpayable",
      "type": "function"
    },
    {
      "inputs": [],
      "name": "SearchAvailableCars",
      "outputs": [
        {
          "internalType": "uint256[]",
          "name": "temp_id",
          "type": "uint256[]"
        },
        {
          "internalType": "uint256[]",
          "name": "temp_loc",
          "type": "uint256[]"
        }
      ],
      "stateMutability": "nonpayable",
      "type": "function"
    }
  ],
  "bytecode": "0x608060405234801561001057600080fd5b506112f6806100206000396000f3fe608060405234801561001057600080fd5b50600436106100885760003560e01c80639daf10071161005b5780639daf10071461011f578063b8e8869414610158578063e19892a014610174578063ffce5f811461019057610088565b806325d659ea1461008d5780632bb1a9fb146100ab5780633d450d77146100ca5780634272ee18146100e6575b600080fd5b6100956101c0565b6040516100a29190610c95565b60405180910390f35b6100b3610298565b6040516100c1929190610cb7565b60405180910390f35b6100e460048036038101906100df9190610d66565b610461565b005b61010060048036038101906100fb9190610da6565b6104ed565b6040516101169a99989796959493929190610e8a565b60405180910390f35b61013960048036038101906101349190610da6565b6105e6565b60405161014f9a99989796959493929190610e8a565b60405180910390f35b610172600480360381019061016d9190611062565b610828565b005b61018e6004803603810190610189919061115d565b610986565b005b6101aa60048036038101906101a59190610da6565b6109ff565b6040516101b7919061119d565b60405180910390f35b6060600b60006101d09190610a7c565b60005b600a8054905081101561024157600b600a82815481106101f6576101f56111b8565b5b90600052602060002090600a0201600001549080600181540180825580915050600190039060005260206000200160009091909190915055808061023990611216565b9150506101d3565b50600b80548060200260200160405190810160405280929190818152602001828054801561028e57602002820191906000526020600020905b81548152602001906001019080831161027a575b5050505050905090565b606080600b60006102a99190610a7c565b600c60006102b79190610a7c565b60005b600a805490508110156103b65760011515600a82815481106102df576102de6111b8565b5b90600052602060002090600a020160060160009054906101000a900460ff16151514156103a357600b600a828154811061031c5761031b6111b8565b5b90600052602060002090600a0201600001549080600181540180825580915050600190039060005260206000200160009091909190915055600c600a828154811061036a576103696111b8565b5b90600052602060002090600a02016002015490806001815401808255809150506001900390600052602060002001600090919091909150555b80806103ae90611216565b9150506102ba565b50600b80548060200260200160405190810160405280929190818152602001828054801561040357602002820191906000526020600020905b8154815260200190600101908083116103ef575b50505050509150600c80548060200260200160405190810160405280929190818152602001828054801561045657602002820191906000526020600020905b815481526020019060010190808311610442575b505050505090509091565b60005b600b805490508110156104e85782600b8281548110610486576104856111b8565b5b906000526020600020015414156104d55781600a82815481106104ac576104ab6111b8565b5b90600052602060002090600a020160060160006101000a81548160ff0219169083151502179055505b80806104e090611216565b915050610464565b505050565b600a81815481106104fd57600080fd5b90600052602060002090600a02016000915090508060000154908060010154908060020154908060030154908060040154908060050154908060060160009054906101000a900460ff16908060070154908060080154908060090180546105639061128e565b80601f016020809104026020016040519081016040528092919081815260200182805461058f9061128e565b80156105dc5780601f106105b1576101008083540402835291602001916105dc565b820191906000526020600020905b8154815290600101906020018083116105bf57829003601f168201915b505050505090508a565b60008060008060008060008060006060600a8b8154811061060a576106096111b8565b5b90600052602060002090600a0201600001549950600a8b81548110610632576106316111b8565b5b90600052602060002090600a0201600101549850600a8b8154811061065a576106596111b8565b5b90600052602060002090600a0201600201549750600a8b81548110610682576106816111b8565b5b90600052602060002090600a0201600301549650600a8b815481106106aa576106a96111b8565b5b90600052602060002090600a0201600401549550600a8b815481106106d2576106d16111b8565b5b90600052602060002090600a0201600501549450600a8b815481106106fa576106f96111b8565b5b90600052602060002090600a020160060160009054906101000a900460ff169350600a8b8154811061072f5761072e6111b8565b5b90600052602060002090600a0201600701549250600a8b81548110610757576107566111b8565b5b90600052602060002090600a0201600801549150600a8b8154811061077f5761077e6111b8565b5b90600052602060002090600a0201600901805461079b9061128e565b80601f01602080910402602001604051908101604052809291908181526020018280546107c79061128e565b80156108145780601f106107e957610100808354040283529160200191610814565b820191906000526020600020905b8154815290600101906020018083116107f757829003601f168201915b505050505090509193959799509193959799565b896000800181905550886000600101819055508760006002018190555086600060030181905550856000600401819055508460006005018190555083600060060160006101000a81548160ff021916908315150217905550826000600701819055508160006008018190555080600060090190805190602001906108ad929190610a9d565b50600a600090806001815401808255809150506001900390600052602060002090600a02016000909190919091506000820154816000015560018201548160010155600282015481600201556003820154816003015560048201548160040155600582015481600501556006820160009054906101000a900460ff168160060160006101000a81548160ff0219169083151502179055506007820154816007015560088201548160080155600982018160090190805461096c9061128e565b610977929190610b23565b50505050505050505050505050565b60005b600b805490508110156109fa5782600b82815481106109ab576109aa6111b8565b5b906000526020600020015414156109e75781600a82815481106109d1576109d06111b8565b5b90600052602060002090600a0201600501819055505b80806109f290611216565b915050610989565b505050565b600080600090505b600b80549050811015610a765782600b8281548110610a2957610a286111b8565b5b90600052602060002001541415610a6357600a8181548110610a4e57610a4d6111b8565b5b90600052602060002090600a02016002015491505b8080610a6e90611216565b915050610a07565b50919050565b5080546000825590600052602060002090810190610a9a9190610bb0565b50565b828054610aa99061128e565b90600052602060002090601f016020900481019282610acb5760008555610b12565b82601f10610ae457805160ff1916838001178555610b12565b82800160010185558215610b12579182015b82811115610b11578251825591602001919060010190610af6565b5b509050610b1f9190610bb0565b5090565b828054610b2f9061128e565b90600052602060002090601f016020900481019282610b515760008555610b9f565b82601f10610b625780548555610b9f565b82800160010185558215610b9f57600052602060002091601f016020900482015b82811115610b9e578254825591600101919060010190610b83565b5b509050610bac9190610bb0565b5090565b5b80821115610bc9576000816000905550600101610bb1565b5090565b600081519050919050565b600082825260208201905092915050565b6000819050602082019050919050565b6000819050919050565b610c0c81610bf9565b82525050565b6000610c1e8383610c03565b60208301905092915050565b6000602082019050919050565b6000610c4282610bcd565b610c4c8185610bd8565b9350610c5783610be9565b8060005b83811015610c88578151610c6f8882610c12565b9750610c7a83610c2a565b925050600181019050610c5b565b5085935050505092915050565b60006020820190508181036000830152610caf8184610c37565b905092915050565b60006040820190508181036000830152610cd18185610c37565b90508181036020830152610ce58184610c37565b90509392505050565b6000604051905090565b600080fd5b600080fd5b610d0b81610bf9565b8114610d1657600080fd5b50565b600081359050610d2881610d02565b92915050565b60008115159050919050565b610d4381610d2e565b8114610d4e57600080fd5b50565b600081359050610d6081610d3a565b92915050565b60008060408385031215610d7d57610d7c610cf8565b5b6000610d8b85828601610d19565b9250506020610d9c85828601610d51565b9150509250929050565b600060208284031215610dbc57610dbb610cf8565b5b6000610dca84828501610d19565b91505092915050565b610ddc81610bf9565b82525050565b610deb81610d2e565b82525050565b600081519050919050565b600082825260208201905092915050565b60005b83811015610e2b578082015181840152602081019050610e10565b83811115610e3a576000848401525b50505050565b6000601f19601f8301169050919050565b6000610e5c82610df1565b610e668185610dfc565b9350610e76818560208601610e0d565b610e7f81610e40565b840191505092915050565b600061014082019050610ea0600083018d610dd3565b610ead602083018c610dd3565b610eba604083018b610dd3565b610ec7606083018a610dd3565b610ed46080830189610dd3565b610ee160a0830188610dd3565b610eee60c0830187610de2565b610efb60e0830186610dd3565b610f09610100830185610dd3565b818103610120830152610f1c8184610e51565b90509b9a5050505050505050505050565b600080fd5b600080fd5b7f4e487b7100000000000000000000000000000000000000000000000000000000600052604160045260246000fd5b610f6f82610e40565b810181811067ffffffffffffffff82111715610f8e57610f8d610f37565b5b80604052505050565b6000610fa1610cee565b9050610fad8282610f66565b919050565b600067ffffffffffffffff821115610fcd57610fcc610f37565b5b610fd682610e40565b9050602081019050919050565b82818337600083830152505050565b600061100561100084610fb2565b610f97565b90508281526020810184848401111561102157611020610f32565b5b61102c848285610fe3565b509392505050565b600082601f83011261104957611048610f2d565b5b8135611059848260208601610ff2565b91505092915050565b6000806000806000806000806000806101408b8d03121561108657611085610cf8565b5b60006110948d828e01610d19565b9a505060206110a58d828e01610d19565b99505060406110b68d828e01610d19565b98505060606110c78d828e01610d19565b97505060806110d88d828e01610d19565b96505060a06110e98d828e01610d19565b95505060c06110fa8d828e01610d51565b94505060e061110b8d828e01610d19565b93505061010061111d8d828e01610d19565b9250506101208b013567ffffffffffffffff81111561113f5761113e610cfd565b5b61114b8d828e01611034565b9150509295989b9194979a5092959850565b6000806040838503121561117457611173610cf8565b5b600061118285828601610d19565b925050602061119385828601610d19565b9150509250929050565b60006020820190506111b26000830184610dd3565b92915050565b7f4e487b7100000000000000000000000000000000000000000000000000000000600052603260045260246000fd5b7f4e487b7100000000000000000000000000000000000000000000000000000000600052601160045260246000fd5b600061122182610bf9565b91507fffffffffffffffffffffffffffffffffffffffffffffffffffffffffffffffff821415611254576112536111e7565b5b600182019050919050565b7f4e487b7100000000000000000000000000000000000000000000000000000000600052602260045260246000fd5b600060028204905060018216806112a657607f821691505b602082108114156112ba576112b961125f565b5b5091905056fea2646970667358221220d1274f4711655556729601820985d1ea9054633a3f8fc63a247893c1e261735264736f6c634300080b0033",
  "immutableReferences": {},
  "source": "// SPDX-License-Identifier: Collin Stratton\npragma solidity >=0.7.0 <0.9.0;\n\ncontract AutonomousTaxiVehicles {\n    struct Vehicle {\n        uint id;\n        uint miles_driven;\n        uint curr_loc;\n        uint gas_level;\n        uint time_driven;\n        uint curr_route_time;\n        bool status;\n        uint miles_to_service;\n        uint revenue;\n        string report;\n    }\n\n    Vehicle temp;\n    Vehicle[] public inventory;\n    uint[] vehicle_ids;\n    uint[] vehicle_loc;\n\n    function AddVehicle(uint _id, uint _miles_driven, uint _curr_loc, uint _gas_level, uint _time_driven, uint _curr_route_time, bool _status, uint _miles_to_service, uint _revenue, string memory _report) public {\n        temp.id = _id;\n        temp.miles_driven = _miles_driven;\n        temp.curr_loc = _curr_loc;\n        temp.gas_level = _gas_level;\n        temp.time_driven = _time_driven;\n        temp.curr_route_time = _curr_route_time;\n        temp.status = _status;\n        temp.miles_to_service = _miles_to_service;\n        temp.revenue = _revenue;\n        temp.report = _report;\n        inventory.push(temp);\n    }\n\n    function DisplayVehicle(uint i) public view returns (uint temp_id, uint temp_miles_driven, uint temp_curr_loc, uint temp_gas_level, uint temp_time_driven, uint temp_curr_route_time, bool temp_status, uint temp_miles_to_service, uint temp_revenue, string memory temp_report) {\n        temp_id = inventory[i].id;\n        temp_miles_driven = inventory[i].miles_driven;\n        temp_curr_loc = inventory[i].curr_loc;\n        temp_gas_level = inventory[i].gas_level;\n        temp_time_driven = inventory[i].time_driven;\n        temp_curr_route_time = inventory[i].curr_route_time;\n        temp_status = inventory[i].status;\n        temp_miles_to_service = inventory[i].miles_to_service;\n        temp_revenue = inventory[i].revenue;\n        temp_report = inventory[i].report;\n\n        return(temp_id, temp_miles_driven, temp_curr_loc, temp_gas_level, temp_time_driven, temp_curr_route_time, temp_status, temp_miles_to_service, temp_revenue, temp_report);\n    }\n\n    function ModifyVehicleStatus(uint vid, bool _status) public {\n        for(uint i = 0; i < vehicle_ids.length; i++) {\n            if(vehicle_ids[i] == vid) {\n                inventory[i].status = _status;\n            }\n        }\n    }\n\n    function ModifyVehicleRouteTime(uint vid, uint _curr_route_time) public {\n        for(uint i = 0; i < vehicle_ids.length; i++) {\n            if(vehicle_ids[i] == vid) {\n                inventory[i].curr_route_time = _curr_route_time;\n            }\n        }\n    }\n\n    function GetVehicleLocation(uint vid) public view returns (uint temp_curr_loc) {\n        for(uint i = 0; i < vehicle_ids.length; i++) {\n            if(vehicle_ids[i] == vid) {\n                temp_curr_loc = inventory[i].curr_loc;\n            }\n        }\n        return(temp_curr_loc);\n    }\n\n    function DisplayAllVehciles() public returns (uint[] memory) {\n        delete vehicle_ids;\n        for (uint i = 0; i < inventory.length; i++) {\n            vehicle_ids.push(inventory[i].id);\n        }\n        return vehicle_ids;\n    }\n\n    function SearchAvailableCars() public returns (uint[] memory temp_id, uint[] memory temp_loc) {\n        delete vehicle_ids;\n        delete vehicle_loc;\n        for (uint i = 0; i < inventory.length; i++) {\n            if (inventory[i].status == true) {\n                vehicle_ids.push(inventory[i].id);\n                vehicle_loc.push(inventory[i].curr_loc);\n            }\n        }\n        temp_id = vehicle_ids;\n        temp_loc = vehicle_loc;\n\n        return(temp_id, temp_loc);\n    }\n}",
  "sourcePath": "/Users/collinstratton/Google Drive/School/GCU/Fall 2021 - Spring 2022/CST-461/CST-461/EthereumDevelopment/contracts/AutonomousTaxiVehicles.sol",
  "compiler": {
    "name": "solc",
    "version": "0.8.11+commit.d7f03943.Emscripten.clang"
  },
  "schemaVersion": "3.4.4",
  "updatedAt": "2022-01-26T06:24:10.090Z",
  "devdoc": {
    "kind": "dev",
    "methods": {},
    "version": 1
  },
  "userdoc": {
    "kind": "user",
    "methods": {},
    "version": 1
  }
}