{
  "contractName": "TaxiOrder",
  "abi": [
    {
      "inputs": [
        {
          "internalType": "uint256",
          "name": "_id",
          "type": "uint256"
        },
        {
          "internalType": "uint256",
          "name": "_money",
          "type": "uint256"
        },
        {
          "internalType": "uint256",
          "name": "_auth_key",
          "type": "uint256"
        },
        {
          "internalType": "uint256",
          "name": "_location",
          "type": "uint256"
        }
      ],
      "name": "AddCustomer",
      "outputs": [],
      "stateMutability": "nonpayable",
      "type": "function"
    },
    {
      "inputs": [],
      "name": "CreateCustomers",
      "outputs": [],
      "stateMutability": "nonpayable",
      "type": "function"
    },
    {
      "inputs": [],
      "name": "CreateTaxis",
      "outputs": [],
      "stateMutability": "nonpayable",
      "type": "function"
    },
    {
      "inputs": [
        {
          "internalType": "uint256",
          "name": "id",
          "type": "uint256"
        },
        {
          "internalType": "uint256",
          "name": "auth_key",
          "type": "uint256"
        },
        {
          "internalType": "uint256",
          "name": "destination",
          "type": "uint256"
        }
      ],
      "name": "OrderTaxi",
      "outputs": [
        {
          "internalType": "string",
          "name": "",
          "type": "string"
        }
      ],
      "stateMutability": "nonpayable",
      "type": "function"
    },
    {
      "inputs": [
        {
          "internalType": "uint256",
          "name": "id",
          "type": "uint256"
        },
        {
          "internalType": "uint256",
          "name": "auth_key",
          "type": "uint256"
        }
      ],
      "name": "CustomerAuthentication",
      "outputs": [
        {
          "internalType": "bool",
          "name": "",
          "type": "bool"
        }
      ],
      "stateMutability": "view",
      "type": "function"
    },
    {
      "inputs": [
        {
          "internalType": "uint256[]",
          "name": "taxi_ids",
          "type": "uint256[]"
        },
        {
          "internalType": "uint256[]",
          "name": "taxi_loc",
          "type": "uint256[]"
        },
        {
          "internalType": "uint256",
          "name": "location",
          "type": "uint256"
        }
      ],
      "name": "GetClosestVehicle",
      "outputs": [
        {
          "internalType": "uint256",
          "name": "",
          "type": "uint256"
        }
      ],
      "stateMutability": "pure",
      "type": "function"
    },
    {
      "inputs": [
        {
          "internalType": "uint256",
          "name": "uloc",
          "type": "uint256"
        },
        {
          "internalType": "uint256",
          "name": "vid",
          "type": "uint256"
        }
      ],
      "name": "InitialFeeCalculation",
      "outputs": [
        {
          "internalType": "uint256",
          "name": "",
          "type": "uint256"
        }
      ],
      "stateMutability": "view",
      "type": "function"
    },
    {
      "inputs": [
        {
          "internalType": "uint256",
          "name": "uloc",
          "type": "uint256"
        },
        {
          "internalType": "uint256",
          "name": "destination",
          "type": "uint256"
        }
      ],
      "name": "TravelFeeCalculation",
      "outputs": [
        {
          "internalType": "uint256",
          "name": "",
          "type": "uint256"
        }
      ],
      "stateMutability": "pure",
      "type": "function"
    }
  ],
  "bytecode": "0x608060405234801561001057600080fd5b50611adf806100206000396000f3fe608060405234801561001057600080fd5b50600436106100885760003560e01c80637ee755151161005b5780637ee7551514610113578063b2f563b814610143578063ccbcfe7514610173578063fce64527146101a357610088565b806333c5342a1461008d5780633d805796146100a95780636c9dca97146100b3578063723e1129146100e3575b600080fd5b6100a760048036038101906100a29190610c1e565b6101ad565b005b6100b1610231565b005b6100cd60048036038101906100c89190610c85565b6104d0565b6040516100da9190610cd4565b60405180910390f35b6100fd60048036038101906100f89190610e48565b6104fd565b60405161010a9190610cd4565b60405180910390f35b61012d60048036038101906101289190610c85565b6105a6565b60405161013a9190610eee565b60405180910390f35b61015d60048036038101906101589190610f09565b610641565b60405161016a9190610fe4565b60405180910390f35b61018d60048036038101906101889190610c85565b610acb565b60405161019a9190610cd4565b60405180910390f35b6101ab610b93565b005b83600080018190555082600060010181905550816000600201819055508060006003018190555060046000908060018154018082558091505060019003906000526020600020906004020160009091909190915060008201548160000155600182015481600101556002820154816002015560038201548160030155505050505050565b600560009054906101000a900473ffffffffffffffffffffffffffffffffffffffff1673ffffffffffffffffffffffffffffffffffffffff1663b8e88694600080600060646000806001620186a060006040518a63ffffffff1660e01b81526004016102a5999897969594939291906110e7565b600060405180830381600087803b1580156102bf57600080fd5b505af11580156102d3573d6000803e3d6000fd5b50505050600560009054906101000a900473ffffffffffffffffffffffffffffffffffffffff1673ffffffffffffffffffffffffffffffffffffffff1663b8e886946001600a6005606360946000806201869660466040518a63ffffffff1660e01b815260040161034c99989796959493929190611325565b600060405180830381600087803b15801561036657600080fd5b505af115801561037a573d6000803e3d6000fd5b50505050600560009054906101000a900473ffffffffffffffffffffffffffffffffffffffff1673ffffffffffffffffffffffffffffffffffffffff1663b8e8869460026103e8600360286151ca60006001620182b86103206040518a63ffffffff1660e01b81526004016103f799989796959493929190611563565b600060405180830381600087803b15801561041157600080fd5b505af1158015610425573d6000803e3d6000fd5b50505050600560009054906101000a900473ffffffffffffffffffffffffffffffffffffffff1673ffffffffffffffffffffffffffffffffffffffff1663b8e8869460036064600260006009600080605060006040518a63ffffffff1660e01b815260040161049c9998979695949392919061167a565b600060405180830381600087803b1580156104b657600080fd5b505af11580156104ca573d6000803e3d6000fd5b50505050565b60008082846104df919061174a565b905060006002826104f0919061177e565b9050809250505092915050565b600080620186a090506000805b8651811015610599578285878381518110610528576105276117d8565b5b602002602001015161053a919061174a565b10156105865784868281518110610554576105536117d8565b5b6020026020010151610566919061174a565b925086818151811061057b5761057a6117d8565b5b602002602001015191505b808061059190611807565b91505061050a565b5080925050509392505050565b600080600090505b6004805490508110156106355783600482815481106105d0576105cf6117d8565b5b906000526020600020906004020160000154148015610613575082600482815481106105ff576105fe6117d8565b5b906000526020600020906004020160020154145b1561062257600191505061063b565b808061062d90611807565b9150506105ae565b50600090505b92915050565b6060600080600061065287876105a6565b156107225760005b60048054905081101561072057876004828154811061067c5761067b6117d8565b5b906000526020600020906004020160000154141561070d57600481815481106106a8576106a76117d8565b5b9060005260206000209060040201600001549350600481815481106106d0576106cf6117d8565b5b9060005260206000209060040201600101549250600481815481106106f8576106f76117d8565b5b90600052602060002090600402016003015491505b808061071890611807565b91505061065a565b505b606080600560009054906101000a900473ffffffffffffffffffffffffffffffffffffffff1673ffffffffffffffffffffffffffffffffffffffff16632bb1a9fb6040518163ffffffff1660e01b81526004016000604051808303816000875af1158015610794573d6000803e3d6000fd5b505050506040513d6000823e3d601f19601f820116820180604052508101906107bd91906118fc565b809250819350505060006107d28383866104fd565b905060006107e08583610acb565b905060006107ee868b6104d0565b9050600081836107fe9190611974565b88610809919061174a565b1115610a8357600560009054906101000a900473ffffffffffffffffffffffffffffffffffffffff1673ffffffffffffffffffffffffffffffffffffffff16633d450d778460006040518363ffffffff1660e01b815260040161086d9291906119ca565b600060405180830381600087803b15801561088757600080fd5b505af115801561089b573d6000803e3d6000fd5b50505050600560009054906101000a900473ffffffffffffffffffffffffffffffffffffffff1673ffffffffffffffffffffffffffffffffffffffff1663e19892a08460238d8a6108ec919061174a565b6108f69190611a22565b60238a600560009054906101000a900473ffffffffffffffffffffffffffffffffffffffff1673ffffffffffffffffffffffffffffffffffffffff1663ffce5f818a6040518263ffffffff1660e01b81526004016109549190610cd4565b602060405180830381865afa158015610971573d6000803e3d6000fd5b505050506040513d601f19601f820116820180604052508101906109959190611a53565b61099f919061174a565b6109a99190611a22565b6109b39190611974565b6040518363ffffffff1660e01b81526004016109d0929190611a80565b600060405180830381600087803b1580156109ea57600080fd5b505af11580156109fe573d6000803e3d6000fd5b505050508160048981548110610a1757610a166117d8565b5b90600052602060002090600402016001016000828254610a37919061174a565b925050819055506040518060400160405280601081526020017f4f72646572205375636365737366756c0000000000000000000000000000000081525098505050505050505050610ac4565b6040518060400160405280601281526020017f496e73756666696369656e742046756e64730000000000000000000000000000815250985050505050505050505b9392505050565b60008083600560009054906101000a900473ffffffffffffffffffffffffffffffffffffffff1673ffffffffffffffffffffffffffffffffffffffff1663ffce5f81856040518263ffffffff1660e01b8152600401610b2a9190610cd4565b602060405180830381865afa158015610b47573d6000803e3d6000fd5b505050506040513d601f19601f82011682018060405250810190610b6b9190611a53565b610b75919061174a565b90506000600382610b86919061177e565b9050809250505092915050565b610ba16000806000806101ad565b610bb160016094600560036101ad565b610bc260026151ca600360016101ad565b610bd260036009600260046101ad565b565b6000604051905090565b600080fd5b600080fd5b6000819050919050565b610bfb81610be8565b8114610c0657600080fd5b50565b600081359050610c1881610bf2565b92915050565b60008060008060808587031215610c3857610c37610bde565b5b6000610c4687828801610c09565b9450506020610c5787828801610c09565b9350506040610c6887828801610c09565b9250506060610c7987828801610c09565b91505092959194509250565b60008060408385031215610c9c57610c9b610bde565b5b6000610caa85828601610c09565b9250506020610cbb85828601610c09565b9150509250929050565b610cce81610be8565b82525050565b6000602082019050610ce96000830184610cc5565b92915050565b600080fd5b6000601f19601f8301169050919050565b7f4e487b7100000000000000000000000000000000000000000000000000000000600052604160045260246000fd5b610d3d82610cf4565b810181811067ffffffffffffffff82111715610d5c57610d5b610d05565b5b80604052505050565b6000610d6f610bd4565b9050610d7b8282610d34565b919050565b600067ffffffffffffffff821115610d9b57610d9a610d05565b5b602082029050602081019050919050565b600080fd5b6000610dc4610dbf84610d80565b610d65565b90508083825260208201905060208402830185811115610de757610de6610dac565b5b835b81811015610e105780610dfc8882610c09565b845260208401935050602081019050610de9565b5050509392505050565b600082601f830112610e2f57610e2e610cef565b5b8135610e3f848260208601610db1565b91505092915050565b600080600060608486031215610e6157610e60610bde565b5b600084013567ffffffffffffffff811115610e7f57610e7e610be3565b5b610e8b86828701610e1a565b935050602084013567ffffffffffffffff811115610eac57610eab610be3565b5b610eb886828701610e1a565b9250506040610ec986828701610c09565b9150509250925092565b60008115159050919050565b610ee881610ed3565b82525050565b6000602082019050610f036000830184610edf565b92915050565b600080600060608486031215610f2257610f21610bde565b5b6000610f3086828701610c09565b9350506020610f4186828701610c09565b9250506040610f5286828701610c09565b9150509250925092565b600081519050919050565b600082825260208201905092915050565b60005b83811015610f96578082015181840152602081019050610f7b565b83811115610fa5576000848401525b50505050565b6000610fb682610f5c565b610fc08185610f67565b9350610fd0818560208601610f78565b610fd981610cf4565b840191505092915050565b60006020820190508181036000830152610ffe8184610fab565b905092915050565b6000819050919050565b6000819050919050565b600061103561103061102b84611006565b611010565b610be8565b9050919050565b6110458161101a565b82525050565b6000819050919050565b600061107061106b6110668461104b565b611010565b610be8565b9050919050565b61108081611055565b82525050565b6000819050919050565b60006110ab6110a66110a184611086565b611010565b610be8565b9050919050565b6110bb81611090565b82525050565b50565b60006110d1600083610f67565b91506110dc826110c1565b600082019050919050565b6000610140820190506110fd600083018c61103c565b61110a602083018b61103c565b611117604083018a61103c565b6111246060830189611077565b611131608083018861103c565b61113e60a083018761103c565b61114b60c0830186610edf565b61115860e08301856110b2565b61116661010083018461103c565b818103610120830152611178816110c4565b90509a9950505050505050505050565b6000819050919050565b60006111ad6111a86111a384611188565b611010565b610be8565b9050919050565b6111bd81611192565b82525050565b6000819050919050565b60006111e86111e36111de846111c3565b611010565b610be8565b9050919050565b6111f8816111cd565b82525050565b6000819050919050565b600061122361121e611219846111fe565b611010565b610be8565b9050919050565b61123381611208565b82525050565b6000819050919050565b600061125e61125961125484611239565b611010565b610be8565b9050919050565b61126e81611243565b82525050565b6000819050919050565b600061129961129461128f84611274565b611010565b610be8565b9050919050565b6112a98161127e565b82525050565b6000819050919050565b60006112d46112cf6112ca846112af565b611010565b610be8565b9050919050565b6112e4816112b9565b82525050565b6000819050919050565b600061130f61130a611305846112ea565b611010565b610be8565b9050919050565b61131f816112f4565b82525050565b60006101408201905061133b600083018c6111b4565b611348602083018b6111ef565b611355604083018a61122a565b6113626060830189611265565b61136f60808301886112a0565b61137c60a083018761103c565b61138960c0830186610edf565b61139660e08301856112db565b6113a4610100830184611316565b8181036101208301526113b6816110c4565b90509a9950505050505050505050565b6000819050919050565b60006113eb6113e66113e1846113c6565b611010565b610be8565b9050919050565b6113fb816113d0565b82525050565b6000819050919050565b600061142661142161141c84611401565b611010565b610be8565b9050919050565b6114368161140b565b82525050565b6000819050919050565b600061146161145c6114578461143c565b611010565b610be8565b9050919050565b61147181611446565b82525050565b6000819050919050565b600061149c61149761149284611477565b611010565b610be8565b9050919050565b6114ac81611481565b82525050565b6000819050919050565b60006114d76114d26114cd846114b2565b611010565b610be8565b9050919050565b6114e7816114bc565b82525050565b6000819050919050565b600061151261150d611508846114ed565b611010565b610be8565b9050919050565b611522816114f7565b82525050565b6000819050919050565b600061154d61154861154384611528565b611010565b610be8565b9050919050565b61155d81611532565b82525050565b600061014082019050611579600083018c6113f2565b611586602083018b61142d565b611593604083018a611468565b6115a060608301896114a3565b6115ad60808301886114de565b6115ba60a083018761103c565b6115c760c0830186610edf565b6115d460e0830185611519565b6115e2610100830184611554565b8181036101208301526115f4816110c4565b90509a9950505050505050505050565b6000819050919050565b600061162961162461161f84611604565b611010565b610be8565b9050919050565b6116398161160e565b82525050565b6000819050919050565b600061166461165f61165a8461163f565b611010565b610be8565b9050919050565b61167481611649565b82525050565b600061014082019050611690600083018c611468565b61169d602083018b611077565b6116aa604083018a6113f2565b6116b7606083018961103c565b6116c46080830188611630565b6116d160a083018761103c565b6116de60c0830186610edf565b6116eb60e083018561166b565b6116f961010083018461103c565b81810361012083015261170b816110c4565b90509a9950505050505050505050565b7f4e487b7100000000000000000000000000000000000000000000000000000000600052601160045260246000fd5b600061175582610be8565b915061176083610be8565b9250828210156117735761177261171b565b5b828203905092915050565b600061178982610be8565b915061179483610be8565b9250817fffffffffffffffffffffffffffffffffffffffffffffffffffffffffffffffff04831182151516156117cd576117cc61171b565b5b828202905092915050565b7f4e487b7100000000000000000000000000000000000000000000000000000000600052603260045260246000fd5b600061181282610be8565b91507fffffffffffffffffffffffffffffffffffffffffffffffffffffffffffffffff8214156118455761184461171b565b5b600182019050919050565b60008151905061185f81610bf2565b92915050565b600061187861187384610d80565b610d65565b9050808382526020820190506020840283018581111561189b5761189a610dac565b5b835b818110156118c457806118b08882611850565b84526020840193505060208101905061189d565b5050509392505050565b600082601f8301126118e3576118e2610cef565b5b81516118f3848260208601611865565b91505092915050565b6000806040838503121561191357611912610bde565b5b600083015167ffffffffffffffff81111561193157611930610be3565b5b61193d858286016118ce565b925050602083015167ffffffffffffffff81111561195e5761195d610be3565b5b61196a858286016118ce565b9150509250929050565b600061197f82610be8565b915061198a83610be8565b9250827fffffffffffffffffffffffffffffffffffffffffffffffffffffffffffffffff038211156119bf576119be61171b565b5b828201905092915050565b60006040820190506119df6000830185610cc5565b6119ec6020830184610edf565b9392505050565b7f4e487b7100000000000000000000000000000000000000000000000000000000600052601260045260246000fd5b6000611a2d82610be8565b9150611a3883610be8565b925082611a4857611a476119f3565b5b828204905092915050565b600060208284031215611a6957611a68610bde565b5b6000611a7784828501611850565b91505092915050565b6000604082019050611a956000830185610cc5565b611aa26020830184610cc5565b939250505056fea2646970667358221220fc84cf839dff72deb5996aba62ae302cb963e5204906f3acdc1a3f72d31eb98a64736f6c634300080b0033",
  "immutableReferences": {},
  "source": "// SPDX-License-Identifier: Collin Stratton\npragma solidity >=0.7.0 <0.9.0;\nimport \"./AutonomousTaxiVehicles.sol\";\n\n// contract for customers to order an autonmous taxi\ncontract TaxiOrder {\n    // customer struct containing all information about the customer\n    struct Customers {\n        uint id;\n        uint money;\n        uint auth_key;\n        uint location;\n    }\n\n    // temp customer struct for storing customer information and customer list\n    Customers temp;\n    Customers[] customer_list;\n\n    // contract call to get vehicles\n    AutonomousTaxiVehicles vehicles; \n\n    // function to add customers to the list\n    function AddCustomer(uint _id, uint _money, uint _auth_key, uint _location) public {\n        temp.id = _id;\n        temp.money = _money;\n        temp.auth_key = _auth_key;\n        temp.location = _location;\n        customer_list.push(temp);\n    }\n\n    // function to add multiple customers to the list\n    function CreateCustomers() public {\n        AddCustomer(0, 0, 0, 0);\n        AddCustomer(1, 148, 5, 3);\n        AddCustomer(2, 20938, 3, 1);\n        AddCustomer(3, 9, 2, 4);\n    }\n\n    // function to create taxis\n    function CreateTaxis() public {\n        vehicles.AddVehicle(0, 0, 0, 100, 0, 0, true, 100000, 0, \"\");\n        vehicles.AddVehicle(1, 10, 5, 99, 148, 0, false, 99990, 70, \"\");\n        vehicles.AddVehicle(2, 1000, 3, 40, 20938, 0, true, 99000, 800, \"\");\n        vehicles.AddVehicle(3, 100, 2, 0, 9, 0, false, 80, 0, \"\");\n    }\n\n    // user function to request a vehicle\n    function OrderTaxi(uint id, uint auth_key, uint destination) public returns(string memory){\n        // initialize user variables\n        uint uid;\n        uint money;\n        uint location;\n\n        // if the user is authenticated, record their data\n        if(CustomerAuthentication(id, auth_key)) {\n            for(uint i = 0; i < customer_list.length; i++) {\n                if(customer_list[i].id == id) {\n                    uid = customer_list[i].id;\n                    money = customer_list[i].money;\n                    location = customer_list[i].location;\n                }\n            }\n        }\n\n        // variables to contain available vehicles\n        uint[] memory taxi_ids;\n        uint[] memory taxi_loc;\n\n        // populate the available taxi list\n        (taxi_ids, taxi_loc) = vehicles.SearchAvailableCars();\n\n        // find the closest vehicle and calculate fees\n        uint vid = GetClosestVehicle(taxi_ids, taxi_loc, location);\n        uint init_fee = InitialFeeCalculation(location, vid);\n        uint travel_fee = TravelFeeCalculation(location, destination);\n\n        if(money - (init_fee + travel_fee) > 0) {\n            // reserve vehicle and charge the user\n            vehicles.ModifyVehicleStatus(vid, false);\n            // assume car is traveling 35 miles an hour at all times and the distance between locations is in miles\n            vehicles.ModifyVehicleRouteTime(vid, (vehicles.GetVehicleLocation(vid) - location) / 35 + (location - destination) / 35);\n            // subtract the initial fee from the user's money\n            customer_list[uid].money -= (init_fee);\n\n            // subtract the travel fee from the user's money after the vehicle has reached the destination or stops early\n\n            return \"Order Successful\";\n        } else {\n            return \"Insufficient Funds\";\n        }\n    }\n\n    // check the customers authentication details\n    function CustomerAuthentication(uint id, uint auth_key) public view returns(bool) {\n        // loop through all the customers and check if the id's and auth keys match\n        for(uint i = 0; i < customer_list.length; i++) {\n            if(customer_list[i].id == id && customer_list[i].auth_key == auth_key) {\n                return true;\n            }\n        }\n\n        // return false if none of the identification matches\n        return false; \n    }\n\n    function GetClosestVehicle(uint[] memory taxi_ids, uint[] memory taxi_loc, uint location) public pure returns(uint) {\n        // initialize variables\n        uint min_dist = 100000;\n        uint vid = 0;\n\n        // loop through all the vehicles and find the closest one\n        for(uint i = 0; i < taxi_ids.length; i++) {\n            if(taxi_loc[i] - location < min_dist) {\n                min_dist = taxi_loc[i] - location;\n                vid = taxi_ids[i];\n            }\n        }\n\n        // return the vehicle id\n        return vid;\n    }\n\n    // initial fee for the car to travel to the customer\n    function InitialFeeCalculation(uint uloc, uint vid) public view returns(uint) {\n        uint distance = vehicles.GetVehicleLocation(vid) - uloc;\n        uint initial_fee = distance * 3; // assuming distance is miles and the fee is $3 per mile to request the vehicle\n\n        return initial_fee;\n    }\n\n    // travel fee for the customer\n    function TravelFeeCalculation(uint uloc, uint destination) public pure returns(uint) {\n        uint distance = uloc - destination;\n        uint final_fee = distance * 2; // assuming distance is miles and the fee is $2 per mile to travel to the destination\n\n        return final_fee;\n    }\n}",
  "sourcePath": "/Users/collinstratton/Google Drive/School/GCU/Fall 2021 - Spring 2022/CST-461/CST-461/EthereumDevelopment/contracts/TaxiOrderSC.sol",
  "compiler": {
    "name": "solc",
    "version": "0.8.11+commit.d7f03943.Emscripten.clang"
  },
  "schemaVersion": "3.4.4",
  "updatedAt": "2022-01-26T06:24:10.202Z",
  "devdoc": {
    "kind": "dev",
    "methods": {},
    "version": 1
  },
  "userdoc": {
    "kind": "user",
    "methods": {},
    "version": 1
  }
}