{
	"data": {
		"bytecode": {
			"linkReferences": {},
			"object": "608060405234801561001057600080fd5b50611608806100206000396000f3fe60806040523480156200001157600080fd5b5060043610620000465760003560e01c80630684035f146200004b5780632597521a1462000081578063f728f3e814620000a1575b600080fd5b620000696004803603810190620000639190620003e7565b620000d7565b60405162000078919062000579565b60405180910390f35b6200009f6004803603810190620000999190620003a0565b62000188565b005b620000bf6004803603810190620000b991906200048e565b620001fb565b604051620000ce919062000596565b60405180910390f35b60008585858585604051620000ec90620002aa565b620000fc959493929190620005b3565b604051809103906000f08015801562000119573d6000803e3d6000fd5b5090506000819080600181540180825580915050600190039060005260206000200160009091909190916101000a81548173ffffffffffffffffffffffffffffffffffffffff021916908373ffffffffffffffffffffffffffffffffffffffff16021790555095945050505050565b8173ffffffffffffffffffffffffffffffffffffffff1663846eb6d7826040518263ffffffff1660e01b8152600401620001c3919062000596565b600060405180830381600087803b158015620001de57600080fd5b505af1158015620001f3573d6000803e3d6000fd5b505050505050565b600060018054905083836040516200021390620002b8565b620002219392919062000617565b604051809103906000f0801580156200023e573d6000803e3d6000fd5b5090506001819080600181540180825580915050600190039060005260206000200160009091909190916101000a81548173ffffffffffffffffffffffffffffffffffffffff021916908373ffffffffffffffffffffffffffffffffffffffff16021790555092915050565b6108fd80620008ca83390190565b61040c80620011c783390190565b6000620002dd620002d78462000684565b6200065b565b905082815260208101848484011115620002fc57620002fb62000841565b5b6200030984828562000792565b509392505050565b600081359050620003228162000861565b92915050565b60008135905062000339816200087b565b92915050565b600081359050620003508162000895565b92915050565b600082601f8301126200036e576200036d6200083c565b5b813562000380848260208601620002c6565b91505092915050565b6000813590506200039a81620008af565b92915050565b60008060408385031215620003ba57620003b96200084b565b5b6000620003ca8582860162000328565b9250506020620003dd858286016200033f565b9150509250929050565b600080600080600060a086880312156200040657620004056200084b565b5b600086013567ffffffffffffffff81111562000427576200042662000846565b5b620004358882890162000356565b9550506020620004488882890162000389565b94505060406200045b8882890162000389565b93505060606200046e8882890162000389565b9250506080620004818882890162000311565b9150509295509295909350565b60008060408385031215620004a857620004a76200084b565b5b6000620004b88582860162000389565b925050602083013567ffffffffffffffff811115620004dc57620004db62000846565b5b620004ea8582860162000356565b9150509250929050565b620004ff81620006d6565b82525050565b620005108162000742565b82525050565b620005218162000756565b82525050565b60006200053482620006ba565b620005408185620006c5565b935062000552818560208601620007a1565b6200055d8162000850565b840191505092915050565b620005738162000732565b82525050565b600060208201905062000590600083018462000505565b92915050565b6000602082019050620005ad600083018462000516565b92915050565b600060a0820190508181036000830152620005cf818862000527565b9050620005e0602083018762000568565b620005ef604083018662000568565b620005fe606083018562000568565b6200060d6080830184620004f4565b9695505050505050565b60006060820190506200062e600083018662000568565b6200063d602083018562000568565b818103604083015262000651818462000527565b9050949350505050565b6000620006676200067a565b9050620006758282620007d7565b919050565b6000604051905090565b600067ffffffffffffffff821115620006a257620006a16200080d565b5b620006ad8262000850565b9050602081019050919050565b600081519050919050565b600082825260208201905092915050565b6000620006e38262000712565b9050919050565b6000620006f782620006d6565b9050919050565b60006200070b82620006d6565b9050919050565b600073ffffffffffffffffffffffffffffffffffffffff82169050919050565b600063ffffffff82169050919050565b60006200074f826200076a565b9050919050565b600062000763826200076a565b9050919050565b600062000777826200077e565b9050919050565b60006200078b8262000712565b9050919050565b82818337600083830152505050565b60005b83811015620007c1578082015181840152602081019050620007a4565b83811115620007d1576000848401525b50505050565b620007e28262000850565b810181811067ffffffffffffffff821117156200080457620008036200080d565b5b80604052505050565b7f4e487b7100000000000000000000000000000000000000000000000000000000600052604160045260246000fd5b600080fd5b600080fd5b600080fd5b600080fd5b6000601f19601f8301169050919050565b6200086c81620006d6565b81146200087857600080fd5b50565b6200088681620006ea565b81146200089257600080fd5b50565b620008a081620006fe565b8114620008ac57600080fd5b50565b620008ba8162000732565b8114620008c657600080fd5b5056fe608060405260405180602001604052806000815250600090805190602001906200002b9291906200018d565b506000600160006101000a81548163ffffffff021916908363ffffffff1602179055506000600160046101000a81548163ffffffff021916908363ffffffff1602179055506000600160086101000a81548163ffffffff021916908363ffffffff1602179055503480156200009f57600080fd5b50604051620008fd380380620008fd8339818101604052810190620000c59190620002e9565b8460009080519060200190620000dd9291906200018d565b5083600160006101000a81548163ffffffff021916908363ffffffff16021790555082600160046101000a81548163ffffffff021916908363ffffffff16021790555081600160086101000a81548163ffffffff021916908363ffffffff160217905550806001600c6101000a81548173ffffffffffffffffffffffffffffffffffffffff021916908373ffffffffffffffffffffffffffffffffffffffff16021790555050505050506200058c565b8280546200019b9062000469565b90600052602060002090601f016020900481019282620001bf57600085556200020b565b82601f10620001da57805160ff19168380011785556200020b565b828001600101855582156200020b579182015b828111156200020a578251825591602001919060010190620001ed565b5b5090506200021a91906200021e565b5090565b5b80821115620002395760008160009055506001016200021f565b5090565b6000620002546200024e84620003b9565b62000390565b90508281526020810184848401111562000273576200027262000538565b5b6200028084828562000433565b509392505050565b600081519050620002998162000558565b92915050565b600082601f830112620002b757620002b662000533565b5b8151620002c98482602086016200023d565b91505092915050565b600081519050620002e38162000572565b92915050565b600080600080600060a0868803121562000308576200030762000542565b5b600086015167ffffffffffffffff8111156200032957620003286200053d565b5b62000337888289016200029f565b95505060206200034a88828901620002d2565b94505060406200035d88828901620002d2565b93505060606200037088828901620002d2565b9250506080620003838882890162000288565b9150509295509295909350565b60006200039c620003af565b9050620003aa82826200049f565b919050565b6000604051905090565b600067ffffffffffffffff821115620003d757620003d662000504565b5b620003e28262000547565b9050602081019050919050565b6000620003fc8262000403565b9050919050565b600073ffffffffffffffffffffffffffffffffffffffff82169050919050565b600063ffffffff82169050919050565b60005b838110156200045357808201518184015260208101905062000436565b8381111562000463576000848401525b50505050565b600060028204905060018216806200048257607f821691505b60208210811415620004995762000498620004d5565b5b50919050565b620004aa8262000547565b810181811067ffffffffffffffff82111715620004cc57620004cb62000504565b5b80604052505050565b7f4e487b7100000000000000000000000000000000000000000000000000000000600052602260045260246000fd5b7f4e487b7100000000000000000000000000000000000000000000000000000000600052604160045260246000fd5b600080fd5b600080fd5b600080fd5b600080fd5b6000601f19601f8301169050919050565b6200056381620003ef565b81146200056f57600080fd5b50565b6200057d8162000423565b81146200058957600080fd5b50565b610361806200059c6000396000f3fe608060405234801561001057600080fd5b50600436106100365760003560e01c8063846eb6d71461003b578063bf7297a214610057575b600080fd5b61005560048036038101906100509190610182565b610075565b005b61005f6100db565b60405161006c91906101e8565b60405180910390f35b6002819080600181540180825580915050600190039060005260206000200160009091909190916101000a81548173ffffffffffffffffffffffffffffffffffffffff021916908373ffffffffffffffffffffffffffffffffffffffff16021790555050565b6060600080546100ea9061029d565b80601f01602080910402602001604051908101604052809291908181526020018280546101169061029d565b80156101635780601f1061013857610100808354040283529160200191610163565b820191906000526020600020905b81548152906001019060200180831161014657829003601f168201915b5050505050905090565b60008135905061017c81610314565b92915050565b600060208284031215610198576101976102fe565b5b60006101a68482850161016d565b91505092915050565b60006101ba8261020a565b6101c48185610215565b93506101d481856020860161026a565b6101dd81610303565b840191505092915050565b6000602082019050818103600083015261020281846101af565b905092915050565b600081519050919050565b600082825260208201905092915050565b60006102318261024a565b9050919050565b600061024382610226565b9050919050565b600073ffffffffffffffffffffffffffffffffffffffff82169050919050565b60005b8381101561028857808201518184015260208101905061026d565b83811115610297576000848401525b50505050565b600060028204905060018216806102b557607f821691505b602082108114156102c9576102c86102cf565b5b50919050565b7f4e487b7100000000000000000000000000000000000000000000000000000000600052602260045260246000fd5b600080fd5b6000601f19601f8301169050919050565b61031d81610238565b811461032857600080fd5b5056fea2646970667358221220cf05d70aa111e14bd816b0de4cde931b21f3819d8593da3d65f9a0e17772fdfa64736f6c63430008070033608060405234801561001057600080fd5b5060405161040c38038061040c833981810160405281019061003291906101ba565b826000806101000a81548163ffffffff021916908363ffffffff16021790555081600060046101000a81548163ffffffff021916908363ffffffff1602179055508060019080519060200190610089929190610092565b505050506103bf565b82805461009e906102c2565b90600052602060002090601f0160209004810192826100c05760008555610107565b82601f106100d957805160ff1916838001178555610107565b82800160010185558215610107579182015b828111156101065782518255916020019190600101906100eb565b5b5090506101149190610118565b5090565b5b80821115610131576000816000905550600101610119565b5090565b60006101486101438461024e565b610229565b90508281526020810184848401111561016457610163610388565b5b61016f84828561028f565b509392505050565b600082601f83011261018c5761018b610383565b5b815161019c848260208601610135565b91505092915050565b6000815190506101b4816103a8565b92915050565b6000806000606084860312156101d3576101d2610392565b5b60006101e1868287016101a5565b93505060206101f2868287016101a5565b925050604084015167ffffffffffffffff8111156102135761021261038d565b5b61021f86828701610177565b9150509250925092565b6000610233610244565b905061023f82826102f4565b919050565b6000604051905090565b600067ffffffffffffffff82111561026957610268610354565b5b61027282610397565b9050602081019050919050565b600063ffffffff82169050919050565b60005b838110156102ad578082015181840152602081019050610292565b838111156102bc576000848401525b50505050565b600060028204905060018216806102da57607f821691505b602082108114156102ee576102ed610325565b5b50919050565b6102fd82610397565b810181811067ffffffffffffffff8211171561031c5761031b610354565b5b80604052505050565b7f4e487b7100000000000000000000000000000000000000000000000000000000600052602260045260246000fd5b7f4e487b7100000000000000000000000000000000000000000000000000000000600052604160045260246000fd5b600080fd5b600080fd5b600080fd5b600080fd5b6000601f19601f8301169050919050565b6103b18161027f565b81146103bc57600080fd5b50565b603f806103cd6000396000f3fe6080604052600080fdfea2646970667358221220a455990f4b0fc22be45c23c37e591c69be10e196f61dc627721b729477ea49e864736f6c63430008070033a26469706673582212203367c99a76d92d8f6a331bc00c1319181b0f5cdac876736f1f4bc4f506b5070f64736f6c63430008070033",
			"opcodes": "PUSH1 0x80 PUSH1 0x40 MSTORE CALLVALUE DUP1 ISZERO PUSH2 0x10 JUMPI PUSH1 0x0 DUP1 REVERT JUMPDEST POP PUSH2 0x1608 DUP1 PUSH2 0x20 PUSH1 0x0 CODECOPY PUSH1 0x0 RETURN INVALID PUSH1 0x80 PUSH1 0x40 MSTORE CALLVALUE DUP1 ISZERO PUSH3 0x11 JUMPI PUSH1 0x0 DUP1 REVERT JUMPDEST POP PUSH1 0x4 CALLDATASIZE LT PUSH3 0x46 JUMPI PUSH1 0x0 CALLDATALOAD PUSH1 0xE0 SHR DUP1 PUSH4 0x684035F EQ PUSH3 0x4B JUMPI DUP1 PUSH4 0x2597521A EQ PUSH3 0x81 JUMPI DUP1 PUSH4 0xF728F3E8 EQ PUSH3 0xA1 JUMPI JUMPDEST PUSH1 0x0 DUP1 REVERT JUMPDEST PUSH3 0x69 PUSH1 0x4 DUP1 CALLDATASIZE SUB DUP2 ADD SWAP1 PUSH3 0x63 SWAP2 SWAP1 PUSH3 0x3E7 JUMP JUMPDEST PUSH3 0xD7 JUMP JUMPDEST PUSH1 0x40 MLOAD PUSH3 0x78 SWAP2 SWAP1 PUSH3 0x579 JUMP JUMPDEST PUSH1 0x40 MLOAD DUP1 SWAP2 SUB SWAP1 RETURN JUMPDEST PUSH3 0x9F PUSH1 0x4 DUP1 CALLDATASIZE SUB DUP2 ADD SWAP1 PUSH3 0x99 SWAP2 SWAP1 PUSH3 0x3A0 JUMP JUMPDEST PUSH3 0x188 JUMP JUMPDEST STOP JUMPDEST PUSH3 0xBF PUSH1 0x4 DUP1 CALLDATASIZE SUB DUP2 ADD SWAP1 PUSH3 0xB9 SWAP2 SWAP1 PUSH3 0x48E JUMP JUMPDEST PUSH3 0x1FB JUMP JUMPDEST PUSH1 0x40 MLOAD PUSH3 0xCE SWAP2 SWAP1 PUSH3 0x596 JUMP JUMPDEST PUSH1 0x40 MLOAD DUP1 SWAP2 SUB SWAP1 RETURN JUMPDEST PUSH1 0x0 DUP6 DUP6 DUP6 DUP6 DUP6 PUSH1 0x40 MLOAD PUSH3 0xEC SWAP1 PUSH3 0x2AA JUMP JUMPDEST PUSH3 0xFC SWAP6 SWAP5 SWAP4 SWAP3 SWAP2 SWAP1 PUSH3 0x5B3 JUMP JUMPDEST PUSH1 0x40 MLOAD DUP1 SWAP2 SUB SWAP1 PUSH1 0x0 CREATE DUP1 ISZERO DUP1 ISZERO PUSH3 0x119 JUMPI RETURNDATASIZE PUSH1 0x0 DUP1 RETURNDATACOPY RETURNDATASIZE PUSH1 0x0 REVERT JUMPDEST POP SWAP1 POP PUSH1 0x0 DUP2 SWAP1 DUP1 PUSH1 0x1 DUP2 SLOAD ADD DUP1 DUP3 SSTORE DUP1 SWAP2 POP POP PUSH1 0x1 SWAP1 SUB SWAP1 PUSH1 0x0 MSTORE PUSH1 0x20 PUSH1 0x0 KECCAK256 ADD PUSH1 0x0 SWAP1 SWAP2 SWAP1 SWAP2 SWAP1 SWAP2 PUSH2 0x100 EXP DUP2 SLOAD DUP2 PUSH20 0xFFFFFFFFFFFFFFFFFFFFFFFFFFFFFFFFFFFFFFFF MUL NOT AND SWAP1 DUP4 PUSH20 0xFFFFFFFFFFFFFFFFFFFFFFFFFFFFFFFFFFFFFFFF AND MUL OR SWAP1 SSTORE POP SWAP6 SWAP5 POP POP POP POP POP JUMP JUMPDEST DUP2 PUSH20 0xFFFFFFFFFFFFFFFFFFFFFFFFFFFFFFFFFFFFFFFF AND PUSH4 0x846EB6D7 DUP3 PUSH1 0x40 MLOAD DUP3 PUSH4 0xFFFFFFFF AND PUSH1 0xE0 SHL DUP2 MSTORE PUSH1 0x4 ADD PUSH3 0x1C3 SWAP2 SWAP1 PUSH3 0x596 JUMP JUMPDEST PUSH1 0x0 PUSH1 0x40 MLOAD DUP1 DUP4 SUB DUP2 PUSH1 0x0 DUP8 DUP1 EXTCODESIZE ISZERO DUP1 ISZERO PUSH3 0x1DE JUMPI PUSH1 0x0 DUP1 REVERT JUMPDEST POP GAS CALL ISZERO DUP1 ISZERO PUSH3 0x1F3 JUMPI RETURNDATASIZE PUSH1 0x0 DUP1 RETURNDATACOPY RETURNDATASIZE PUSH1 0x0 REVERT JUMPDEST POP POP POP POP POP POP JUMP JUMPDEST PUSH1 0x0 PUSH1 0x1 DUP1 SLOAD SWAP1 POP DUP4 DUP4 PUSH1 0x40 MLOAD PUSH3 0x213 SWAP1 PUSH3 0x2B8 JUMP JUMPDEST PUSH3 0x221 SWAP4 SWAP3 SWAP2 SWAP1 PUSH3 0x617 JUMP JUMPDEST PUSH1 0x40 MLOAD DUP1 SWAP2 SUB SWAP1 PUSH1 0x0 CREATE DUP1 ISZERO DUP1 ISZERO PUSH3 0x23E JUMPI RETURNDATASIZE PUSH1 0x0 DUP1 RETURNDATACOPY RETURNDATASIZE PUSH1 0x0 REVERT JUMPDEST POP SWAP1 POP PUSH1 0x1 DUP2 SWAP1 DUP1 PUSH1 0x1 DUP2 SLOAD ADD DUP1 DUP3 SSTORE DUP1 SWAP2 POP POP PUSH1 0x1 SWAP1 SUB SWAP1 PUSH1 0x0 MSTORE PUSH1 0x20 PUSH1 0x0 KECCAK256 ADD PUSH1 0x0 SWAP1 SWAP2 SWAP1 SWAP2 SWAP1 SWAP2 PUSH2 0x100 EXP DUP2 SLOAD DUP2 PUSH20 0xFFFFFFFFFFFFFFFFFFFFFFFFFFFFFFFFFFFFFFFF MUL NOT AND SWAP1 DUP4 PUSH20 0xFFFFFFFFFFFFFFFFFFFFFFFFFFFFFFFFFFFFFFFF AND MUL OR SWAP1 SSTORE POP SWAP3 SWAP2 POP POP JUMP JUMPDEST PUSH2 0x8FD DUP1 PUSH3 0x8CA DUP4 CODECOPY ADD SWAP1 JUMP JUMPDEST PUSH2 0x40C DUP1 PUSH3 0x11C7 DUP4 CODECOPY ADD SWAP1 JUMP JUMPDEST PUSH1 0x0 PUSH3 0x2DD PUSH3 0x2D7 DUP5 PUSH3 0x684 JUMP JUMPDEST PUSH3 0x65B JUMP JUMPDEST SWAP1 POP DUP3 DUP2 MSTORE PUSH1 0x20 DUP2 ADD DUP5 DUP5 DUP5 ADD GT ISZERO PUSH3 0x2FC JUMPI PUSH3 0x2FB PUSH3 0x841 JUMP JUMPDEST JUMPDEST PUSH3 0x309 DUP5 DUP3 DUP6 PUSH3 0x792 JUMP JUMPDEST POP SWAP4 SWAP3 POP POP POP JUMP JUMPDEST PUSH1 0x0 DUP2 CALLDATALOAD SWAP1 POP PUSH3 0x322 DUP2 PUSH3 0x861 JUMP JUMPDEST SWAP3 SWAP2 POP POP JUMP JUMPDEST PUSH1 0x0 DUP2 CALLDATALOAD SWAP1 POP PUSH3 0x339 DUP2 PUSH3 0x87B JUMP JUMPDEST SWAP3 SWAP2 POP POP JUMP JUMPDEST PUSH1 0x0 DUP2 CALLDATALOAD SWAP1 POP PUSH3 0x350 DUP2 PUSH3 0x895 JUMP JUMPDEST SWAP3 SWAP2 POP POP JUMP JUMPDEST PUSH1 0x0 DUP3 PUSH1 0x1F DUP4 ADD SLT PUSH3 0x36E JUMPI PUSH3 0x36D PUSH3 0x83C JUMP JUMPDEST JUMPDEST DUP2 CALLDATALOAD PUSH3 0x380 DUP5 DUP3 PUSH1 0x20 DUP7 ADD PUSH3 0x2C6 JUMP JUMPDEST SWAP2 POP POP SWAP3 SWAP2 POP POP JUMP JUMPDEST PUSH1 0x0 DUP2 CALLDATALOAD SWAP1 POP PUSH3 0x39A DUP2 PUSH3 0x8AF JUMP JUMPDEST SWAP3 SWAP2 POP POP JUMP JUMPDEST PUSH1 0x0 DUP1 PUSH1 0x40 DUP4 DUP6 SUB SLT ISZERO PUSH3 0x3BA JUMPI PUSH3 0x3B9 PUSH3 0x84B JUMP JUMPDEST JUMPDEST PUSH1 0x0 PUSH3 0x3CA DUP6 DUP3 DUP7 ADD PUSH3 0x328 JUMP JUMPDEST SWAP3 POP POP PUSH1 0x20 PUSH3 0x3DD DUP6 DUP3 DUP7 ADD PUSH3 0x33F JUMP JUMPDEST SWAP2 POP POP SWAP3 POP SWAP3 SWAP1 POP JUMP JUMPDEST PUSH1 0x0 DUP1 PUSH1 0x0 DUP1 PUSH1 0x0 PUSH1 0xA0 DUP7 DUP9 SUB SLT ISZERO PUSH3 0x406 JUMPI PUSH3 0x405 PUSH3 0x84B JUMP JUMPDEST JUMPDEST PUSH1 0x0 DUP7 ADD CALLDATALOAD PUSH8 0xFFFFFFFFFFFFFFFF DUP2 GT ISZERO PUSH3 0x427 JUMPI PUSH3 0x426 PUSH3 0x846 JUMP JUMPDEST JUMPDEST PUSH3 0x435 DUP9 DUP3 DUP10 ADD PUSH3 0x356 JUMP JUMPDEST SWAP6 POP POP PUSH1 0x20 PUSH3 0x448 DUP9 DUP3 DUP10 ADD PUSH3 0x389 JUMP JUMPDEST SWAP5 POP POP PUSH1 0x40 PUSH3 0x45B DUP9 DUP3 DUP10 ADD PUSH3 0x389 JUMP JUMPDEST SWAP4 POP POP PUSH1 0x60 PUSH3 0x46E DUP9 DUP3 DUP10 ADD PUSH3 0x389 JUMP JUMPDEST SWAP3 POP POP PUSH1 0x80 PUSH3 0x481 DUP9 DUP3 DUP10 ADD PUSH3 0x311 JUMP JUMPDEST SWAP2 POP POP SWAP3 SWAP6 POP SWAP3 SWAP6 SWAP1 SWAP4 POP JUMP JUMPDEST PUSH1 0x0 DUP1 PUSH1 0x40 DUP4 DUP6 SUB SLT ISZERO PUSH3 0x4A8 JUMPI PUSH3 0x4A7 PUSH3 0x84B JUMP JUMPDEST JUMPDEST PUSH1 0x0 PUSH3 0x4B8 DUP6 DUP3 DUP7 ADD PUSH3 0x389 JUMP JUMPDEST SWAP3 POP POP PUSH1 0x20 DUP4 ADD CALLDATALOAD PUSH8 0xFFFFFFFFFFFFFFFF DUP2 GT ISZERO PUSH3 0x4DC JUMPI PUSH3 0x4DB PUSH3 0x846 JUMP JUMPDEST JUMPDEST PUSH3 0x4EA DUP6 DUP3 DUP7 ADD PUSH3 0x356 JUMP JUMPDEST SWAP2 POP POP SWAP3 POP SWAP3 SWAP1 POP JUMP JUMPDEST PUSH3 0x4FF DUP2 PUSH3 0x6D6 JUMP JUMPDEST DUP3 MSTORE POP POP JUMP JUMPDEST PUSH3 0x510 DUP2 PUSH3 0x742 JUMP JUMPDEST DUP3 MSTORE POP POP JUMP JUMPDEST PUSH3 0x521 DUP2 PUSH3 0x756 JUMP JUMPDEST DUP3 MSTORE POP POP JUMP JUMPDEST PUSH1 0x0 PUSH3 0x534 DUP3 PUSH3 0x6BA JUMP JUMPDEST PUSH3 0x540 DUP2 DUP6 PUSH3 0x6C5 JUMP JUMPDEST SWAP4 POP PUSH3 0x552 DUP2 DUP6 PUSH1 0x20 DUP7 ADD PUSH3 0x7A1 JUMP JUMPDEST PUSH3 0x55D DUP2 PUSH3 0x850 JUMP JUMPDEST DUP5 ADD SWAP2 POP POP SWAP3 SWAP2 POP POP JUMP JUMPDEST PUSH3 0x573 DUP2 PUSH3 0x732 JUMP JUMPDEST DUP3 MSTORE POP POP JUMP JUMPDEST PUSH1 0x0 PUSH1 0x20 DUP3 ADD SWAP1 POP PUSH3 0x590 PUSH1 0x0 DUP4 ADD DUP5 PUSH3 0x505 JUMP JUMPDEST SWAP3 SWAP2 POP POP JUMP JUMPDEST PUSH1 0x0 PUSH1 0x20 DUP3 ADD SWAP1 POP PUSH3 0x5AD PUSH1 0x0 DUP4 ADD DUP5 PUSH3 0x516 JUMP JUMPDEST SWAP3 SWAP2 POP POP JUMP JUMPDEST PUSH1 0x0 PUSH1 0xA0 DUP3 ADD SWAP1 POP DUP2 DUP2 SUB PUSH1 0x0 DUP4 ADD MSTORE PUSH3 0x5CF DUP2 DUP9 PUSH3 0x527 JUMP JUMPDEST SWAP1 POP PUSH3 0x5E0 PUSH1 0x20 DUP4 ADD DUP8 PUSH3 0x568 JUMP JUMPDEST PUSH3 0x5EF PUSH1 0x40 DUP4 ADD DUP7 PUSH3 0x568 JUMP JUMPDEST PUSH3 0x5FE PUSH1 0x60 DUP4 ADD DUP6 PUSH3 0x568 JUMP JUMPDEST PUSH3 0x60D PUSH1 0x80 DUP4 ADD DUP5 PUSH3 0x4F4 JUMP JUMPDEST SWAP7 SWAP6 POP POP POP POP POP POP JUMP JUMPDEST PUSH1 0x0 PUSH1 0x60 DUP3 ADD SWAP1 POP PUSH3 0x62E PUSH1 0x0 DUP4 ADD DUP7 PUSH3 0x568 JUMP JUMPDEST PUSH3 0x63D PUSH1 0x20 DUP4 ADD DUP6 PUSH3 0x568 JUMP JUMPDEST DUP2 DUP2 SUB PUSH1 0x40 DUP4 ADD MSTORE PUSH3 0x651 DUP2 DUP5 PUSH3 0x527 JUMP JUMPDEST SWAP1 POP SWAP5 SWAP4 POP POP POP POP JUMP JUMPDEST PUSH1 0x0 PUSH3 0x667 PUSH3 0x67A JUMP JUMPDEST SWAP1 POP PUSH3 0x675 DUP3 DUP3 PUSH3 0x7D7 JUMP JUMPDEST SWAP2 SWAP1 POP JUMP JUMPDEST PUSH1 0x0 PUSH1 0x40 MLOAD SWAP1 POP SWAP1 JUMP JUMPDEST PUSH1 0x0 PUSH8 0xFFFFFFFFFFFFFFFF DUP3 GT ISZERO PUSH3 0x6A2 JUMPI PUSH3 0x6A1 PUSH3 0x80D JUMP JUMPDEST JUMPDEST PUSH3 0x6AD DUP3 PUSH3 0x850 JUMP JUMPDEST SWAP1 POP PUSH1 0x20 DUP2 ADD SWAP1 POP SWAP2 SWAP1 POP JUMP JUMPDEST PUSH1 0x0 DUP2 MLOAD SWAP1 POP SWAP2 SWAP1 POP JUMP JUMPDEST PUSH1 0x0 DUP3 DUP3 MSTORE PUSH1 0x20 DUP3 ADD SWAP1 POP SWAP3 SWAP2 POP POP JUMP JUMPDEST PUSH1 0x0 PUSH3 0x6E3 DUP3 PUSH3 0x712 JUMP JUMPDEST SWAP1 POP SWAP2 SWAP1 POP JUMP JUMPDEST PUSH1 0x0 PUSH3 0x6F7 DUP3 PUSH3 0x6D6 JUMP JUMPDEST SWAP1 POP SWAP2 SWAP1 POP JUMP JUMPDEST PUSH1 0x0 PUSH3 0x70B DUP3 PUSH3 0x6D6 JUMP JUMPDEST SWAP1 POP SWAP2 SWAP1 POP JUMP JUMPDEST PUSH1 0x0 PUSH20 0xFFFFFFFFFFFFFFFFFFFFFFFFFFFFFFFFFFFFFFFF DUP3 AND SWAP1 POP SWAP2 SWAP1 POP JUMP JUMPDEST PUSH1 0x0 PUSH4 0xFFFFFFFF DUP3 AND SWAP1 POP SWAP2 SWAP1 POP JUMP JUMPDEST PUSH1 0x0 PUSH3 0x74F DUP3 PUSH3 0x76A JUMP JUMPDEST SWAP1 POP SWAP2 SWAP1 POP JUMP JUMPDEST PUSH1 0x0 PUSH3 0x763 DUP3 PUSH3 0x76A JUMP JUMPDEST SWAP1 POP SWAP2 SWAP1 POP JUMP JUMPDEST PUSH1 0x0 PUSH3 0x777 DUP3 PUSH3 0x77E JUMP JUMPDEST SWAP1 POP SWAP2 SWAP1 POP JUMP JUMPDEST PUSH1 0x0 PUSH3 0x78B DUP3 PUSH3 0x712 JUMP JUMPDEST SWAP1 POP SWAP2 SWAP1 POP JUMP JUMPDEST DUP3 DUP2 DUP4 CALLDATACOPY PUSH1 0x0 DUP4 DUP4 ADD MSTORE POP POP POP JUMP JUMPDEST PUSH1 0x0 JUMPDEST DUP4 DUP2 LT ISZERO PUSH3 0x7C1 JUMPI DUP1 DUP3 ADD MLOAD DUP2 DUP5 ADD MSTORE PUSH1 0x20 DUP2 ADD SWAP1 POP PUSH3 0x7A4 JUMP JUMPDEST DUP4 DUP2 GT ISZERO PUSH3 0x7D1 JUMPI PUSH1 0x0 DUP5 DUP5 ADD MSTORE JUMPDEST POP POP POP POP JUMP JUMPDEST PUSH3 0x7E2 DUP3 PUSH3 0x850 JUMP JUMPDEST DUP2 ADD DUP2 DUP2 LT PUSH8 0xFFFFFFFFFFFFFFFF DUP3 GT OR ISZERO PUSH3 0x804 JUMPI PUSH3 0x803 PUSH3 0x80D JUMP JUMPDEST JUMPDEST DUP1 PUSH1 0x40 MSTORE POP POP POP JUMP JUMPDEST PUSH32 0x4E487B7100000000000000000000000000000000000000000000000000000000 PUSH1 0x0 MSTORE PUSH1 0x41 PUSH1 0x4 MSTORE PUSH1 0x24 PUSH1 0x0 REVERT JUMPDEST PUSH1 0x0 DUP1 REVERT JUMPDEST PUSH1 0x0 DUP1 REVERT JUMPDEST PUSH1 0x0 DUP1 REVERT JUMPDEST PUSH1 0x0 DUP1 REVERT JUMPDEST PUSH1 0x0 PUSH1 0x1F NOT PUSH1 0x1F DUP4 ADD AND SWAP1 POP SWAP2 SWAP1 POP JUMP JUMPDEST PUSH3 0x86C DUP2 PUSH3 0x6D6 JUMP JUMPDEST DUP2 EQ PUSH3 0x878 JUMPI PUSH1 0x0 DUP1 REVERT JUMPDEST POP JUMP JUMPDEST PUSH3 0x886 DUP2 PUSH3 0x6EA JUMP JUMPDEST DUP2 EQ PUSH3 0x892 JUMPI PUSH1 0x0 DUP1 REVERT JUMPDEST POP JUMP JUMPDEST PUSH3 0x8A0 DUP2 PUSH3 0x6FE JUMP JUMPDEST DUP2 EQ PUSH3 0x8AC JUMPI PUSH1 0x0 DUP1 REVERT JUMPDEST POP JUMP JUMPDEST PUSH3 0x8BA DUP2 PUSH3 0x732 JUMP JUMPDEST DUP2 EQ PUSH3 0x8C6 JUMPI PUSH1 0x0 DUP1 REVERT JUMPDEST POP JUMP INVALID PUSH1 0x80 PUSH1 0x40 MSTORE PUSH1 0x40 MLOAD DUP1 PUSH1 0x20 ADD PUSH1 0x40 MSTORE DUP1 PUSH1 0x0 DUP2 MSTORE POP PUSH1 0x0 SWAP1 DUP1 MLOAD SWAP1 PUSH1 0x20 ADD SWAP1 PUSH3 0x2B SWAP3 SWAP2 SWAP1 PUSH3 0x18D JUMP JUMPDEST POP PUSH1 0x0 PUSH1 0x1 PUSH1 0x0 PUSH2 0x100 EXP DUP2 SLOAD DUP2 PUSH4 0xFFFFFFFF MUL NOT AND SWAP1 DUP4 PUSH4 0xFFFFFFFF AND MUL OR SWAP1 SSTORE POP PUSH1 0x0 PUSH1 0x1 PUSH1 0x4 PUSH2 0x100 EXP DUP2 SLOAD DUP2 PUSH4 0xFFFFFFFF MUL NOT AND SWAP1 DUP4 PUSH4 0xFFFFFFFF AND MUL OR SWAP1 SSTORE POP PUSH1 0x0 PUSH1 0x1 PUSH1 0x8 PUSH2 0x100 EXP DUP2 SLOAD DUP2 PUSH4 0xFFFFFFFF MUL NOT AND SWAP1 DUP4 PUSH4 0xFFFFFFFF AND MUL OR SWAP1 SSTORE POP CALLVALUE DUP1 ISZERO PUSH3 0x9F JUMPI PUSH1 0x0 DUP1 REVERT JUMPDEST POP PUSH1 0x40 MLOAD PUSH3 0x8FD CODESIZE SUB DUP1 PUSH3 0x8FD DUP4 CODECOPY DUP2 DUP2 ADD PUSH1 0x40 MSTORE DUP2 ADD SWAP1 PUSH3 0xC5 SWAP2 SWAP1 PUSH3 0x2E9 JUMP JUMPDEST DUP5 PUSH1 0x0 SWAP1 DUP1 MLOAD SWAP1 PUSH1 0x20 ADD SWAP1 PUSH3 0xDD SWAP3 SWAP2 SWAP1 PUSH3 0x18D JUMP JUMPDEST POP DUP4 PUSH1 0x1 PUSH1 0x0 PUSH2 0x100 EXP DUP2 SLOAD DUP2 PUSH4 0xFFFFFFFF MUL NOT AND SWAP1 DUP4 PUSH4 0xFFFFFFFF AND MUL OR SWAP1 SSTORE POP DUP3 PUSH1 0x1 PUSH1 0x4 PUSH2 0x100 EXP DUP2 SLOAD DUP2 PUSH4 0xFFFFFFFF MUL NOT AND SWAP1 DUP4 PUSH4 0xFFFFFFFF AND MUL OR SWAP1 SSTORE POP DUP2 PUSH1 0x1 PUSH1 0x8 PUSH2 0x100 EXP DUP2 SLOAD DUP2 PUSH4 0xFFFFFFFF MUL NOT AND SWAP1 DUP4 PUSH4 0xFFFFFFFF AND MUL OR SWAP1 SSTORE POP DUP1 PUSH1 0x1 PUSH1 0xC PUSH2 0x100 EXP DUP2 SLOAD DUP2 PUSH20 0xFFFFFFFFFFFFFFFFFFFFFFFFFFFFFFFFFFFFFFFF MUL NOT AND SWAP1 DUP4 PUSH20 0xFFFFFFFFFFFFFFFFFFFFFFFFFFFFFFFFFFFFFFFF AND MUL OR SWAP1 SSTORE POP POP POP POP POP POP PUSH3 0x58C JUMP JUMPDEST DUP3 DUP1 SLOAD PUSH3 0x19B SWAP1 PUSH3 0x469 JUMP JUMPDEST SWAP1 PUSH1 0x0 MSTORE PUSH1 0x20 PUSH1 0x0 KECCAK256 SWAP1 PUSH1 0x1F ADD PUSH1 0x20 SWAP1 DIV DUP2 ADD SWAP3 DUP3 PUSH3 0x1BF JUMPI PUSH1 0x0 DUP6 SSTORE PUSH3 0x20B JUMP JUMPDEST DUP3 PUSH1 0x1F LT PUSH3 0x1DA JUMPI DUP1 MLOAD PUSH1 0xFF NOT AND DUP4 DUP1 ADD OR DUP6 SSTORE PUSH3 0x20B JUMP JUMPDEST DUP3 DUP1 ADD PUSH1 0x1 ADD DUP6 SSTORE DUP3 ISZERO PUSH3 0x20B JUMPI SWAP2 DUP3 ADD JUMPDEST DUP3 DUP2 GT ISZERO PUSH3 0x20A JUMPI DUP3 MLOAD DUP3 SSTORE SWAP2 PUSH1 0x20 ADD SWAP2 SWAP1 PUSH1 0x1 ADD SWAP1 PUSH3 0x1ED JUMP JUMPDEST JUMPDEST POP SWAP1 POP PUSH3 0x21A SWAP2 SWAP1 PUSH3 0x21E JUMP JUMPDEST POP SWAP1 JUMP JUMPDEST JUMPDEST DUP1 DUP3 GT ISZERO PUSH3 0x239 JUMPI PUSH1 0x0 DUP2 PUSH1 0x0 SWAP1 SSTORE POP PUSH1 0x1 ADD PUSH3 0x21F JUMP JUMPDEST POP SWAP1 JUMP JUMPDEST PUSH1 0x0 PUSH3 0x254 PUSH3 0x24E DUP5 PUSH3 0x3B9 JUMP JUMPDEST PUSH3 0x390 JUMP JUMPDEST SWAP1 POP DUP3 DUP2 MSTORE PUSH1 0x20 DUP2 ADD DUP5 DUP5 DUP5 ADD GT ISZERO PUSH3 0x273 JUMPI PUSH3 0x272 PUSH3 0x538 JUMP JUMPDEST JUMPDEST PUSH3 0x280 DUP5 DUP3 DUP6 PUSH3 0x433 JUMP JUMPDEST POP SWAP4 SWAP3 POP POP POP JUMP JUMPDEST PUSH1 0x0 DUP2 MLOAD SWAP1 POP PUSH3 0x299 DUP2 PUSH3 0x558 JUMP JUMPDEST SWAP3 SWAP2 POP POP JUMP JUMPDEST PUSH1 0x0 DUP3 PUSH1 0x1F DUP4 ADD SLT PUSH3 0x2B7 JUMPI PUSH3 0x2B6 PUSH3 0x533 JUMP JUMPDEST JUMPDEST DUP2 MLOAD PUSH3 0x2C9 DUP5 DUP3 PUSH1 0x20 DUP7 ADD PUSH3 0x23D JUMP JUMPDEST SWAP2 POP POP SWAP3 SWAP2 POP POP JUMP JUMPDEST PUSH1 0x0 DUP2 MLOAD SWAP1 POP PUSH3 0x2E3 DUP2 PUSH3 0x572 JUMP JUMPDEST SWAP3 SWAP2 POP POP JUMP JUMPDEST PUSH1 0x0 DUP1 PUSH1 0x0 DUP1 PUSH1 0x0 PUSH1 0xA0 DUP7 DUP9 SUB SLT ISZERO PUSH3 0x308 JUMPI PUSH3 0x307 PUSH3 0x542 JUMP JUMPDEST JUMPDEST PUSH1 0x0 DUP7 ADD MLOAD PUSH8 0xFFFFFFFFFFFFFFFF DUP2 GT ISZERO PUSH3 0x329 JUMPI PUSH3 0x328 PUSH3 0x53D JUMP JUMPDEST JUMPDEST PUSH3 0x337 DUP9 DUP3 DUP10 ADD PUSH3 0x29F JUMP JUMPDEST SWAP6 POP POP PUSH1 0x20 PUSH3 0x34A DUP9 DUP3 DUP10 ADD PUSH3 0x2D2 JUMP JUMPDEST SWAP5 POP POP PUSH1 0x40 PUSH3 0x35D DUP9 DUP3 DUP10 ADD PUSH3 0x2D2 JUMP JUMPDEST SWAP4 POP POP PUSH1 0x60 PUSH3 0x370 DUP9 DUP3 DUP10 ADD PUSH3 0x2D2 JUMP JUMPDEST SWAP3 POP POP PUSH1 0x80 PUSH3 0x383 DUP9 DUP3 DUP10 ADD PUSH3 0x288 JUMP JUMPDEST SWAP2 POP POP SWAP3 SWAP6 POP SWAP3 SWAP6 SWAP1 SWAP4 POP JUMP JUMPDEST PUSH1 0x0 PUSH3 0x39C PUSH3 0x3AF JUMP JUMPDEST SWAP1 POP PUSH3 0x3AA DUP3 DUP3 PUSH3 0x49F JUMP JUMPDEST SWAP2 SWAP1 POP JUMP JUMPDEST PUSH1 0x0 PUSH1 0x40 MLOAD SWAP1 POP SWAP1 JUMP JUMPDEST PUSH1 0x0 PUSH8 0xFFFFFFFFFFFFFFFF DUP3 GT ISZERO PUSH3 0x3D7 JUMPI PUSH3 0x3D6 PUSH3 0x504 JUMP JUMPDEST JUMPDEST PUSH3 0x3E2 DUP3 PUSH3 0x547 JUMP JUMPDEST SWAP1 POP PUSH1 0x20 DUP2 ADD SWAP1 POP SWAP2 SWAP1 POP JUMP JUMPDEST PUSH1 0x0 PUSH3 0x3FC DUP3 PUSH3 0x403 JUMP JUMPDEST SWAP1 POP SWAP2 SWAP1 POP JUMP JUMPDEST PUSH1 0x0 PUSH20 0xFFFFFFFFFFFFFFFFFFFFFFFFFFFFFFFFFFFFFFFF DUP3 AND SWAP1 POP SWAP2 SWAP1 POP JUMP JUMPDEST PUSH1 0x0 PUSH4 0xFFFFFFFF DUP3 AND SWAP1 POP SWAP2 SWAP1 POP JUMP JUMPDEST PUSH1 0x0 JUMPDEST DUP4 DUP2 LT ISZERO PUSH3 0x453 JUMPI DUP1 DUP3 ADD MLOAD DUP2 DUP5 ADD MSTORE PUSH1 0x20 DUP2 ADD SWAP1 POP PUSH3 0x436 JUMP JUMPDEST DUP4 DUP2 GT ISZERO PUSH3 0x463 JUMPI PUSH1 0x0 DUP5 DUP5 ADD MSTORE JUMPDEST POP POP POP POP JUMP JUMPDEST PUSH1 0x0 PUSH1 0x2 DUP3 DIV SWAP1 POP PUSH1 0x1 DUP3 AND DUP1 PUSH3 0x482 JUMPI PUSH1 0x7F DUP3 AND SWAP2 POP JUMPDEST PUSH1 0x20 DUP3 LT DUP2 EQ ISZERO PUSH3 0x499 JUMPI PUSH3 0x498 PUSH3 0x4D5 JUMP JUMPDEST JUMPDEST POP SWAP2 SWAP1 POP JUMP JUMPDEST PUSH3 0x4AA DUP3 PUSH3 0x547 JUMP JUMPDEST DUP2 ADD DUP2 DUP2 LT PUSH8 0xFFFFFFFFFFFFFFFF DUP3 GT OR ISZERO PUSH3 0x4CC JUMPI PUSH3 0x4CB PUSH3 0x504 JUMP JUMPDEST JUMPDEST DUP1 PUSH1 0x40 MSTORE POP POP POP JUMP JUMPDEST PUSH32 0x4E487B7100000000000000000000000000000000000000000000000000000000 PUSH1 0x0 MSTORE PUSH1 0x22 PUSH1 0x4 MSTORE PUSH1 0x24 PUSH1 0x0 REVERT JUMPDEST PUSH32 0x4E487B7100000000000000000000000000000000000000000000000000000000 PUSH1 0x0 MSTORE PUSH1 0x41 PUSH1 0x4 MSTORE PUSH1 0x24 PUSH1 0x0 REVERT JUMPDEST PUSH1 0x0 DUP1 REVERT JUMPDEST PUSH1 0x0 DUP1 REVERT JUMPDEST PUSH1 0x0 DUP1 REVERT JUMPDEST PUSH1 0x0 DUP1 REVERT JUMPDEST PUSH1 0x0 PUSH1 0x1F NOT PUSH1 0x1F DUP4 ADD AND SWAP1 POP SWAP2 SWAP1 POP JUMP JUMPDEST PUSH3 0x563 DUP2 PUSH3 0x3EF JUMP JUMPDEST DUP2 EQ PUSH3 0x56F JUMPI PUSH1 0x0 DUP1 REVERT JUMPDEST POP JUMP JUMPDEST PUSH3 0x57D DUP2 PUSH3 0x423 JUMP JUMPDEST DUP2 EQ PUSH3 0x589 JUMPI PUSH1 0x0 DUP1 REVERT JUMPDEST POP JUMP JUMPDEST PUSH2 0x361 DUP1 PUSH3 0x59C PUSH1 0x0 CODECOPY PUSH1 0x0 RETURN INVALID PUSH1 0x80 PUSH1 0x40 MSTORE CALLVALUE DUP1 ISZERO PUSH2 0x10 JUMPI PUSH1 0x0 DUP1 REVERT JUMPDEST POP PUSH1 0x4 CALLDATASIZE LT PUSH2 0x36 JUMPI PUSH1 0x0 CALLDATALOAD PUSH1 0xE0 SHR DUP1 PUSH4 0x846EB6D7 EQ PUSH2 0x3B JUMPI DUP1 PUSH4 0xBF7297A2 EQ PUSH2 0x57 JUMPI JUMPDEST PUSH1 0x0 DUP1 REVERT JUMPDEST PUSH2 0x55 PUSH1 0x4 DUP1 CALLDATASIZE SUB DUP2 ADD SWAP1 PUSH2 0x50 SWAP2 SWAP1 PUSH2 0x182 JUMP JUMPDEST PUSH2 0x75 JUMP JUMPDEST STOP JUMPDEST PUSH2 0x5F PUSH2 0xDB JUMP JUMPDEST PUSH1 0x40 MLOAD PUSH2 0x6C SWAP2 SWAP1 PUSH2 0x1E8 JUMP JUMPDEST PUSH1 0x40 MLOAD DUP1 SWAP2 SUB SWAP1 RETURN JUMPDEST PUSH1 0x2 DUP2 SWAP1 DUP1 PUSH1 0x1 DUP2 SLOAD ADD DUP1 DUP3 SSTORE DUP1 SWAP2 POP POP PUSH1 0x1 SWAP1 SUB SWAP1 PUSH1 0x0 MSTORE PUSH1 0x20 PUSH1 0x0 KECCAK256 ADD PUSH1 0x0 SWAP1 SWAP2 SWAP1 SWAP2 SWAP1 SWAP2 PUSH2 0x100 EXP DUP2 SLOAD DUP2 PUSH20 0xFFFFFFFFFFFFFFFFFFFFFFFFFFFFFFFFFFFFFFFF MUL NOT AND SWAP1 DUP4 PUSH20 0xFFFFFFFFFFFFFFFFFFFFFFFFFFFFFFFFFFFFFFFF AND MUL OR SWAP1 SSTORE POP POP JUMP JUMPDEST PUSH1 0x60 PUSH1 0x0 DUP1 SLOAD PUSH2 0xEA SWAP1 PUSH2 0x29D JUMP JUMPDEST DUP1 PUSH1 0x1F ADD PUSH1 0x20 DUP1 SWAP2 DIV MUL PUSH1 0x20 ADD PUSH1 0x40 MLOAD SWAP1 DUP2 ADD PUSH1 0x40 MSTORE DUP1 SWAP3 SWAP2 SWAP1 DUP2 DUP2 MSTORE PUSH1 0x20 ADD DUP3 DUP1 SLOAD PUSH2 0x116 SWAP1 PUSH2 0x29D JUMP JUMPDEST DUP1 ISZERO PUSH2 0x163 JUMPI DUP1 PUSH1 0x1F LT PUSH2 0x138 JUMPI PUSH2 0x100 DUP1 DUP4 SLOAD DIV MUL DUP4 MSTORE SWAP2 PUSH1 0x20 ADD SWAP2 PUSH2 0x163 JUMP JUMPDEST DUP3 ADD SWAP2 SWAP1 PUSH1 0x0 MSTORE PUSH1 0x20 PUSH1 0x0 KECCAK256 SWAP1 JUMPDEST DUP2 SLOAD DUP2 MSTORE SWAP1 PUSH1 0x1 ADD SWAP1 PUSH1 0x20 ADD DUP1 DUP4 GT PUSH2 0x146 JUMPI DUP3 SWAP1 SUB PUSH1 0x1F AND DUP3 ADD SWAP2 JUMPDEST POP POP POP POP POP SWAP1 POP SWAP1 JUMP JUMPDEST PUSH1 0x0 DUP2 CALLDATALOAD SWAP1 POP PUSH2 0x17C DUP2 PUSH2 0x314 JUMP JUMPDEST SWAP3 SWAP2 POP POP JUMP JUMPDEST PUSH1 0x0 PUSH1 0x20 DUP3 DUP5 SUB SLT ISZERO PUSH2 0x198 JUMPI PUSH2 0x197 PUSH2 0x2FE JUMP JUMPDEST JUMPDEST PUSH1 0x0 PUSH2 0x1A6 DUP5 DUP3 DUP6 ADD PUSH2 0x16D JUMP JUMPDEST SWAP2 POP POP SWAP3 SWAP2 POP POP JUMP JUMPDEST PUSH1 0x0 PUSH2 0x1BA DUP3 PUSH2 0x20A JUMP JUMPDEST PUSH2 0x1C4 DUP2 DUP6 PUSH2 0x215 JUMP JUMPDEST SWAP4 POP PUSH2 0x1D4 DUP2 DUP6 PUSH1 0x20 DUP7 ADD PUSH2 0x26A JUMP JUMPDEST PUSH2 0x1DD DUP2 PUSH2 0x303 JUMP JUMPDEST DUP5 ADD SWAP2 POP POP SWAP3 SWAP2 POP POP JUMP JUMPDEST PUSH1 0x0 PUSH1 0x20 DUP3 ADD SWAP1 POP DUP2 DUP2 SUB PUSH1 0x0 DUP4 ADD MSTORE PUSH2 0x202 DUP2 DUP5 PUSH2 0x1AF JUMP JUMPDEST SWAP1 POP SWAP3 SWAP2 POP POP JUMP JUMPDEST PUSH1 0x0 DUP2 MLOAD SWAP1 POP SWAP2 SWAP1 POP JUMP JUMPDEST PUSH1 0x0 DUP3 DUP3 MSTORE PUSH1 0x20 DUP3 ADD SWAP1 POP SWAP3 SWAP2 POP POP JUMP JUMPDEST PUSH1 0x0 PUSH2 0x231 DUP3 PUSH2 0x24A JUMP JUMPDEST SWAP1 POP SWAP2 SWAP1 POP JUMP JUMPDEST PUSH1 0x0 PUSH2 0x243 DUP3 PUSH2 0x226 JUMP JUMPDEST SWAP1 POP SWAP2 SWAP1 POP JUMP JUMPDEST PUSH1 0x0 PUSH20 0xFFFFFFFFFFFFFFFFFFFFFFFFFFFFFFFFFFFFFFFF DUP3 AND SWAP1 POP SWAP2 SWAP1 POP JUMP JUMPDEST PUSH1 0x0 JUMPDEST DUP4 DUP2 LT ISZERO PUSH2 0x288 JUMPI DUP1 DUP3 ADD MLOAD DUP2 DUP5 ADD MSTORE PUSH1 0x20 DUP2 ADD SWAP1 POP PUSH2 0x26D JUMP JUMPDEST DUP4 DUP2 GT ISZERO PUSH2 0x297 JUMPI PUSH1 0x0 DUP5 DUP5 ADD MSTORE JUMPDEST POP POP POP POP JUMP JUMPDEST PUSH1 0x0 PUSH1 0x2 DUP3 DIV SWAP1 POP PUSH1 0x1 DUP3 AND DUP1 PUSH2 0x2B5 JUMPI PUSH1 0x7F DUP3 AND SWAP2 POP JUMPDEST PUSH1 0x20 DUP3 LT DUP2 EQ ISZERO PUSH2 0x2C9 JUMPI PUSH2 0x2C8 PUSH2 0x2CF JUMP JUMPDEST JUMPDEST POP SWAP2 SWAP1 POP JUMP JUMPDEST PUSH32 0x4E487B7100000000000000000000000000000000000000000000000000000000 PUSH1 0x0 MSTORE PUSH1 0x22 PUSH1 0x4 MSTORE PUSH1 0x24 PUSH1 0x0 REVERT JUMPDEST PUSH1 0x0 DUP1 REVERT JUMPDEST PUSH1 0x0 PUSH1 0x1F NOT PUSH1 0x1F DUP4 ADD AND SWAP1 POP SWAP2 SWAP1 POP JUMP JUMPDEST PUSH2 0x31D DUP2 PUSH2 0x238 JUMP JUMPDEST DUP2 EQ PUSH2 0x328 JUMPI PUSH1 0x0 DUP1 REVERT JUMPDEST POP JUMP INVALID LOG2 PUSH5 0x6970667358 0x22 SLT KECCAK256 0xCF SDIV 0xD7 EXP LOG1 GT 0xE1 0x4B 0xD8 AND 0xB0 0xDE 0x4C 0xDE SWAP4 SHL 0x21 RETURN DUP2 SWAP14 DUP6 SWAP4 0xDA RETURNDATASIZE PUSH6 0xF9A0E17772FD STATICCALL PUSH5 0x736F6C6343 STOP ADDMOD SMOD STOP CALLER PUSH1 0x80 PUSH1 0x40 MSTORE CALLVALUE DUP1 ISZERO PUSH2 0x10 JUMPI PUSH1 0x0 DUP1 REVERT JUMPDEST POP PUSH1 0x40 MLOAD PUSH2 0x40C CODESIZE SUB DUP1 PUSH2 0x40C DUP4 CODECOPY DUP2 DUP2 ADD PUSH1 0x40 MSTORE DUP2 ADD SWAP1 PUSH2 0x32 SWAP2 SWAP1 PUSH2 0x1BA JUMP JUMPDEST DUP3 PUSH1 0x0 DUP1 PUSH2 0x100 EXP DUP2 SLOAD DUP2 PUSH4 0xFFFFFFFF MUL NOT AND SWAP1 DUP4 PUSH4 0xFFFFFFFF AND MUL OR SWAP1 SSTORE POP DUP2 PUSH1 0x0 PUSH1 0x4 PUSH2 0x100 EXP DUP2 SLOAD DUP2 PUSH4 0xFFFFFFFF MUL NOT AND SWAP1 DUP4 PUSH4 0xFFFFFFFF AND MUL OR SWAP1 SSTORE POP DUP1 PUSH1 0x1 SWAP1 DUP1 MLOAD SWAP1 PUSH1 0x20 ADD SWAP1 PUSH2 0x89 SWAP3 SWAP2 SWAP1 PUSH2 0x92 JUMP JUMPDEST POP POP POP POP PUSH2 0x3BF JUMP JUMPDEST DUP3 DUP1 SLOAD PUSH2 0x9E SWAP1 PUSH2 0x2C2 JUMP JUMPDEST SWAP1 PUSH1 0x0 MSTORE PUSH1 0x20 PUSH1 0x0 KECCAK256 SWAP1 PUSH1 0x1F ADD PUSH1 0x20 SWAP1 DIV DUP2 ADD SWAP3 DUP3 PUSH2 0xC0 JUMPI PUSH1 0x0 DUP6 SSTORE PUSH2 0x107 JUMP JUMPDEST DUP3 PUSH1 0x1F LT PUSH2 0xD9 JUMPI DUP1 MLOAD PUSH1 0xFF NOT AND DUP4 DUP1 ADD OR DUP6 SSTORE PUSH2 0x107 JUMP JUMPDEST DUP3 DUP1 ADD PUSH1 0x1 ADD DUP6 SSTORE DUP3 ISZERO PUSH2 0x107 JUMPI SWAP2 DUP3 ADD JUMPDEST DUP3 DUP2 GT ISZERO PUSH2 0x106 JUMPI DUP3 MLOAD DUP3 SSTORE SWAP2 PUSH1 0x20 ADD SWAP2 SWAP1 PUSH1 0x1 ADD SWAP1 PUSH2 0xEB JUMP JUMPDEST JUMPDEST POP SWAP1 POP PUSH2 0x114 SWAP2 SWAP1 PUSH2 0x118 JUMP JUMPDEST POP SWAP1 JUMP JUMPDEST JUMPDEST DUP1 DUP3 GT ISZERO PUSH2 0x131 JUMPI PUSH1 0x0 DUP2 PUSH1 0x0 SWAP1 SSTORE POP PUSH1 0x1 ADD PUSH2 0x119 JUMP JUMPDEST POP SWAP1 JUMP JUMPDEST PUSH1 0x0 PUSH2 0x148 PUSH2 0x143 DUP5 PUSH2 0x24E JUMP JUMPDEST PUSH2 0x229 JUMP JUMPDEST SWAP1 POP DUP3 DUP2 MSTORE PUSH1 0x20 DUP2 ADD DUP5 DUP5 DUP5 ADD GT ISZERO PUSH2 0x164 JUMPI PUSH2 0x163 PUSH2 0x388 JUMP JUMPDEST JUMPDEST PUSH2 0x16F DUP5 DUP3 DUP6 PUSH2 0x28F JUMP JUMPDEST POP SWAP4 SWAP3 POP POP POP JUMP JUMPDEST PUSH1 0x0 DUP3 PUSH1 0x1F DUP4 ADD SLT PUSH2 0x18C JUMPI PUSH2 0x18B PUSH2 0x383 JUMP JUMPDEST JUMPDEST DUP2 MLOAD PUSH2 0x19C DUP5 DUP3 PUSH1 0x20 DUP7 ADD PUSH2 0x135 JUMP JUMPDEST SWAP2 POP POP SWAP3 SWAP2 POP POP JUMP JUMPDEST PUSH1 0x0 DUP2 MLOAD SWAP1 POP PUSH2 0x1B4 DUP2 PUSH2 0x3A8 JUMP JUMPDEST SWAP3 SWAP2 POP POP JUMP JUMPDEST PUSH1 0x0 DUP1 PUSH1 0x0 PUSH1 0x60 DUP5 DUP7 SUB SLT ISZERO PUSH2 0x1D3 JUMPI PUSH2 0x1D2 PUSH2 0x392 JUMP JUMPDEST JUMPDEST PUSH1 0x0 PUSH2 0x1E1 DUP7 DUP3 DUP8 ADD PUSH2 0x1A5 JUMP JUMPDEST SWAP4 POP POP PUSH1 0x20 PUSH2 0x1F2 DUP7 DUP3 DUP8 ADD PUSH2 0x1A5 JUMP JUMPDEST SWAP3 POP POP PUSH1 0x40 DUP5 ADD MLOAD PUSH8 0xFFFFFFFFFFFFFFFF DUP2 GT ISZERO PUSH2 0x213 JUMPI PUSH2 0x212 PUSH2 0x38D JUMP JUMPDEST JUMPDEST PUSH2 0x21F DUP7 DUP3 DUP8 ADD PUSH2 0x177 JUMP JUMPDEST SWAP2 POP POP SWAP3 POP SWAP3 POP SWAP3 JUMP JUMPDEST PUSH1 0x0 PUSH2 0x233 PUSH2 0x244 JUMP JUMPDEST SWAP1 POP PUSH2 0x23F DUP3 DUP3 PUSH2 0x2F4 JUMP JUMPDEST SWAP2 SWAP1 POP JUMP JUMPDEST PUSH1 0x0 PUSH1 0x40 MLOAD SWAP1 POP SWAP1 JUMP JUMPDEST PUSH1 0x0 PUSH8 0xFFFFFFFFFFFFFFFF DUP3 GT ISZERO PUSH2 0x269 JUMPI PUSH2 0x268 PUSH2 0x354 JUMP JUMPDEST JUMPDEST PUSH2 0x272 DUP3 PUSH2 0x397 JUMP JUMPDEST SWAP1 POP PUSH1 0x20 DUP2 ADD SWAP1 POP SWAP2 SWAP1 POP JUMP JUMPDEST PUSH1 0x0 PUSH4 0xFFFFFFFF DUP3 AND SWAP1 POP SWAP2 SWAP1 POP JUMP JUMPDEST PUSH1 0x0 JUMPDEST DUP4 DUP2 LT ISZERO PUSH2 0x2AD JUMPI DUP1 DUP3 ADD MLOAD DUP2 DUP5 ADD MSTORE PUSH1 0x20 DUP2 ADD SWAP1 POP PUSH2 0x292 JUMP JUMPDEST DUP4 DUP2 GT ISZERO PUSH2 0x2BC JUMPI PUSH1 0x0 DUP5 DUP5 ADD MSTORE JUMPDEST POP POP POP POP JUMP JUMPDEST PUSH1 0x0 PUSH1 0x2 DUP3 DIV SWAP1 POP PUSH1 0x1 DUP3 AND DUP1 PUSH2 0x2DA JUMPI PUSH1 0x7F DUP3 AND SWAP2 POP JUMPDEST PUSH1 0x20 DUP3 LT DUP2 EQ ISZERO PUSH2 0x2EE JUMPI PUSH2 0x2ED PUSH2 0x325 JUMP JUMPDEST JUMPDEST POP SWAP2 SWAP1 POP JUMP JUMPDEST PUSH2 0x2FD DUP3 PUSH2 0x397 JUMP JUMPDEST DUP2 ADD DUP2 DUP2 LT PUSH8 0xFFFFFFFFFFFFFFFF DUP3 GT OR ISZERO PUSH2 0x31C JUMPI PUSH2 0x31B PUSH2 0x354 JUMP JUMPDEST JUMPDEST DUP1 PUSH1 0x40 MSTORE POP POP POP JUMP JUMPDEST PUSH32 0x4E487B7100000000000000000000000000000000000000000000000000000000 PUSH1 0x0 MSTORE PUSH1 0x22 PUSH1 0x4 MSTORE PUSH1 0x24 PUSH1 0x0 REVERT JUMPDEST PUSH32 0x4E487B7100000000000000000000000000000000000000000000000000000000 PUSH1 0x0 MSTORE PUSH1 0x41 PUSH1 0x4 MSTORE PUSH1 0x24 PUSH1 0x0 REVERT JUMPDEST PUSH1 0x0 DUP1 REVERT JUMPDEST PUSH1 0x0 DUP1 REVERT JUMPDEST PUSH1 0x0 DUP1 REVERT JUMPDEST PUSH1 0x0 DUP1 REVERT JUMPDEST PUSH1 0x0 PUSH1 0x1F NOT PUSH1 0x1F DUP4 ADD AND SWAP1 POP SWAP2 SWAP1 POP JUMP JUMPDEST PUSH2 0x3B1 DUP2 PUSH2 0x27F JUMP JUMPDEST DUP2 EQ PUSH2 0x3BC JUMPI PUSH1 0x0 DUP1 REVERT JUMPDEST POP JUMP JUMPDEST PUSH1 0x3F DUP1 PUSH2 0x3CD PUSH1 0x0 CODECOPY PUSH1 0x0 RETURN INVALID PUSH1 0x80 PUSH1 0x40 MSTORE PUSH1 0x0 DUP1 REVERT INVALID LOG2 PUSH5 0x6970667358 0x22 SLT KECCAK256 LOG4 SSTORE SWAP10 0xF 0x4B 0xF 0xC2 0x2B 0xE4 0x5C 0x23 0xC3 PUSH31 0x591C69BE10E196F61DC627721B729477EA49E864736F6C63430008070033A2 PUSH5 0x6970667358 0x22 SLT KECCAK256 CALLER PUSH8 0xC99A76D92D8F6A33 SHL 0xC0 0xC SGT NOT XOR SHL 0xF 0x5C 0xDA 0xC8 PUSH23 0x736F1F4BC4F506B5070F64736F6C634300080700330000 "
		},
		"gasEstimates": {
			"creation": {
				"codeDepositCost": "1128000",
				"executionCost": "1174",
				"totalCost": "1129174"
			},
			"external": {
				"addMove(address,address)": "infinite",
				"createCryptomon(string,uint32,uint32,uint32,address)": "infinite",
				"createMove(uint32,string)": "infinite"
			}
		},
		"methodIdentifiers": {
			"addMove(address,address)": "2597521a",
			"createCryptomon(string,uint32,uint32,uint32,address)": "0684035f",
			"createMove(uint32,string)": "f728f3e8"
		}
	},
	"abi": [
		{
			"inputs": [
				{
					"internalType": "contract cryptomon",
					"name": "cryptomon_",
					"type": "address"
				},
				{
					"internalType": "contract move",
					"name": "move_",
					"type": "address"
				}
			],
			"name": "addMove",
			"outputs": [],
			"stateMutability": "nonpayable",
			"type": "function"
		},
		{
			"inputs": [
				{
					"internalType": "string",
					"name": "name",
					"type": "string"
				},
				{
					"internalType": "uint32",
					"name": "attack",
					"type": "uint32"
				},
				{
					"internalType": "uint32",
					"name": "defense",
					"type": "uint32"
				},
				{
					"internalType": "uint32",
					"name": "hp",
					"type": "uint32"
				},
				{
					"internalType": "address",
					"name": "owner",
					"type": "address"
				}
			],
			"name": "createCryptomon",
			"outputs": [
				{
					"internalType": "contract cryptomon",
					"name": "c",
					"type": "address"
				}
			],
			"stateMutability": "nonpayable",
			"type": "function"
		},
		{
			"inputs": [
				{
					"internalType": "uint32",
					"name": "damage",
					"type": "uint32"
				},
				{
					"internalType": "string",
					"name": "name",
					"type": "string"
				}
			],
			"name": "createMove",
			"outputs": [
				{
					"internalType": "contract move",
					"name": "m",
					"type": "address"
				}
			],
			"stateMutability": "nonpayable",
			"type": "function"
		}
	]
}