{
    "contractName": "Summation",
    "abi": [
        {
            "inputs": [],
            "name": "sum",
            "outputs": [
                {
                    "internalType": "uint256",
                    "name": "",
                    "type": "uint256"
                }
            ],
            "stateMutability": "view",
            "type": "function"
        }
    ],
    "bytecode": "6101c060405260016080908152600260a052600360c052600460e052600561010052600661012052600761014052600861016052600961018052600a6101a081905261004d91600091610060565b5034801561005a57600080fd5b506100b8565b82600a8101928215610093579160200282015b82811115610093578251829060ff16905591602001919060010190610073565b5061009f9291506100a3565b5090565b5b8082111561009f57600081556001016100a4565b610112806100c76000396000f3fe6080604052348015600f57600080fd5b506004361060285760003560e01c8063853255cc14602d575b600080fd5b60336045565b60405190815260200160405180910390f35b600080805b600a811015607d57600081600a811060625760626083565b0154606c908360af565b91508060768160c4565b915050604a565b50919050565b634e487b7160e01b600052603260045260246000fd5b634e487b7160e01b600052601160045260246000fd5b6000821982111560bf5760bf6099565b500190565b600060001982141560d55760d56099565b506001019056fea2646970667358221220dd4edfad1dd5014ebd51e519f8200a219d8176bc5facf1dc1a4a867a0fa9e4ea64736f6c634300080b0033",
    "sourcePath": "/Users/collinstratton/Google Drive/School/GCU/Fall 2021 - Spring 2022/CST-461/CST-461/Participation/Class_Activity_1-14-2022.sol",
    "compiler": {
        "name": "solc",
        "version": "0.8.11+commit.d7f03943"
    },
    "functionHashes": {
        "sum()": "853255cc"
    },
    "gasEstimates": {
        "creation": {
            "codeDepositCost": "54800",
            "executionCost": "infinite",
            "totalCost": "infinite"
        },
        "external": {
            "sum()": "infinite"
        }
    }
}