{
	"data": {
		"bytecode": {
			"linkReferences": {},
			"object": "608060405234801561001057600080fd5b506112f6806100206000396000f3fe608060405234801561001057600080fd5b50600436106100885760003560e01c80639daf10071161005b5780639daf10071461011f578063b8e8869414610158578063e19892a014610174578063ffce5f811461019057610088565b806325d659ea1461008d5780632bb1a9fb146100ab5780633d450d77146100ca5780634272ee18146100e6575b600080fd5b6100956101c0565b6040516100a29190610eeb565b60405180910390f35b6100b3610298565b6040516100c1929190610f0d565b60405180910390f35b6100e460048036038101906100df9190610c94565b610461565b005b61010060048036038101906100fb9190610c67565b6104ed565b6040516101169a99989796959493929190610f5f565b60405180910390f35b61013960048036038101906101349190610c67565b6105e6565b60405161014f9a99989796959493929190610f5f565b60405180910390f35b610172600480360381019061016d9190610d14565b610828565b005b61018e60048036038101906101899190610cd4565b610986565b005b6101aa60048036038101906101a59190610c67565b6109ff565b6040516101b79190610f44565b60405180910390f35b6060600b60006101d09190610a7c565b60005b600a8054905081101561024157600b600a82815481106101f6576101f561120f565b5b90600052602060002090600a0201600001549080600181540180825580915050600190039060005260206000200160009091909190915055808061023990611168565b9150506101d3565b50600b80548060200260200160405190810160405280929190818152602001828054801561028e57602002820191906000526020600020905b81548152602001906001019080831161027a575b5050505050905090565b606080600b60006102a99190610a7c565b600c60006102b79190610a7c565b60005b600a805490508110156103b65760011515600a82815481106102df576102de61120f565b5b90600052602060002090600a020160060160009054906101000a900460ff16151514156103a357600b600a828154811061031c5761031b61120f565b5b90600052602060002090600a0201600001549080600181540180825580915050600190039060005260206000200160009091909190915055600c600a828154811061036a5761036961120f565b5b90600052602060002090600a02016002015490806001815401808255809150506001900390600052602060002001600090919091909150555b80806103ae90611168565b9150506102ba565b50600b80548060200260200160405190810160405280929190818152602001828054801561040357602002820191906000526020600020905b8154815260200190600101908083116103ef575b50505050509150600c80548060200260200160405190810160405280929190818152602001828054801561045657602002820191906000526020600020905b815481526020019060010190808311610442575b505050505090509091565b60005b600b805490508110156104e85782600b82815481106104865761048561120f565b5b906000526020600020015414156104d55781600a82815481106104ac576104ab61120f565b5b90600052602060002090600a020160060160006101000a81548160ff0219169083151502179055505b80806104e090611168565b915050610464565b505050565b600a81815481106104fd57600080fd5b90600052602060002090600a02016000915090508060000154908060010154908060020154908060030154908060040154908060050154908060060160009054906101000a900460ff169080600701549080600801549080600901805461056390611105565b80601f016020809104026020016040519081016040528092919081815260200182805461058f90611105565b80156105dc5780601f106105b1576101008083540402835291602001916105dc565b820191906000526020600020905b8154815290600101906020018083116105bf57829003601f168201915b505050505090508a565b60008060008060008060008060006060600a8b8154811061060a5761060961120f565b5b90600052602060002090600a0201600001549950600a8b815481106106325761063161120f565b5b90600052602060002090600a0201600101549850600a8b8154811061065a5761065961120f565b5b90600052602060002090600a0201600201549750600a8b815481106106825761068161120f565b5b90600052602060002090600a0201600301549650600a8b815481106106aa576106a961120f565b5b90600052602060002090600a0201600401549550600a8b815481106106d2576106d161120f565b5b90600052602060002090600a0201600501549450600a8b815481106106fa576106f961120f565b5b90600052602060002090600a020160060160009054906101000a900460ff169350600a8b8154811061072f5761072e61120f565b5b90600052602060002090600a0201600701549250600a8b815481106107575761075661120f565b5b90600052602060002090600a0201600801549150600a8b8154811061077f5761077e61120f565b5b90600052602060002090600a0201600901805461079b90611105565b80601f01602080910402602001604051908101604052809291908181526020018280546107c790611105565b80156108145780601f106107e957610100808354040283529160200191610814565b820191906000526020600020905b8154815290600101906020018083116107f757829003601f168201915b505050505090509193959799509193959799565b896000800181905550886000600101819055508760006002018190555086600060030181905550856000600401819055508460006005018190555083600060060160006101000a81548160ff021916908315150217905550826000600701819055508160006008018190555080600060090190805190602001906108ad929190610a9d565b50600a600090806001815401808255809150506001900390600052602060002090600a02016000909190919091506000820154816000015560018201548160010155600282015481600201556003820154816003015560048201548160040155600582015481600501556006820160009054906101000a900460ff168160060160006101000a81548160ff0219169083151502179055506007820154816007015560088201548160080155600982018160090190805461096c90611105565b610977929190610b23565b50505050505050505050505050565b60005b600b805490508110156109fa5782600b82815481106109ab576109aa61120f565b5b906000526020600020015414156109e75781600a82815481106109d1576109d061120f565b5b90600052602060002090600a0201600501819055505b80806109f290611168565b915050610989565b505050565b600080600090505b600b80549050811015610a765782600b8281548110610a2957610a2861120f565b5b90600052602060002001541415610a6357600a8181548110610a4e57610a4d61120f565b5b90600052602060002090600a02016002015491505b8080610a6e90611168565b915050610a07565b50919050565b5080546000825590600052602060002090810190610a9a9190610bb0565b50565b828054610aa990611105565b90600052602060002090601f016020900481019282610acb5760008555610b12565b82601f10610ae457805160ff1916838001178555610b12565b82800160010185558215610b12579182015b82811115610b11578251825591602001919060010190610af6565b5b509050610b1f9190610bb0565b5090565b828054610b2f90611105565b90600052602060002090601f016020900481019282610b515760008555610b9f565b82601f10610b625780548555610b9f565b82800160010185558215610b9f57600052602060002091601f016020900482015b82811115610b9e578254825591600101919060010190610b83565b5b509050610bac9190610bb0565b5090565b5b80821115610bc9576000816000905550600101610bb1565b5090565b6000610be0610bdb84611027565b611002565b905082815260208101848484011115610bfc57610bfb611272565b5b610c078482856110c3565b509392505050565b600081359050610c1e81611292565b92915050565b600082601f830112610c3957610c3861126d565b5b8135610c49848260208601610bcd565b91505092915050565b600081359050610c61816112a9565b92915050565b600060208284031215610c7d57610c7c61127c565b5b6000610c8b84828501610c52565b91505092915050565b60008060408385031215610cab57610caa61127c565b5b6000610cb985828601610c52565b9250506020610cca85828601610c0f565b9150509250929050565b60008060408385031215610ceb57610cea61127c565b5b6000610cf985828601610c52565b9250506020610d0a85828601610c52565b9150509250929050565b6000806000806000806000806000806101408b8d031215610d3857610d3761127c565b5b6000610d468d828e01610c52565b9a50506020610d578d828e01610c52565b9950506040610d688d828e01610c52565b9850506060610d798d828e01610c52565b9750506080610d8a8d828e01610c52565b96505060a0610d9b8d828e01610c52565b95505060c0610dac8d828e01610c0f565b94505060e0610dbd8d828e01610c52565b935050610100610dcf8d828e01610c52565b9250506101208b013567ffffffffffffffff811115610df157610df0611277565b5b610dfd8d828e01610c24565b9150509295989b9194979a5092959850565b6000610e1b8383610ecd565b60208301905092915050565b6000610e3282611068565b610e3c818561108b565b9350610e4783611058565b8060005b83811015610e78578151610e5f8882610e0f565b9750610e6a8361107e565b925050600181019050610e4b565b5085935050505092915050565b610e8e816110ad565b82525050565b6000610e9f82611073565b610ea9818561109c565b9350610eb98185602086016110d2565b610ec281611281565b840191505092915050565b610ed6816110b9565b82525050565b610ee5816110b9565b82525050565b60006020820190508181036000830152610f058184610e27565b905092915050565b60006040820190508181036000830152610f278185610e27565b90508181036020830152610f3b8184610e27565b90509392505050565b6000602082019050610f596000830184610edc565b92915050565b600061014082019050610f75600083018d610edc565b610f82602083018c610edc565b610f8f604083018b610edc565b610f9c606083018a610edc565b610fa96080830189610edc565b610fb660a0830188610edc565b610fc360c0830187610e85565b610fd060e0830186610edc565b610fde610100830185610edc565b818103610120830152610ff18184610e94565b90509b9a5050505050505050505050565b600061100c61101d565b90506110188282611137565b919050565b6000604051905090565b600067ffffffffffffffff8211156110425761104161123e565b5b61104b82611281565b9050602081019050919050565b6000819050602082019050919050565b600081519050919050565b600081519050919050565b6000602082019050919050565b600082825260208201905092915050565b600082825260208201905092915050565b60008115159050919050565b6000819050919050565b82818337600083830152505050565b60005b838110156110f05780820151818401526020810190506110d5565b838111156110ff576000848401525b50505050565b6000600282049050600182168061111d57607f821691505b60208210811415611131576111306111e0565b5b50919050565b61114082611281565b810181811067ffffffffffffffff8211171561115f5761115e61123e565b5b80604052505050565b6000611173826110b9565b91507fffffffffffffffffffffffffffffffffffffffffffffffffffffffffffffffff8214156111a6576111a56111b1565b5b600182019050919050565b7f4e487b7100000000000000000000000000000000000000000000000000000000600052601160045260246000fd5b7f4e487b7100000000000000000000000000000000000000000000000000000000600052602260045260246000fd5b7f4e487b7100000000000000000000000000000000000000000000000000000000600052603260045260246000fd5b7f4e487b7100000000000000000000000000000000000000000000000000000000600052604160045260246000fd5b600080fd5b600080fd5b600080fd5b600080fd5b6000601f19601f8301169050919050565b61129b816110ad565b81146112a657600080fd5b50565b6112b2816110b9565b81146112bd57600080fd5b5056fea264697066735822122044f3df932784ab8d0a947c48a3374ac6ccf9fa09ccc318521734b24dfaffa5f664736f6c63430008060033",
			"opcodes": "PUSH1 0x80 PUSH1 0x40 MSTORE CALLVALUE DUP1 ISZERO PUSH2 0x10 JUMPI PUSH1 0x0 DUP1 REVERT JUMPDEST POP PUSH2 0x12F6 DUP1 PUSH2 0x20 PUSH1 0x0 CODECOPY PUSH1 0x0 RETURN INVALID PUSH1 0x80 PUSH1 0x40 MSTORE CALLVALUE DUP1 ISZERO PUSH2 0x10 JUMPI PUSH1 0x0 DUP1 REVERT JUMPDEST POP PUSH1 0x4 CALLDATASIZE LT PUSH2 0x88 JUMPI PUSH1 0x0 CALLDATALOAD PUSH1 0xE0 SHR DUP1 PUSH4 0x9DAF1007 GT PUSH2 0x5B JUMPI DUP1 PUSH4 0x9DAF1007 EQ PUSH2 0x11F JUMPI DUP1 PUSH4 0xB8E88694 EQ PUSH2 0x158 JUMPI DUP1 PUSH4 0xE19892A0 EQ PUSH2 0x174 JUMPI DUP1 PUSH4 0xFFCE5F81 EQ PUSH2 0x190 JUMPI PUSH2 0x88 JUMP JUMPDEST DUP1 PUSH4 0x25D659EA EQ PUSH2 0x8D JUMPI DUP1 PUSH4 0x2BB1A9FB EQ PUSH2 0xAB JUMPI DUP1 PUSH4 0x3D450D77 EQ PUSH2 0xCA JUMPI DUP1 PUSH4 0x4272EE18 EQ PUSH2 0xE6 JUMPI JUMPDEST PUSH1 0x0 DUP1 REVERT JUMPDEST PUSH2 0x95 PUSH2 0x1C0 JUMP JUMPDEST PUSH1 0x40 MLOAD PUSH2 0xA2 SWAP2 SWAP1 PUSH2 0xEEB JUMP JUMPDEST PUSH1 0x40 MLOAD DUP1 SWAP2 SUB SWAP1 RETURN JUMPDEST PUSH2 0xB3 PUSH2 0x298 JUMP JUMPDEST PUSH1 0x40 MLOAD PUSH2 0xC1 SWAP3 SWAP2 SWAP1 PUSH2 0xF0D JUMP JUMPDEST PUSH1 0x40 MLOAD DUP1 SWAP2 SUB SWAP1 RETURN JUMPDEST PUSH2 0xE4 PUSH1 0x4 DUP1 CALLDATASIZE SUB DUP2 ADD SWAP1 PUSH2 0xDF SWAP2 SWAP1 PUSH2 0xC94 JUMP JUMPDEST PUSH2 0x461 JUMP JUMPDEST STOP JUMPDEST PUSH2 0x100 PUSH1 0x4 DUP1 CALLDATASIZE SUB DUP2 ADD SWAP1 PUSH2 0xFB SWAP2 SWAP1 PUSH2 0xC67 JUMP JUMPDEST PUSH2 0x4ED JUMP JUMPDEST PUSH1 0x40 MLOAD PUSH2 0x116 SWAP11 SWAP10 SWAP9 SWAP8 SWAP7 SWAP6 SWAP5 SWAP4 SWAP3 SWAP2 SWAP1 PUSH2 0xF5F JUMP JUMPDEST PUSH1 0x40 MLOAD DUP1 SWAP2 SUB SWAP1 RETURN JUMPDEST PUSH2 0x139 PUSH1 0x4 DUP1 CALLDATASIZE SUB DUP2 ADD SWAP1 PUSH2 0x134 SWAP2 SWAP1 PUSH2 0xC67 JUMP JUMPDEST PUSH2 0x5E6 JUMP JUMPDEST PUSH1 0x40 MLOAD PUSH2 0x14F SWAP11 SWAP10 SWAP9 SWAP8 SWAP7 SWAP6 SWAP5 SWAP4 SWAP3 SWAP2 SWAP1 PUSH2 0xF5F JUMP JUMPDEST PUSH1 0x40 MLOAD DUP1 SWAP2 SUB SWAP1 RETURN JUMPDEST PUSH2 0x172 PUSH1 0x4 DUP1 CALLDATASIZE SUB DUP2 ADD SWAP1 PUSH2 0x16D SWAP2 SWAP1 PUSH2 0xD14 JUMP JUMPDEST PUSH2 0x828 JUMP JUMPDEST STOP JUMPDEST PUSH2 0x18E PUSH1 0x4 DUP1 CALLDATASIZE SUB DUP2 ADD SWAP1 PUSH2 0x189 SWAP2 SWAP1 PUSH2 0xCD4 JUMP JUMPDEST PUSH2 0x986 JUMP JUMPDEST STOP JUMPDEST PUSH2 0x1AA PUSH1 0x4 DUP1 CALLDATASIZE SUB DUP2 ADD SWAP1 PUSH2 0x1A5 SWAP2 SWAP1 PUSH2 0xC67 JUMP JUMPDEST PUSH2 0x9FF JUMP JUMPDEST PUSH1 0x40 MLOAD PUSH2 0x1B7 SWAP2 SWAP1 PUSH2 0xF44 JUMP JUMPDEST PUSH1 0x40 MLOAD DUP1 SWAP2 SUB SWAP1 RETURN JUMPDEST PUSH1 0x60 PUSH1 0xB PUSH1 0x0 PUSH2 0x1D0 SWAP2 SWAP1 PUSH2 0xA7C JUMP JUMPDEST PUSH1 0x0 JUMPDEST PUSH1 0xA DUP1 SLOAD SWAP1 POP DUP2 LT ISZERO PUSH2 0x241 JUMPI PUSH1 0xB PUSH1 0xA DUP3 DUP2 SLOAD DUP2 LT PUSH2 0x1F6 JUMPI PUSH2 0x1F5 PUSH2 0x120F JUMP JUMPDEST JUMPDEST SWAP1 PUSH1 0x0 MSTORE PUSH1 0x20 PUSH1 0x0 KECCAK256 SWAP1 PUSH1 0xA MUL ADD PUSH1 0x0 ADD SLOAD SWAP1 DUP1 PUSH1 0x1 DUP2 SLOAD ADD DUP1 DUP3 SSTORE DUP1 SWAP2 POP POP PUSH1 0x1 SWAP1 SUB SWAP1 PUSH1 0x0 MSTORE PUSH1 0x20 PUSH1 0x0 KECCAK256 ADD PUSH1 0x0 SWAP1 SWAP2 SWAP1 SWAP2 SWAP1 SWAP2 POP SSTORE DUP1 DUP1 PUSH2 0x239 SWAP1 PUSH2 0x1168 JUMP JUMPDEST SWAP2 POP POP PUSH2 0x1D3 JUMP JUMPDEST POP PUSH1 0xB DUP1 SLOAD DUP1 PUSH1 0x20 MUL PUSH1 0x20 ADD PUSH1 0x40 MLOAD SWAP1 DUP2 ADD PUSH1 0x40 MSTORE DUP1 SWAP3 SWAP2 SWAP1 DUP2 DUP2 MSTORE PUSH1 0x20 ADD DUP3 DUP1 SLOAD DUP1 ISZERO PUSH2 0x28E JUMPI PUSH1 0x20 MUL DUP3 ADD SWAP2 SWAP1 PUSH1 0x0 MSTORE PUSH1 0x20 PUSH1 0x0 KECCAK256 SWAP1 JUMPDEST DUP2 SLOAD DUP2 MSTORE PUSH1 0x20 ADD SWAP1 PUSH1 0x1 ADD SWAP1 DUP1 DUP4 GT PUSH2 0x27A JUMPI JUMPDEST POP POP POP POP POP SWAP1 POP SWAP1 JUMP JUMPDEST PUSH1 0x60 DUP1 PUSH1 0xB PUSH1 0x0 PUSH2 0x2A9 SWAP2 SWAP1 PUSH2 0xA7C JUMP JUMPDEST PUSH1 0xC PUSH1 0x0 PUSH2 0x2B7 SWAP2 SWAP1 PUSH2 0xA7C JUMP JUMPDEST PUSH1 0x0 JUMPDEST PUSH1 0xA DUP1 SLOAD SWAP1 POP DUP2 LT ISZERO PUSH2 0x3B6 JUMPI PUSH1 0x1 ISZERO ISZERO PUSH1 0xA DUP3 DUP2 SLOAD DUP2 LT PUSH2 0x2DF JUMPI PUSH2 0x2DE PUSH2 0x120F JUMP JUMPDEST JUMPDEST SWAP1 PUSH1 0x0 MSTORE PUSH1 0x20 PUSH1 0x0 KECCAK256 SWAP1 PUSH1 0xA MUL ADD PUSH1 0x6 ADD PUSH1 0x0 SWAP1 SLOAD SWAP1 PUSH2 0x100 EXP SWAP1 DIV PUSH1 0xFF AND ISZERO ISZERO EQ ISZERO PUSH2 0x3A3 JUMPI PUSH1 0xB PUSH1 0xA DUP3 DUP2 SLOAD DUP2 LT PUSH2 0x31C JUMPI PUSH2 0x31B PUSH2 0x120F JUMP JUMPDEST JUMPDEST SWAP1 PUSH1 0x0 MSTORE PUSH1 0x20 PUSH1 0x0 KECCAK256 SWAP1 PUSH1 0xA MUL ADD PUSH1 0x0 ADD SLOAD SWAP1 DUP1 PUSH1 0x1 DUP2 SLOAD ADD DUP1 DUP3 SSTORE DUP1 SWAP2 POP POP PUSH1 0x1 SWAP1 SUB SWAP1 PUSH1 0x0 MSTORE PUSH1 0x20 PUSH1 0x0 KECCAK256 ADD PUSH1 0x0 SWAP1 SWAP2 SWAP1 SWAP2 SWAP1 SWAP2 POP SSTORE PUSH1 0xC PUSH1 0xA DUP3 DUP2 SLOAD DUP2 LT PUSH2 0x36A JUMPI PUSH2 0x369 PUSH2 0x120F JUMP JUMPDEST JUMPDEST SWAP1 PUSH1 0x0 MSTORE PUSH1 0x20 PUSH1 0x0 KECCAK256 SWAP1 PUSH1 0xA MUL ADD PUSH1 0x2 ADD SLOAD SWAP1 DUP1 PUSH1 0x1 DUP2 SLOAD ADD DUP1 DUP3 SSTORE DUP1 SWAP2 POP POP PUSH1 0x1 SWAP1 SUB SWAP1 PUSH1 0x0 MSTORE PUSH1 0x20 PUSH1 0x0 KECCAK256 ADD PUSH1 0x0 SWAP1 SWAP2 SWAP1 SWAP2 SWAP1 SWAP2 POP SSTORE JUMPDEST DUP1 DUP1 PUSH2 0x3AE SWAP1 PUSH2 0x1168 JUMP JUMPDEST SWAP2 POP POP PUSH2 0x2BA JUMP JUMPDEST POP PUSH1 0xB DUP1 SLOAD DUP1 PUSH1 0x20 MUL PUSH1 0x20 ADD PUSH1 0x40 MLOAD SWAP1 DUP2 ADD PUSH1 0x40 MSTORE DUP1 SWAP3 SWAP2 SWAP1 DUP2 DUP2 MSTORE PUSH1 0x20 ADD DUP3 DUP1 SLOAD DUP1 ISZERO PUSH2 0x403 JUMPI PUSH1 0x20 MUL DUP3 ADD SWAP2 SWAP1 PUSH1 0x0 MSTORE PUSH1 0x20 PUSH1 0x0 KECCAK256 SWAP1 JUMPDEST DUP2 SLOAD DUP2 MSTORE PUSH1 0x20 ADD SWAP1 PUSH1 0x1 ADD SWAP1 DUP1 DUP4 GT PUSH2 0x3EF JUMPI JUMPDEST POP POP POP POP POP SWAP2 POP PUSH1 0xC DUP1 SLOAD DUP1 PUSH1 0x20 MUL PUSH1 0x20 ADD PUSH1 0x40 MLOAD SWAP1 DUP2 ADD PUSH1 0x40 MSTORE DUP1 SWAP3 SWAP2 SWAP1 DUP2 DUP2 MSTORE PUSH1 0x20 ADD DUP3 DUP1 SLOAD DUP1 ISZERO PUSH2 0x456 JUMPI PUSH1 0x20 MUL DUP3 ADD SWAP2 SWAP1 PUSH1 0x0 MSTORE PUSH1 0x20 PUSH1 0x0 KECCAK256 SWAP1 JUMPDEST DUP2 SLOAD DUP2 MSTORE PUSH1 0x20 ADD SWAP1 PUSH1 0x1 ADD SWAP1 DUP1 DUP4 GT PUSH2 0x442 JUMPI JUMPDEST POP POP POP POP POP SWAP1 POP SWAP1 SWAP2 JUMP JUMPDEST PUSH1 0x0 JUMPDEST PUSH1 0xB DUP1 SLOAD SWAP1 POP DUP2 LT ISZERO PUSH2 0x4E8 JUMPI DUP3 PUSH1 0xB DUP3 DUP2 SLOAD DUP2 LT PUSH2 0x486 JUMPI PUSH2 0x485 PUSH2 0x120F JUMP JUMPDEST JUMPDEST SWAP1 PUSH1 0x0 MSTORE PUSH1 0x20 PUSH1 0x0 KECCAK256 ADD SLOAD EQ ISZERO PUSH2 0x4D5 JUMPI DUP2 PUSH1 0xA DUP3 DUP2 SLOAD DUP2 LT PUSH2 0x4AC JUMPI PUSH2 0x4AB PUSH2 0x120F JUMP JUMPDEST JUMPDEST SWAP1 PUSH1 0x0 MSTORE PUSH1 0x20 PUSH1 0x0 KECCAK256 SWAP1 PUSH1 0xA MUL ADD PUSH1 0x6 ADD PUSH1 0x0 PUSH2 0x100 EXP DUP2 SLOAD DUP2 PUSH1 0xFF MUL NOT AND SWAP1 DUP4 ISZERO ISZERO MUL OR SWAP1 SSTORE POP JUMPDEST DUP1 DUP1 PUSH2 0x4E0 SWAP1 PUSH2 0x1168 JUMP JUMPDEST SWAP2 POP POP PUSH2 0x464 JUMP JUMPDEST POP POP POP JUMP JUMPDEST PUSH1 0xA DUP2 DUP2 SLOAD DUP2 LT PUSH2 0x4FD JUMPI PUSH1 0x0 DUP1 REVERT JUMPDEST SWAP1 PUSH1 0x0 MSTORE PUSH1 0x20 PUSH1 0x0 KECCAK256 SWAP1 PUSH1 0xA MUL ADD PUSH1 0x0 SWAP2 POP SWAP1 POP DUP1 PUSH1 0x0 ADD SLOAD SWAP1 DUP1 PUSH1 0x1 ADD SLOAD SWAP1 DUP1 PUSH1 0x2 ADD SLOAD SWAP1 DUP1 PUSH1 0x3 ADD SLOAD SWAP1 DUP1 PUSH1 0x4 ADD SLOAD SWAP1 DUP1 PUSH1 0x5 ADD SLOAD SWAP1 DUP1 PUSH1 0x6 ADD PUSH1 0x0 SWAP1 SLOAD SWAP1 PUSH2 0x100 EXP SWAP1 DIV PUSH1 0xFF AND SWAP1 DUP1 PUSH1 0x7 ADD SLOAD SWAP1 DUP1 PUSH1 0x8 ADD SLOAD SWAP1 DUP1 PUSH1 0x9 ADD DUP1 SLOAD PUSH2 0x563 SWAP1 PUSH2 0x1105 JUMP JUMPDEST DUP1 PUSH1 0x1F ADD PUSH1 0x20 DUP1 SWAP2 DIV MUL PUSH1 0x20 ADD PUSH1 0x40 MLOAD SWAP1 DUP2 ADD PUSH1 0x40 MSTORE DUP1 SWAP3 SWAP2 SWAP1 DUP2 DUP2 MSTORE PUSH1 0x20 ADD DUP3 DUP1 SLOAD PUSH2 0x58F SWAP1 PUSH2 0x1105 JUMP JUMPDEST DUP1 ISZERO PUSH2 0x5DC JUMPI DUP1 PUSH1 0x1F LT PUSH2 0x5B1 JUMPI PUSH2 0x100 DUP1 DUP4 SLOAD DIV MUL DUP4 MSTORE SWAP2 PUSH1 0x20 ADD SWAP2 PUSH2 0x5DC JUMP JUMPDEST DUP3 ADD SWAP2 SWAP1 PUSH1 0x0 MSTORE PUSH1 0x20 PUSH1 0x0 KECCAK256 SWAP1 JUMPDEST DUP2 SLOAD DUP2 MSTORE SWAP1 PUSH1 0x1 ADD SWAP1 PUSH1 0x20 ADD DUP1 DUP4 GT PUSH2 0x5BF JUMPI DUP3 SWAP1 SUB PUSH1 0x1F AND DUP3 ADD SWAP2 JUMPDEST POP POP POP POP POP SWAP1 POP DUP11 JUMP JUMPDEST PUSH1 0x0 DUP1 PUSH1 0x0 DUP1 PUSH1 0x0 DUP1 PUSH1 0x0 DUP1 PUSH1 0x0 PUSH1 0x60 PUSH1 0xA DUP12 DUP2 SLOAD DUP2 LT PUSH2 0x60A JUMPI PUSH2 0x609 PUSH2 0x120F JUMP JUMPDEST JUMPDEST SWAP1 PUSH1 0x0 MSTORE PUSH1 0x20 PUSH1 0x0 KECCAK256 SWAP1 PUSH1 0xA MUL ADD PUSH1 0x0 ADD SLOAD SWAP10 POP PUSH1 0xA DUP12 DUP2 SLOAD DUP2 LT PUSH2 0x632 JUMPI PUSH2 0x631 PUSH2 0x120F JUMP JUMPDEST JUMPDEST SWAP1 PUSH1 0x0 MSTORE PUSH1 0x20 PUSH1 0x0 KECCAK256 SWAP1 PUSH1 0xA MUL ADD PUSH1 0x1 ADD SLOAD SWAP9 POP PUSH1 0xA DUP12 DUP2 SLOAD DUP2 LT PUSH2 0x65A JUMPI PUSH2 0x659 PUSH2 0x120F JUMP JUMPDEST JUMPDEST SWAP1 PUSH1 0x0 MSTORE PUSH1 0x20 PUSH1 0x0 KECCAK256 SWAP1 PUSH1 0xA MUL ADD PUSH1 0x2 ADD SLOAD SWAP8 POP PUSH1 0xA DUP12 DUP2 SLOAD DUP2 LT PUSH2 0x682 JUMPI PUSH2 0x681 PUSH2 0x120F JUMP JUMPDEST JUMPDEST SWAP1 PUSH1 0x0 MSTORE PUSH1 0x20 PUSH1 0x0 KECCAK256 SWAP1 PUSH1 0xA MUL ADD PUSH1 0x3 ADD SLOAD SWAP7 POP PUSH1 0xA DUP12 DUP2 SLOAD DUP2 LT PUSH2 0x6AA JUMPI PUSH2 0x6A9 PUSH2 0x120F JUMP JUMPDEST JUMPDEST SWAP1 PUSH1 0x0 MSTORE PUSH1 0x20 PUSH1 0x0 KECCAK256 SWAP1 PUSH1 0xA MUL ADD PUSH1 0x4 ADD SLOAD SWAP6 POP PUSH1 0xA DUP12 DUP2 SLOAD DUP2 LT PUSH2 0x6D2 JUMPI PUSH2 0x6D1 PUSH2 0x120F JUMP JUMPDEST JUMPDEST SWAP1 PUSH1 0x0 MSTORE PUSH1 0x20 PUSH1 0x0 KECCAK256 SWAP1 PUSH1 0xA MUL ADD PUSH1 0x5 ADD SLOAD SWAP5 POP PUSH1 0xA DUP12 DUP2 SLOAD DUP2 LT PUSH2 0x6FA JUMPI PUSH2 0x6F9 PUSH2 0x120F JUMP JUMPDEST JUMPDEST SWAP1 PUSH1 0x0 MSTORE PUSH1 0x20 PUSH1 0x0 KECCAK256 SWAP1 PUSH1 0xA MUL ADD PUSH1 0x6 ADD PUSH1 0x0 SWAP1 SLOAD SWAP1 PUSH2 0x100 EXP SWAP1 DIV PUSH1 0xFF AND SWAP4 POP PUSH1 0xA DUP12 DUP2 SLOAD DUP2 LT PUSH2 0x72F JUMPI PUSH2 0x72E PUSH2 0x120F JUMP JUMPDEST JUMPDEST SWAP1 PUSH1 0x0 MSTORE PUSH1 0x20 PUSH1 0x0 KECCAK256 SWAP1 PUSH1 0xA MUL ADD PUSH1 0x7 ADD SLOAD SWAP3 POP PUSH1 0xA DUP12 DUP2 SLOAD DUP2 LT PUSH2 0x757 JUMPI PUSH2 0x756 PUSH2 0x120F JUMP JUMPDEST JUMPDEST SWAP1 PUSH1 0x0 MSTORE PUSH1 0x20 PUSH1 0x0 KECCAK256 SWAP1 PUSH1 0xA MUL ADD PUSH1 0x8 ADD SLOAD SWAP2 POP PUSH1 0xA DUP12 DUP2 SLOAD DUP2 LT PUSH2 0x77F JUMPI PUSH2 0x77E PUSH2 0x120F JUMP JUMPDEST JUMPDEST SWAP1 PUSH1 0x0 MSTORE PUSH1 0x20 PUSH1 0x0 KECCAK256 SWAP1 PUSH1 0xA MUL ADD PUSH1 0x9 ADD DUP1 SLOAD PUSH2 0x79B SWAP1 PUSH2 0x1105 JUMP JUMPDEST DUP1 PUSH1 0x1F ADD PUSH1 0x20 DUP1 SWAP2 DIV MUL PUSH1 0x20 ADD PUSH1 0x40 MLOAD SWAP1 DUP2 ADD PUSH1 0x40 MSTORE DUP1 SWAP3 SWAP2 SWAP1 DUP2 DUP2 MSTORE PUSH1 0x20 ADD DUP3 DUP1 SLOAD PUSH2 0x7C7 SWAP1 PUSH2 0x1105 JUMP JUMPDEST DUP1 ISZERO PUSH2 0x814 JUMPI DUP1 PUSH1 0x1F LT PUSH2 0x7E9 JUMPI PUSH2 0x100 DUP1 DUP4 SLOAD DIV MUL DUP4 MSTORE SWAP2 PUSH1 0x20 ADD SWAP2 PUSH2 0x814 JUMP JUMPDEST DUP3 ADD SWAP2 SWAP1 PUSH1 0x0 MSTORE PUSH1 0x20 PUSH1 0x0 KECCAK256 SWAP1 JUMPDEST DUP2 SLOAD DUP2 MSTORE SWAP1 PUSH1 0x1 ADD SWAP1 PUSH1 0x20 ADD DUP1 DUP4 GT PUSH2 0x7F7 JUMPI DUP3 SWAP1 SUB PUSH1 0x1F AND DUP3 ADD SWAP2 JUMPDEST POP POP POP POP POP SWAP1 POP SWAP2 SWAP4 SWAP6 SWAP8 SWAP10 POP SWAP2 SWAP4 SWAP6 SWAP8 SWAP10 JUMP JUMPDEST DUP10 PUSH1 0x0 DUP1 ADD DUP2 SWAP1 SSTORE POP DUP9 PUSH1 0x0 PUSH1 0x1 ADD DUP2 SWAP1 SSTORE POP DUP8 PUSH1 0x0 PUSH1 0x2 ADD DUP2 SWAP1 SSTORE POP DUP7 PUSH1 0x0 PUSH1 0x3 ADD DUP2 SWAP1 SSTORE POP DUP6 PUSH1 0x0 PUSH1 0x4 ADD DUP2 SWAP1 SSTORE POP DUP5 PUSH1 0x0 PUSH1 0x5 ADD DUP2 SWAP1 SSTORE POP DUP4 PUSH1 0x0 PUSH1 0x6 ADD PUSH1 0x0 PUSH2 0x100 EXP DUP2 SLOAD DUP2 PUSH1 0xFF MUL NOT AND SWAP1 DUP4 ISZERO ISZERO MUL OR SWAP1 SSTORE POP DUP3 PUSH1 0x0 PUSH1 0x7 ADD DUP2 SWAP1 SSTORE POP DUP2 PUSH1 0x0 PUSH1 0x8 ADD DUP2 SWAP1 SSTORE POP DUP1 PUSH1 0x0 PUSH1 0x9 ADD SWAP1 DUP1 MLOAD SWAP1 PUSH1 0x20 ADD SWAP1 PUSH2 0x8AD SWAP3 SWAP2 SWAP1 PUSH2 0xA9D JUMP JUMPDEST POP PUSH1 0xA PUSH1 0x0 SWAP1 DUP1 PUSH1 0x1 DUP2 SLOAD ADD DUP1 DUP3 SSTORE DUP1 SWAP2 POP POP PUSH1 0x1 SWAP1 SUB SWAP1 PUSH1 0x0 MSTORE PUSH1 0x20 PUSH1 0x0 KECCAK256 SWAP1 PUSH1 0xA MUL ADD PUSH1 0x0 SWAP1 SWAP2 SWAP1 SWAP2 SWAP1 SWAP2 POP PUSH1 0x0 DUP3 ADD SLOAD DUP2 PUSH1 0x0 ADD SSTORE PUSH1 0x1 DUP3 ADD SLOAD DUP2 PUSH1 0x1 ADD SSTORE PUSH1 0x2 DUP3 ADD SLOAD DUP2 PUSH1 0x2 ADD SSTORE PUSH1 0x3 DUP3 ADD SLOAD DUP2 PUSH1 0x3 ADD SSTORE PUSH1 0x4 DUP3 ADD SLOAD DUP2 PUSH1 0x4 ADD SSTORE PUSH1 0x5 DUP3 ADD SLOAD DUP2 PUSH1 0x5 ADD SSTORE PUSH1 0x6 DUP3 ADD PUSH1 0x0 SWAP1 SLOAD SWAP1 PUSH2 0x100 EXP SWAP1 DIV PUSH1 0xFF AND DUP2 PUSH1 0x6 ADD PUSH1 0x0 PUSH2 0x100 EXP DUP2 SLOAD DUP2 PUSH1 0xFF MUL NOT AND SWAP1 DUP4 ISZERO ISZERO MUL OR SWAP1 SSTORE POP PUSH1 0x7 DUP3 ADD SLOAD DUP2 PUSH1 0x7 ADD SSTORE PUSH1 0x8 DUP3 ADD SLOAD DUP2 PUSH1 0x8 ADD SSTORE PUSH1 0x9 DUP3 ADD DUP2 PUSH1 0x9 ADD SWAP1 DUP1 SLOAD PUSH2 0x96C SWAP1 PUSH2 0x1105 JUMP JUMPDEST PUSH2 0x977 SWAP3 SWAP2 SWAP1 PUSH2 0xB23 JUMP JUMPDEST POP POP POP POP POP POP POP POP POP POP POP POP POP JUMP JUMPDEST PUSH1 0x0 JUMPDEST PUSH1 0xB DUP1 SLOAD SWAP1 POP DUP2 LT ISZERO PUSH2 0x9FA JUMPI DUP3 PUSH1 0xB DUP3 DUP2 SLOAD DUP2 LT PUSH2 0x9AB JUMPI PUSH2 0x9AA PUSH2 0x120F JUMP JUMPDEST JUMPDEST SWAP1 PUSH1 0x0 MSTORE PUSH1 0x20 PUSH1 0x0 KECCAK256 ADD SLOAD EQ ISZERO PUSH2 0x9E7 JUMPI DUP2 PUSH1 0xA DUP3 DUP2 SLOAD DUP2 LT PUSH2 0x9D1 JUMPI PUSH2 0x9D0 PUSH2 0x120F JUMP JUMPDEST JUMPDEST SWAP1 PUSH1 0x0 MSTORE PUSH1 0x20 PUSH1 0x0 KECCAK256 SWAP1 PUSH1 0xA MUL ADD PUSH1 0x5 ADD DUP2 SWAP1 SSTORE POP JUMPDEST DUP1 DUP1 PUSH2 0x9F2 SWAP1 PUSH2 0x1168 JUMP JUMPDEST SWAP2 POP POP PUSH2 0x989 JUMP JUMPDEST POP POP POP JUMP JUMPDEST PUSH1 0x0 DUP1 PUSH1 0x0 SWAP1 POP JUMPDEST PUSH1 0xB DUP1 SLOAD SWAP1 POP DUP2 LT ISZERO PUSH2 0xA76 JUMPI DUP3 PUSH1 0xB DUP3 DUP2 SLOAD DUP2 LT PUSH2 0xA29 JUMPI PUSH2 0xA28 PUSH2 0x120F JUMP JUMPDEST JUMPDEST SWAP1 PUSH1 0x0 MSTORE PUSH1 0x20 PUSH1 0x0 KECCAK256 ADD SLOAD EQ ISZERO PUSH2 0xA63 JUMPI PUSH1 0xA DUP2 DUP2 SLOAD DUP2 LT PUSH2 0xA4E JUMPI PUSH2 0xA4D PUSH2 0x120F JUMP JUMPDEST JUMPDEST SWAP1 PUSH1 0x0 MSTORE PUSH1 0x20 PUSH1 0x0 KECCAK256 SWAP1 PUSH1 0xA MUL ADD PUSH1 0x2 ADD SLOAD SWAP2 POP JUMPDEST DUP1 DUP1 PUSH2 0xA6E SWAP1 PUSH2 0x1168 JUMP JUMPDEST SWAP2 POP POP PUSH2 0xA07 JUMP JUMPDEST POP SWAP2 SWAP1 POP JUMP JUMPDEST POP DUP1 SLOAD PUSH1 0x0 DUP3 SSTORE SWAP1 PUSH1 0x0 MSTORE PUSH1 0x20 PUSH1 0x0 KECCAK256 SWAP1 DUP2 ADD SWAP1 PUSH2 0xA9A SWAP2 SWAP1 PUSH2 0xBB0 JUMP JUMPDEST POP JUMP JUMPDEST DUP3 DUP1 SLOAD PUSH2 0xAA9 SWAP1 PUSH2 0x1105 JUMP JUMPDEST SWAP1 PUSH1 0x0 MSTORE PUSH1 0x20 PUSH1 0x0 KECCAK256 SWAP1 PUSH1 0x1F ADD PUSH1 0x20 SWAP1 DIV DUP2 ADD SWAP3 DUP3 PUSH2 0xACB JUMPI PUSH1 0x0 DUP6 SSTORE PUSH2 0xB12 JUMP JUMPDEST DUP3 PUSH1 0x1F LT PUSH2 0xAE4 JUMPI DUP1 MLOAD PUSH1 0xFF NOT AND DUP4 DUP1 ADD OR DUP6 SSTORE PUSH2 0xB12 JUMP JUMPDEST DUP3 DUP1 ADD PUSH1 0x1 ADD DUP6 SSTORE DUP3 ISZERO PUSH2 0xB12 JUMPI SWAP2 DUP3 ADD JUMPDEST DUP3 DUP2 GT ISZERO PUSH2 0xB11 JUMPI DUP3 MLOAD DUP3 SSTORE SWAP2 PUSH1 0x20 ADD SWAP2 SWAP1 PUSH1 0x1 ADD SWAP1 PUSH2 0xAF6 JUMP JUMPDEST JUMPDEST POP SWAP1 POP PUSH2 0xB1F SWAP2 SWAP1 PUSH2 0xBB0 JUMP JUMPDEST POP SWAP1 JUMP JUMPDEST DUP3 DUP1 SLOAD PUSH2 0xB2F SWAP1 PUSH2 0x1105 JUMP JUMPDEST SWAP1 PUSH1 0x0 MSTORE PUSH1 0x20 PUSH1 0x0 KECCAK256 SWAP1 PUSH1 0x1F ADD PUSH1 0x20 SWAP1 DIV DUP2 ADD SWAP3 DUP3 PUSH2 0xB51 JUMPI PUSH1 0x0 DUP6 SSTORE PUSH2 0xB9F JUMP JUMPDEST DUP3 PUSH1 0x1F LT PUSH2 0xB62 JUMPI DUP1 SLOAD DUP6 SSTORE PUSH2 0xB9F JUMP JUMPDEST DUP3 DUP1 ADD PUSH1 0x1 ADD DUP6 SSTORE DUP3 ISZERO PUSH2 0xB9F JUMPI PUSH1 0x0 MSTORE PUSH1 0x20 PUSH1 0x0 KECCAK256 SWAP2 PUSH1 0x1F ADD PUSH1 0x20 SWAP1 DIV DUP3 ADD JUMPDEST DUP3 DUP2 GT ISZERO PUSH2 0xB9E JUMPI DUP3 SLOAD DUP3 SSTORE SWAP2 PUSH1 0x1 ADD SWAP2 SWAP1 PUSH1 0x1 ADD SWAP1 PUSH2 0xB83 JUMP JUMPDEST JUMPDEST POP SWAP1 POP PUSH2 0xBAC SWAP2 SWAP1 PUSH2 0xBB0 JUMP JUMPDEST POP SWAP1 JUMP JUMPDEST JUMPDEST DUP1 DUP3 GT ISZERO PUSH2 0xBC9 JUMPI PUSH1 0x0 DUP2 PUSH1 0x0 SWAP1 SSTORE POP PUSH1 0x1 ADD PUSH2 0xBB1 JUMP JUMPDEST POP SWAP1 JUMP JUMPDEST PUSH1 0x0 PUSH2 0xBE0 PUSH2 0xBDB DUP5 PUSH2 0x1027 JUMP JUMPDEST PUSH2 0x1002 JUMP JUMPDEST SWAP1 POP DUP3 DUP2 MSTORE PUSH1 0x20 DUP2 ADD DUP5 DUP5 DUP5 ADD GT ISZERO PUSH2 0xBFC JUMPI PUSH2 0xBFB PUSH2 0x1272 JUMP JUMPDEST JUMPDEST PUSH2 0xC07 DUP5 DUP3 DUP6 PUSH2 0x10C3 JUMP JUMPDEST POP SWAP4 SWAP3 POP POP POP JUMP JUMPDEST PUSH1 0x0 DUP2 CALLDATALOAD SWAP1 POP PUSH2 0xC1E DUP2 PUSH2 0x1292 JUMP JUMPDEST SWAP3 SWAP2 POP POP JUMP JUMPDEST PUSH1 0x0 DUP3 PUSH1 0x1F DUP4 ADD SLT PUSH2 0xC39 JUMPI PUSH2 0xC38 PUSH2 0x126D JUMP JUMPDEST JUMPDEST DUP2 CALLDATALOAD PUSH2 0xC49 DUP5 DUP3 PUSH1 0x20 DUP7 ADD PUSH2 0xBCD JUMP JUMPDEST SWAP2 POP POP SWAP3 SWAP2 POP POP JUMP JUMPDEST PUSH1 0x0 DUP2 CALLDATALOAD SWAP1 POP PUSH2 0xC61 DUP2 PUSH2 0x12A9 JUMP JUMPDEST SWAP3 SWAP2 POP POP JUMP JUMPDEST PUSH1 0x0 PUSH1 0x20 DUP3 DUP5 SUB SLT ISZERO PUSH2 0xC7D JUMPI PUSH2 0xC7C PUSH2 0x127C JUMP JUMPDEST JUMPDEST PUSH1 0x0 PUSH2 0xC8B DUP5 DUP3 DUP6 ADD PUSH2 0xC52 JUMP JUMPDEST SWAP2 POP POP SWAP3 SWAP2 POP POP JUMP JUMPDEST PUSH1 0x0 DUP1 PUSH1 0x40 DUP4 DUP6 SUB SLT ISZERO PUSH2 0xCAB JUMPI PUSH2 0xCAA PUSH2 0x127C JUMP JUMPDEST JUMPDEST PUSH1 0x0 PUSH2 0xCB9 DUP6 DUP3 DUP7 ADD PUSH2 0xC52 JUMP JUMPDEST SWAP3 POP POP PUSH1 0x20 PUSH2 0xCCA DUP6 DUP3 DUP7 ADD PUSH2 0xC0F JUMP JUMPDEST SWAP2 POP POP SWAP3 POP SWAP3 SWAP1 POP JUMP JUMPDEST PUSH1 0x0 DUP1 PUSH1 0x40 DUP4 DUP6 SUB SLT ISZERO PUSH2 0xCEB JUMPI PUSH2 0xCEA PUSH2 0x127C JUMP JUMPDEST JUMPDEST PUSH1 0x0 PUSH2 0xCF9 DUP6 DUP3 DUP7 ADD PUSH2 0xC52 JUMP JUMPDEST SWAP3 POP POP PUSH1 0x20 PUSH2 0xD0A DUP6 DUP3 DUP7 ADD PUSH2 0xC52 JUMP JUMPDEST SWAP2 POP POP SWAP3 POP SWAP3 SWAP1 POP JUMP JUMPDEST PUSH1 0x0 DUP1 PUSH1 0x0 DUP1 PUSH1 0x0 DUP1 PUSH1 0x0 DUP1 PUSH1 0x0 DUP1 PUSH2 0x140 DUP12 DUP14 SUB SLT ISZERO PUSH2 0xD38 JUMPI PUSH2 0xD37 PUSH2 0x127C JUMP JUMPDEST JUMPDEST PUSH1 0x0 PUSH2 0xD46 DUP14 DUP3 DUP15 ADD PUSH2 0xC52 JUMP JUMPDEST SWAP11 POP POP PUSH1 0x20 PUSH2 0xD57 DUP14 DUP3 DUP15 ADD PUSH2 0xC52 JUMP JUMPDEST SWAP10 POP POP PUSH1 0x40 PUSH2 0xD68 DUP14 DUP3 DUP15 ADD PUSH2 0xC52 JUMP JUMPDEST SWAP9 POP POP PUSH1 0x60 PUSH2 0xD79 DUP14 DUP3 DUP15 ADD PUSH2 0xC52 JUMP JUMPDEST SWAP8 POP POP PUSH1 0x80 PUSH2 0xD8A DUP14 DUP3 DUP15 ADD PUSH2 0xC52 JUMP JUMPDEST SWAP7 POP POP PUSH1 0xA0 PUSH2 0xD9B DUP14 DUP3 DUP15 ADD PUSH2 0xC52 JUMP JUMPDEST SWAP6 POP POP PUSH1 0xC0 PUSH2 0xDAC DUP14 DUP3 DUP15 ADD PUSH2 0xC0F JUMP JUMPDEST SWAP5 POP POP PUSH1 0xE0 PUSH2 0xDBD DUP14 DUP3 DUP15 ADD PUSH2 0xC52 JUMP JUMPDEST SWAP4 POP POP PUSH2 0x100 PUSH2 0xDCF DUP14 DUP3 DUP15 ADD PUSH2 0xC52 JUMP JUMPDEST SWAP3 POP POP PUSH2 0x120 DUP12 ADD CALLDATALOAD PUSH8 0xFFFFFFFFFFFFFFFF DUP2 GT ISZERO PUSH2 0xDF1 JUMPI PUSH2 0xDF0 PUSH2 0x1277 JUMP JUMPDEST JUMPDEST PUSH2 0xDFD DUP14 DUP3 DUP15 ADD PUSH2 0xC24 JUMP JUMPDEST SWAP2 POP POP SWAP3 SWAP6 SWAP9 SWAP12 SWAP2 SWAP5 SWAP8 SWAP11 POP SWAP3 SWAP6 SWAP9 POP JUMP JUMPDEST PUSH1 0x0 PUSH2 0xE1B DUP4 DUP4 PUSH2 0xECD JUMP JUMPDEST PUSH1 0x20 DUP4 ADD SWAP1 POP SWAP3 SWAP2 POP POP JUMP JUMPDEST PUSH1 0x0 PUSH2 0xE32 DUP3 PUSH2 0x1068 JUMP JUMPDEST PUSH2 0xE3C DUP2 DUP6 PUSH2 0x108B JUMP JUMPDEST SWAP4 POP PUSH2 0xE47 DUP4 PUSH2 0x1058 JUMP JUMPDEST DUP1 PUSH1 0x0 JUMPDEST DUP4 DUP2 LT ISZERO PUSH2 0xE78 JUMPI DUP2 MLOAD PUSH2 0xE5F DUP9 DUP3 PUSH2 0xE0F JUMP JUMPDEST SWAP8 POP PUSH2 0xE6A DUP4 PUSH2 0x107E JUMP JUMPDEST SWAP3 POP POP PUSH1 0x1 DUP2 ADD SWAP1 POP PUSH2 0xE4B JUMP JUMPDEST POP DUP6 SWAP4 POP POP POP POP SWAP3 SWAP2 POP POP JUMP JUMPDEST PUSH2 0xE8E DUP2 PUSH2 0x10AD JUMP JUMPDEST DUP3 MSTORE POP POP JUMP JUMPDEST PUSH1 0x0 PUSH2 0xE9F DUP3 PUSH2 0x1073 JUMP JUMPDEST PUSH2 0xEA9 DUP2 DUP6 PUSH2 0x109C JUMP JUMPDEST SWAP4 POP PUSH2 0xEB9 DUP2 DUP6 PUSH1 0x20 DUP7 ADD PUSH2 0x10D2 JUMP JUMPDEST PUSH2 0xEC2 DUP2 PUSH2 0x1281 JUMP JUMPDEST DUP5 ADD SWAP2 POP POP SWAP3 SWAP2 POP POP JUMP JUMPDEST PUSH2 0xED6 DUP2 PUSH2 0x10B9 JUMP JUMPDEST DUP3 MSTORE POP POP JUMP JUMPDEST PUSH2 0xEE5 DUP2 PUSH2 0x10B9 JUMP JUMPDEST DUP3 MSTORE POP POP JUMP JUMPDEST PUSH1 0x0 PUSH1 0x20 DUP3 ADD SWAP1 POP DUP2 DUP2 SUB PUSH1 0x0 DUP4 ADD MSTORE PUSH2 0xF05 DUP2 DUP5 PUSH2 0xE27 JUMP JUMPDEST SWAP1 POP SWAP3 SWAP2 POP POP JUMP JUMPDEST PUSH1 0x0 PUSH1 0x40 DUP3 ADD SWAP1 POP DUP2 DUP2 SUB PUSH1 0x0 DUP4 ADD MSTORE PUSH2 0xF27 DUP2 DUP6 PUSH2 0xE27 JUMP JUMPDEST SWAP1 POP DUP2 DUP2 SUB PUSH1 0x20 DUP4 ADD MSTORE PUSH2 0xF3B DUP2 DUP5 PUSH2 0xE27 JUMP JUMPDEST SWAP1 POP SWAP4 SWAP3 POP POP POP JUMP JUMPDEST PUSH1 0x0 PUSH1 0x20 DUP3 ADD SWAP1 POP PUSH2 0xF59 PUSH1 0x0 DUP4 ADD DUP5 PUSH2 0xEDC JUMP JUMPDEST SWAP3 SWAP2 POP POP JUMP JUMPDEST PUSH1 0x0 PUSH2 0x140 DUP3 ADD SWAP1 POP PUSH2 0xF75 PUSH1 0x0 DUP4 ADD DUP14 PUSH2 0xEDC JUMP JUMPDEST PUSH2 0xF82 PUSH1 0x20 DUP4 ADD DUP13 PUSH2 0xEDC JUMP JUMPDEST PUSH2 0xF8F PUSH1 0x40 DUP4 ADD DUP12 PUSH2 0xEDC JUMP JUMPDEST PUSH2 0xF9C PUSH1 0x60 DUP4 ADD DUP11 PUSH2 0xEDC JUMP JUMPDEST PUSH2 0xFA9 PUSH1 0x80 DUP4 ADD DUP10 PUSH2 0xEDC JUMP JUMPDEST PUSH2 0xFB6 PUSH1 0xA0 DUP4 ADD DUP9 PUSH2 0xEDC JUMP JUMPDEST PUSH2 0xFC3 PUSH1 0xC0 DUP4 ADD DUP8 PUSH2 0xE85 JUMP JUMPDEST PUSH2 0xFD0 PUSH1 0xE0 DUP4 ADD DUP7 PUSH2 0xEDC JUMP JUMPDEST PUSH2 0xFDE PUSH2 0x100 DUP4 ADD DUP6 PUSH2 0xEDC JUMP JUMPDEST DUP2 DUP2 SUB PUSH2 0x120 DUP4 ADD MSTORE PUSH2 0xFF1 DUP2 DUP5 PUSH2 0xE94 JUMP JUMPDEST SWAP1 POP SWAP12 SWAP11 POP POP POP POP POP POP POP POP POP POP POP JUMP JUMPDEST PUSH1 0x0 PUSH2 0x100C PUSH2 0x101D JUMP JUMPDEST SWAP1 POP PUSH2 0x1018 DUP3 DUP3 PUSH2 0x1137 JUMP JUMPDEST SWAP2 SWAP1 POP JUMP JUMPDEST PUSH1 0x0 PUSH1 0x40 MLOAD SWAP1 POP SWAP1 JUMP JUMPDEST PUSH1 0x0 PUSH8 0xFFFFFFFFFFFFFFFF DUP3 GT ISZERO PUSH2 0x1042 JUMPI PUSH2 0x1041 PUSH2 0x123E JUMP JUMPDEST JUMPDEST PUSH2 0x104B DUP3 PUSH2 0x1281 JUMP JUMPDEST SWAP1 POP PUSH1 0x20 DUP2 ADD SWAP1 POP SWAP2 SWAP1 POP JUMP JUMPDEST PUSH1 0x0 DUP2 SWAP1 POP PUSH1 0x20 DUP3 ADD SWAP1 POP SWAP2 SWAP1 POP JUMP JUMPDEST PUSH1 0x0 DUP2 MLOAD SWAP1 POP SWAP2 SWAP1 POP JUMP JUMPDEST PUSH1 0x0 DUP2 MLOAD SWAP1 POP SWAP2 SWAP1 POP JUMP JUMPDEST PUSH1 0x0 PUSH1 0x20 DUP3 ADD SWAP1 POP SWAP2 SWAP1 POP JUMP JUMPDEST PUSH1 0x0 DUP3 DUP3 MSTORE PUSH1 0x20 DUP3 ADD SWAP1 POP SWAP3 SWAP2 POP POP JUMP JUMPDEST PUSH1 0x0 DUP3 DUP3 MSTORE PUSH1 0x20 DUP3 ADD SWAP1 POP SWAP3 SWAP2 POP POP JUMP JUMPDEST PUSH1 0x0 DUP2 ISZERO ISZERO SWAP1 POP SWAP2 SWAP1 POP JUMP JUMPDEST PUSH1 0x0 DUP2 SWAP1 POP SWAP2 SWAP1 POP JUMP JUMPDEST DUP3 DUP2 DUP4 CALLDATACOPY PUSH1 0x0 DUP4 DUP4 ADD MSTORE POP POP POP JUMP JUMPDEST PUSH1 0x0 JUMPDEST DUP4 DUP2 LT ISZERO PUSH2 0x10F0 JUMPI DUP1 DUP3 ADD MLOAD DUP2 DUP5 ADD MSTORE PUSH1 0x20 DUP2 ADD SWAP1 POP PUSH2 0x10D5 JUMP JUMPDEST DUP4 DUP2 GT ISZERO PUSH2 0x10FF JUMPI PUSH1 0x0 DUP5 DUP5 ADD MSTORE JUMPDEST POP POP POP POP JUMP JUMPDEST PUSH1 0x0 PUSH1 0x2 DUP3 DIV SWAP1 POP PUSH1 0x1 DUP3 AND DUP1 PUSH2 0x111D JUMPI PUSH1 0x7F DUP3 AND SWAP2 POP JUMPDEST PUSH1 0x20 DUP3 LT DUP2 EQ ISZERO PUSH2 0x1131 JUMPI PUSH2 0x1130 PUSH2 0x11E0 JUMP JUMPDEST JUMPDEST POP SWAP2 SWAP1 POP JUMP JUMPDEST PUSH2 0x1140 DUP3 PUSH2 0x1281 JUMP JUMPDEST DUP2 ADD DUP2 DUP2 LT PUSH8 0xFFFFFFFFFFFFFFFF DUP3 GT OR ISZERO PUSH2 0x115F JUMPI PUSH2 0x115E PUSH2 0x123E JUMP JUMPDEST JUMPDEST DUP1 PUSH1 0x40 MSTORE POP POP POP JUMP JUMPDEST PUSH1 0x0 PUSH2 0x1173 DUP3 PUSH2 0x10B9 JUMP JUMPDEST SWAP2 POP PUSH32 0xFFFFFFFFFFFFFFFFFFFFFFFFFFFFFFFFFFFFFFFFFFFFFFFFFFFFFFFFFFFFFFFF DUP3 EQ ISZERO PUSH2 0x11A6 JUMPI PUSH2 0x11A5 PUSH2 0x11B1 JUMP JUMPDEST JUMPDEST PUSH1 0x1 DUP3 ADD SWAP1 POP SWAP2 SWAP1 POP JUMP JUMPDEST PUSH32 0x4E487B7100000000000000000000000000000000000000000000000000000000 PUSH1 0x0 MSTORE PUSH1 0x11 PUSH1 0x4 MSTORE PUSH1 0x24 PUSH1 0x0 REVERT JUMPDEST PUSH32 0x4E487B7100000000000000000000000000000000000000000000000000000000 PUSH1 0x0 MSTORE PUSH1 0x22 PUSH1 0x4 MSTORE PUSH1 0x24 PUSH1 0x0 REVERT JUMPDEST PUSH32 0x4E487B7100000000000000000000000000000000000000000000000000000000 PUSH1 0x0 MSTORE PUSH1 0x32 PUSH1 0x4 MSTORE PUSH1 0x24 PUSH1 0x0 REVERT JUMPDEST PUSH32 0x4E487B7100000000000000000000000000000000000000000000000000000000 PUSH1 0x0 MSTORE PUSH1 0x41 PUSH1 0x4 MSTORE PUSH1 0x24 PUSH1 0x0 REVERT JUMPDEST PUSH1 0x0 DUP1 REVERT JUMPDEST PUSH1 0x0 DUP1 REVERT JUMPDEST PUSH1 0x0 DUP1 REVERT JUMPDEST PUSH1 0x0 DUP1 REVERT JUMPDEST PUSH1 0x0 PUSH1 0x1F NOT PUSH1 0x1F DUP4 ADD AND SWAP1 POP SWAP2 SWAP1 POP JUMP JUMPDEST PUSH2 0x129B DUP2 PUSH2 0x10AD JUMP JUMPDEST DUP2 EQ PUSH2 0x12A6 JUMPI PUSH1 0x0 DUP1 REVERT JUMPDEST POP JUMP JUMPDEST PUSH2 0x12B2 DUP2 PUSH2 0x10B9 JUMP JUMPDEST DUP2 EQ PUSH2 0x12BD JUMPI PUSH1 0x0 DUP1 REVERT JUMPDEST POP JUMP INVALID LOG2 PUSH5 0x6970667358 0x22 SLT KECCAK256 DIFFICULTY RETURN 0xDF SWAP4 0x27 DUP5 0xAB DUP14 EXP SWAP5 PUSH29 0x48A3374AC6CCF9FA09CCC318521734B24DFAFFA5F664736F6C63430008 MOD STOP CALLER "
		},
		"gasEstimates": {
			"creation": {
				"codeDepositCost": "970800",
				"executionCost": "1008",
				"totalCost": "971808"
			},
			"external": {
				"AddVehicle(uint256,uint256,uint256,uint256,uint256,uint256,bool,uint256,uint256,string)": "infinite",
				"DisplayAllVehciles()": "infinite",
				"DisplayVehicle(uint256)": "infinite",
				"GetVehicleLocation(uint256)": "infinite",
				"ModifyVehicleRouteTime(uint256,uint256)": "infinite",
				"ModifyVehicleStatus(uint256,bool)": "infinite",
				"SearchAvailableCars()": "infinite",
				"inventory(uint256)": "infinite"
			}
		},
		"methodIdentifiers": {
			"AddVehicle(uint256,uint256,uint256,uint256,uint256,uint256,bool,uint256,uint256,string)": "b8e88694",
			"DisplayAllVehciles()": "25d659ea",
			"DisplayVehicle(uint256)": "9daf1007",
			"GetVehicleLocation(uint256)": "ffce5f81",
			"ModifyVehicleRouteTime(uint256,uint256)": "e19892a0",
			"ModifyVehicleStatus(uint256,bool)": "3d450d77",
			"SearchAvailableCars()": "2bb1a9fb",
			"inventory(uint256)": "4272ee18"
		}
	},
	"abi": [
		{
			"inputs": [
				{
					"internalType": "uint256",
					"name": "_id",
					"type": "uint256"
				},
				{
					"internalType": "uint256",
					"name": "_miles_driven",
					"type": "uint256"
				},
				{
					"internalType": "uint256",
					"name": "_curr_loc",
					"type": "uint256"
				},
				{
					"internalType": "uint256",
					"name": "_gas_level",
					"type": "uint256"
				},
				{
					"internalType": "uint256",
					"name": "_time_driven",
					"type": "uint256"
				},
				{
					"internalType": "uint256",
					"name": "_curr_route_time",
					"type": "uint256"
				},
				{
					"internalType": "bool",
					"name": "_status",
					"type": "bool"
				},
				{
					"internalType": "uint256",
					"name": "_miles_to_service",
					"type": "uint256"
				},
				{
					"internalType": "uint256",
					"name": "_revenue",
					"type": "uint256"
				},
				{
					"internalType": "string",
					"name": "_report",
					"type": "string"
				}
			],
			"name": "AddVehicle",
			"outputs": [],
			"stateMutability": "nonpayable",
			"type": "function"
		},
		{
			"inputs": [],
			"name": "DisplayAllVehciles",
			"outputs": [
				{
					"internalType": "uint256[]",
					"name": "",
					"type": "uint256[]"
				}
			],
			"stateMutability": "nonpayable",
			"type": "function"
		},
		{
			"inputs": [
				{
					"internalType": "uint256",
					"name": "i",
					"type": "uint256"
				}
			],
			"name": "DisplayVehicle",
			"outputs": [
				{
					"internalType": "uint256",
					"name": "temp_id",
					"type": "uint256"
				},
				{
					"internalType": "uint256",
					"name": "temp_miles_driven",
					"type": "uint256"
				},
				{
					"internalType": "uint256",
					"name": "temp_curr_loc",
					"type": "uint256"
				},
				{
					"internalType": "uint256",
					"name": "temp_gas_level",
					"type": "uint256"
				},
				{
					"internalType": "uint256",
					"name": "temp_time_driven",
					"type": "uint256"
				},
				{
					"internalType": "uint256",
					"name": "temp_curr_route_time",
					"type": "uint256"
				},
				{
					"internalType": "bool",
					"name": "temp_status",
					"type": "bool"
				},
				{
					"internalType": "uint256",
					"name": "temp_miles_to_service",
					"type": "uint256"
				},
				{
					"internalType": "uint256",
					"name": "temp_revenue",
					"type": "uint256"
				},
				{
					"internalType": "string",
					"name": "temp_report",
					"type": "string"
				}
			],
			"stateMutability": "view",
			"type": "function"
		},
		{
			"inputs": [
				{
					"internalType": "uint256",
					"name": "vid",
					"type": "uint256"
				}
			],
			"name": "GetVehicleLocation",
			"outputs": [
				{
					"internalType": "uint256",
					"name": "temp_curr_loc",
					"type": "uint256"
				}
			],
			"stateMutability": "view",
			"type": "function"
		},
		{
			"inputs": [
				{
					"internalType": "uint256",
					"name": "vid",
					"type": "uint256"
				},
				{
					"internalType": "uint256",
					"name": "_curr_route_time",
					"type": "uint256"
				}
			],
			"name": "ModifyVehicleRouteTime",
			"outputs": [],
			"stateMutability": "nonpayable",
			"type": "function"
		},
		{
			"inputs": [
				{
					"internalType": "uint256",
					"name": "vid",
					"type": "uint256"
				},
				{
					"internalType": "bool",
					"name": "_status",
					"type": "bool"
				}
			],
			"name": "ModifyVehicleStatus",
			"outputs": [],
			"stateMutability": "nonpayable",
			"type": "function"
		},
		{
			"inputs": [],
			"name": "SearchAvailableCars",
			"outputs": [
				{
					"internalType": "uint256[]",
					"name": "temp_id",
					"type": "uint256[]"
				},
				{
					"internalType": "uint256[]",
					"name": "temp_loc",
					"type": "uint256[]"
				}
			],
			"stateMutability": "nonpayable",
			"type": "function"
		},
		{
			"inputs": [
				{
					"internalType": "uint256",
					"name": "",
					"type": "uint256"
				}
			],
			"name": "inventory",
			"outputs": [
				{
					"internalType": "uint256",
					"name": "id",
					"type": "uint256"
				},
				{
					"internalType": "uint256",
					"name": "miles_driven",
					"type": "uint256"
				},
				{
					"internalType": "uint256",
					"name": "curr_loc",
					"type": "uint256"
				},
				{
					"internalType": "uint256",
					"name": "gas_level",
					"type": "uint256"
				},
				{
					"internalType": "uint256",
					"name": "time_driven",
					"type": "uint256"
				},
				{
					"internalType": "uint256",
					"name": "curr_route_time",
					"type": "uint256"
				},
				{
					"internalType": "bool",
					"name": "status",
					"type": "bool"
				},
				{
					"internalType": "uint256",
					"name": "miles_to_service",
					"type": "uint256"
				},
				{
					"internalType": "uint256",
					"name": "revenue",
					"type": "uint256"
				},
				{
					"internalType": "string",
					"name": "report",
					"type": "string"
				}
			],
			"stateMutability": "view",
			"type": "function"
		}
	]
}