{
	"data": {
		"bytecode": {
			"linkReferences": {},
			"object": "608060405234801561001057600080fd5b50611922806100206000396000f3fe608060405234801561001057600080fd5b50600436106100885760003560e01c80637ee755151161005b5780637ee7551514610113578063b2f563b814610143578063ccbcfe7514610173578063fce64527146101a357610088565b806333c5342a1461008d5780633d805796146100a95780636c9dca97146100b3578063723e1129146100e3575b600080fd5b6100a760048036038101906100a29190610f2a565b6101ad565b005b6100b1610231565b005b6100cd60048036038101906100c89190610e97565b6104d0565b6040516100da91906113e9565b60405180910390f35b6100fd60048036038101906100f89190610ddf565b6104fd565b60405161010a91906113e9565b60405180910390f35b61012d60048036038101906101289190610e97565b6105a6565b60405161013a9190611128565b60405180910390f35b61015d60048036038101906101589190610ed7565b610641565b60405161016a91906113c7565b60405180910390f35b61018d60048036038101906101889190610e97565b610ae9565b60405161019a91906113e9565b60405180910390f35b6101ab610bc0565b005b83600080018190555082600060010181905550816000600201819055508060006003018190555060046000908060018154018082558091505060019003906000526020600020906004020160009091909190915060008201548160000155600182015481600101556002820154816002015560038201548160030155505050505050565b600560009054906101000a900473ffffffffffffffffffffffffffffffffffffffff1673ffffffffffffffffffffffffffffffffffffffff1663b8e88694600080600060646000806001620186a060006040518a63ffffffff1660e01b81526004016102a599989796959493929190611143565b600060405180830381600087803b1580156102bf57600080fd5b505af11580156102d3573d6000803e3d6000fd5b50505050600560009054906101000a900473ffffffffffffffffffffffffffffffffffffffff1673ffffffffffffffffffffffffffffffffffffffff1663b8e886946001600a6005606360946000806201869660466040518a63ffffffff1660e01b815260040161034c999897969594939291906111e4565b600060405180830381600087803b15801561036657600080fd5b505af115801561037a573d6000803e3d6000fd5b50505050600560009054906101000a900473ffffffffffffffffffffffffffffffffffffffff1673ffffffffffffffffffffffffffffffffffffffff1663b8e8869460026103e8600360286151ca60006001620182b86103206040518a63ffffffff1660e01b81526004016103f799989796959493929190611285565b600060405180830381600087803b15801561041157600080fd5b505af1158015610425573d6000803e3d6000fd5b50505050600560009054906101000a900473ffffffffffffffffffffffffffffffffffffffff1673ffffffffffffffffffffffffffffffffffffffff1663b8e8869460036064600260006009600080605060006040518a63ffffffff1660e01b815260040161049c99989796959493929190611326565b600060405180830381600087803b1580156104b657600080fd5b505af11580156104ca573d6000803e3d6000fd5b50505050565b60008082846104df91906115a4565b905060006002826104f0919061154a565b9050809250505092915050565b600080620186a090506000805b86518110156105995782858783815181106105285761052761184f565b5b602002602001015161053a91906115a4565b101561058657848682815181106105545761055361184f565b5b602002602001015161056691906115a4565b925086818151811061057b5761057a61184f565b5b602002602001015191505b8080610591906117a8565b91505061050a565b5080925050509392505050565b600080600090505b6004805490508110156106355783600482815481106105d0576105cf61184f565b5b906000526020600020906004020160000154148015610613575082600482815481106105ff576105fe61184f565b5b906000526020600020906004020160020154145b1561062257600191505061063b565b808061062d906117a8565b9150506105ae565b50600090505b92915050565b6060600080600061065287876105a6565b156107225760005b60048054905081101561072057876004828154811061067c5761067b61184f565b5b906000526020600020906004020160000154141561070d57600481815481106106a8576106a761184f565b5b9060005260206000209060040201600001549350600481815481106106d0576106cf61184f565b5b9060005260206000209060040201600101549250600481815481106106f8576106f761184f565b5b90600052602060002090600402016003015491505b8080610718906117a8565b91505061065a565b505b606080600560009054906101000a900473ffffffffffffffffffffffffffffffffffffffff1673ffffffffffffffffffffffffffffffffffffffff16632bb1a9fb6040518163ffffffff1660e01b8152600401600060405180830381600087803b15801561078f57600080fd5b505af11580156107a3573d6000803e3d6000fd5b505050506040513d6000823e3d601f19601f820116820180604052508101906107cc9190610d67565b809250819350505060006107e18383866104fd565b905060006107ef8583610ae9565b905060006107fd868b6104d0565b90506000818361080d91906114c3565b8861081891906115a4565b1115610aa157600560009054906101000a900473ffffffffffffffffffffffffffffffffffffffff1673ffffffffffffffffffffffffffffffffffffffff16633d450d778460006040518363ffffffff1660e01b815260040161087c929190611404565b600060405180830381600087803b15801561089657600080fd5b505af11580156108aa573d6000803e3d6000fd5b50505050600560009054906101000a900473ffffffffffffffffffffffffffffffffffffffff1673ffffffffffffffffffffffffffffffffffffffff1663e19892a08460238d8a6108fb91906115a4565b6109059190611519565b60238a600560009054906101000a900473ffffffffffffffffffffffffffffffffffffffff1673ffffffffffffffffffffffffffffffffffffffff1663ffce5f818a6040518263ffffffff1660e01b815260040161096391906113e9565b60206040518083038186803b15801561097b57600080fd5b505afa15801561098f573d6000803e3d6000fd5b505050506040513d601f19601f820116820180604052508101906109b39190610e6a565b6109bd91906115a4565b6109c79190611519565b6109d191906114c3565b6040518363ffffffff1660e01b81526004016109ee92919061142d565b600060405180830381600087803b158015610a0857600080fd5b505af1158015610a1c573d6000803e3d6000fd5b505050508160048981548110610a3557610a3461184f565b5b90600052602060002090600402016001016000828254610a5591906115a4565b925050819055506040518060400160405280601081526020017f4f72646572205375636365737366756c0000000000000000000000000000000081525098505050505050505050610ae2565b6040518060400160405280601281526020017f496e73756666696369656e742046756e64730000000000000000000000000000815250985050505050505050505b9392505050565b60008083600560009054906101000a900473ffffffffffffffffffffffffffffffffffffffff1673ffffffffffffffffffffffffffffffffffffffff1663ffce5f81856040518263ffffffff1660e01b8152600401610b4891906113e9565b60206040518083038186803b158015610b6057600080fd5b505afa158015610b74573d6000803e3d6000fd5b505050506040513d601f19601f82011682018060405250810190610b989190610e6a565b610ba291906115a4565b90506000600382610bb3919061154a565b9050809250505092915050565b610bce6000806000806101ad565b610bde60016094600560036101ad565b610bef60026151ca600360016101ad565b610bff60036009600260046101ad565b565b6000610c14610c0f8461147b565b611456565b90508083825260208201905082856020860282011115610c3757610c366118b2565b5b60005b85811015610c675781610c4d8882610d3d565b845260208401935060208301925050600181019050610c3a565b5050509392505050565b6000610c84610c7f8461147b565b611456565b90508083825260208201905082856020860282011115610ca757610ca66118b2565b5b60005b85811015610cd75781610cbd8882610d52565b845260208401935060208301925050600181019050610caa565b5050509392505050565b600082601f830112610cf657610cf56118ad565b5b8135610d06848260208601610c01565b91505092915050565b600082601f830112610d2457610d236118ad565b5b8151610d34848260208601610c71565b91505092915050565b600081359050610d4c816118d5565b92915050565b600081519050610d61816118d5565b92915050565b60008060408385031215610d7e57610d7d6118bc565b5b600083015167ffffffffffffffff811115610d9c57610d9b6118b7565b5b610da885828601610d0f565b925050602083015167ffffffffffffffff811115610dc957610dc86118b7565b5b610dd585828601610d0f565b9150509250929050565b600080600060608486031215610df857610df76118bc565b5b600084013567ffffffffffffffff811115610e1657610e156118b7565b5b610e2286828701610ce1565b935050602084013567ffffffffffffffff811115610e4357610e426118b7565b5b610e4f86828701610ce1565b9250506040610e6086828701610d3d565b9150509250925092565b600060208284031215610e8057610e7f6118bc565b5b6000610e8e84828501610d52565b91505092915050565b60008060408385031215610eae57610ead6118bc565b5b6000610ebc85828601610d3d565b9250506020610ecd85828601610d3d565b9150509250929050565b600080600060608486031215610ef057610eef6118bc565b5b6000610efe86828701610d3d565b9350506020610f0f86828701610d3d565b9250506040610f2086828701610d3d565b9150509250925092565b60008060008060808587031215610f4457610f436118bc565b5b6000610f5287828801610d3d565b9450506020610f6387828801610d3d565b9350506040610f7487828801610d3d565b9250506060610f8587828801610d3d565b91505092959194509250565b610f9a816115d8565b82525050565b610fa9816115ee565b82525050565b610fb881611600565b82525050565b610fc781611612565b82525050565b610fd681611624565b82525050565b610fe581611636565b82525050565b610ff481611648565b82525050565b6110038161165a565b82525050565b6110128161166c565b82525050565b6110218161167e565b82525050565b61103081611690565b82525050565b61103f816116a2565b82525050565b61104e816116b4565b82525050565b61105d816116c6565b82525050565b61106c816116d8565b82525050565b61107b816116ea565b82525050565b61108a816116fc565b82525050565b6110998161170e565b82525050565b6110a881611720565b82525050565b6110b781611732565b82525050565b60006110c8826114a7565b6110d281856114b2565b93506110e2818560208601611744565b6110eb816118c1565b840191505092915050565b60006111036000836114b2565b915061110e826118d2565b600082019050919050565b611122816115e4565b82525050565b600060208201905061113d6000830184610f91565b92915050565b600061014082019050611159600083018c610fa0565b611166602083018b610fa0565b611173604083018a610fa0565b6111806060830189610fcd565b61118d6080830188610fa0565b61119a60a0830187610fa0565b6111a760c0830186610f91565b6111b460e0830185610faf565b6111c2610100830184610fa0565b8181036101208301526111d4816110f6565b90509a9950505050505050505050565b6000610140820190506111fa600083018c610ffa565b611207602083018b610fdc565b611214604083018a611045565b611221606083018961109f565b61122e6080830188610feb565b61123b60a0830187610fa0565b61124860c0830186610f91565b61125560e0830185611090565b611263610100830184611054565b818103610120830152611275816110f6565b90509a9950505050505050505050565b60006101408201905061129b600083018c611018565b6112a8602083018b610fbe565b6112b5604083018a611027565b6112c26060830189611036565b6112cf6080830188611009565b6112dc60a0830187610fa0565b6112e960c0830186610f91565b6112f660e0830185611081565b611304610100830184611063565b818103610120830152611316816110f6565b90509a9950505050505050505050565b60006101408201905061133c600083018c611027565b611349602083018b610fcd565b611356604083018a611018565b6113636060830189610fa0565b61137060808301886110ae565b61137d60a0830187610fa0565b61138a60c0830186610f91565b61139760e0830185611072565b6113a5610100830184610fa0565b8181036101208301526113b7816110f6565b90509a9950505050505050505050565b600060208201905081810360008301526113e181846110bd565b905092915050565b60006020820190506113fe6000830184611119565b92915050565b60006040820190506114196000830185611119565b6114266020830184610f91565b9392505050565b60006040820190506114426000830185611119565b61144f6020830184611119565b9392505050565b6000611460611471565b905061146c8282611777565b919050565b6000604051905090565b600067ffffffffffffffff8211156114965761149561187e565b5b602082029050602081019050919050565b600081519050919050565b600082825260208201905092915050565b60006114ce826115e4565b91506114d9836115e4565b9250827fffffffffffffffffffffffffffffffffffffffffffffffffffffffffffffffff0382111561150e5761150d6117f1565b5b828201905092915050565b6000611524826115e4565b915061152f836115e4565b92508261153f5761153e611820565b5b828204905092915050565b6000611555826115e4565b9150611560836115e4565b9250817fffffffffffffffffffffffffffffffffffffffffffffffffffffffffffffffff0483118215151615611599576115986117f1565b5b828202905092915050565b60006115af826115e4565b91506115ba836115e4565b9250828210156115cd576115cc6117f1565b5b828203905092915050565b60008115159050919050565b6000819050919050565b60006115f9826115e4565b9050919050565b600061160b826115e4565b9050919050565b600061161d826115e4565b9050919050565b600061162f826115e4565b9050919050565b6000611641826115e4565b9050919050565b6000611653826115e4565b9050919050565b6000611665826115e4565b9050919050565b6000611677826115e4565b9050919050565b6000611689826115e4565b9050919050565b600061169b826115e4565b9050919050565b60006116ad826115e4565b9050919050565b60006116bf826115e4565b9050919050565b60006116d1826115e4565b9050919050565b60006116e3826115e4565b9050919050565b60006116f5826115e4565b9050919050565b6000611707826115e4565b9050919050565b6000611719826115e4565b9050919050565b600061172b826115e4565b9050919050565b600061173d826115e4565b9050919050565b60005b83811015611762578082015181840152602081019050611747565b83811115611771576000848401525b50505050565b611780826118c1565b810181811067ffffffffffffffff8211171561179f5761179e61187e565b5b80604052505050565b60006117b3826115e4565b91507fffffffffffffffffffffffffffffffffffffffffffffffffffffffffffffffff8214156117e6576117e56117f1565b5b600182019050919050565b7f4e487b7100000000000000000000000000000000000000000000000000000000600052601160045260246000fd5b7f4e487b7100000000000000000000000000000000000000000000000000000000600052601260045260246000fd5b7f4e487b7100000000000000000000000000000000000000000000000000000000600052603260045260246000fd5b7f4e487b7100000000000000000000000000000000000000000000000000000000600052604160045260246000fd5b600080fd5b600080fd5b600080fd5b600080fd5b6000601f19601f8301169050919050565b50565b6118de816115e4565b81146118e957600080fd5b5056fea2646970667358221220a9bbe15a3df545c52c96291d25a706851348fbdea03eb9d44daa60e8131fb6af64736f6c63430008060033",
			"opcodes": "PUSH1 0x80 PUSH1 0x40 MSTORE CALLVALUE DUP1 ISZERO PUSH2 0x10 JUMPI PUSH1 0x0 DUP1 REVERT JUMPDEST POP PUSH2 0x1922 DUP1 PUSH2 0x20 PUSH1 0x0 CODECOPY PUSH1 0x0 RETURN INVALID PUSH1 0x80 PUSH1 0x40 MSTORE CALLVALUE DUP1 ISZERO PUSH2 0x10 JUMPI PUSH1 0x0 DUP1 REVERT JUMPDEST POP PUSH1 0x4 CALLDATASIZE LT PUSH2 0x88 JUMPI PUSH1 0x0 CALLDATALOAD PUSH1 0xE0 SHR DUP1 PUSH4 0x7EE75515 GT PUSH2 0x5B JUMPI DUP1 PUSH4 0x7EE75515 EQ PUSH2 0x113 JUMPI DUP1 PUSH4 0xB2F563B8 EQ PUSH2 0x143 JUMPI DUP1 PUSH4 0xCCBCFE75 EQ PUSH2 0x173 JUMPI DUP1 PUSH4 0xFCE64527 EQ PUSH2 0x1A3 JUMPI PUSH2 0x88 JUMP JUMPDEST DUP1 PUSH4 0x33C5342A EQ PUSH2 0x8D JUMPI DUP1 PUSH4 0x3D805796 EQ PUSH2 0xA9 JUMPI DUP1 PUSH4 0x6C9DCA97 EQ PUSH2 0xB3 JUMPI DUP1 PUSH4 0x723E1129 EQ PUSH2 0xE3 JUMPI JUMPDEST PUSH1 0x0 DUP1 REVERT JUMPDEST PUSH2 0xA7 PUSH1 0x4 DUP1 CALLDATASIZE SUB DUP2 ADD SWAP1 PUSH2 0xA2 SWAP2 SWAP1 PUSH2 0xF2A JUMP JUMPDEST PUSH2 0x1AD JUMP JUMPDEST STOP JUMPDEST PUSH2 0xB1 PUSH2 0x231 JUMP JUMPDEST STOP JUMPDEST PUSH2 0xCD PUSH1 0x4 DUP1 CALLDATASIZE SUB DUP2 ADD SWAP1 PUSH2 0xC8 SWAP2 SWAP1 PUSH2 0xE97 JUMP JUMPDEST PUSH2 0x4D0 JUMP JUMPDEST PUSH1 0x40 MLOAD PUSH2 0xDA SWAP2 SWAP1 PUSH2 0x13E9 JUMP JUMPDEST PUSH1 0x40 MLOAD DUP1 SWAP2 SUB SWAP1 RETURN JUMPDEST PUSH2 0xFD PUSH1 0x4 DUP1 CALLDATASIZE SUB DUP2 ADD SWAP1 PUSH2 0xF8 SWAP2 SWAP1 PUSH2 0xDDF JUMP JUMPDEST PUSH2 0x4FD JUMP JUMPDEST PUSH1 0x40 MLOAD PUSH2 0x10A SWAP2 SWAP1 PUSH2 0x13E9 JUMP JUMPDEST PUSH1 0x40 MLOAD DUP1 SWAP2 SUB SWAP1 RETURN JUMPDEST PUSH2 0x12D PUSH1 0x4 DUP1 CALLDATASIZE SUB DUP2 ADD SWAP1 PUSH2 0x128 SWAP2 SWAP1 PUSH2 0xE97 JUMP JUMPDEST PUSH2 0x5A6 JUMP JUMPDEST PUSH1 0x40 MLOAD PUSH2 0x13A SWAP2 SWAP1 PUSH2 0x1128 JUMP JUMPDEST PUSH1 0x40 MLOAD DUP1 SWAP2 SUB SWAP1 RETURN JUMPDEST PUSH2 0x15D PUSH1 0x4 DUP1 CALLDATASIZE SUB DUP2 ADD SWAP1 PUSH2 0x158 SWAP2 SWAP1 PUSH2 0xED7 JUMP JUMPDEST PUSH2 0x641 JUMP JUMPDEST PUSH1 0x40 MLOAD PUSH2 0x16A SWAP2 SWAP1 PUSH2 0x13C7 JUMP JUMPDEST PUSH1 0x40 MLOAD DUP1 SWAP2 SUB SWAP1 RETURN JUMPDEST PUSH2 0x18D PUSH1 0x4 DUP1 CALLDATASIZE SUB DUP2 ADD SWAP1 PUSH2 0x188 SWAP2 SWAP1 PUSH2 0xE97 JUMP JUMPDEST PUSH2 0xAE9 JUMP JUMPDEST PUSH1 0x40 MLOAD PUSH2 0x19A SWAP2 SWAP1 PUSH2 0x13E9 JUMP JUMPDEST PUSH1 0x40 MLOAD DUP1 SWAP2 SUB SWAP1 RETURN JUMPDEST PUSH2 0x1AB PUSH2 0xBC0 JUMP JUMPDEST STOP JUMPDEST DUP4 PUSH1 0x0 DUP1 ADD DUP2 SWAP1 SSTORE POP DUP3 PUSH1 0x0 PUSH1 0x1 ADD DUP2 SWAP1 SSTORE POP DUP2 PUSH1 0x0 PUSH1 0x2 ADD DUP2 SWAP1 SSTORE POP DUP1 PUSH1 0x0 PUSH1 0x3 ADD DUP2 SWAP1 SSTORE POP PUSH1 0x4 PUSH1 0x0 SWAP1 DUP1 PUSH1 0x1 DUP2 SLOAD ADD DUP1 DUP3 SSTORE DUP1 SWAP2 POP POP PUSH1 0x1 SWAP1 SUB SWAP1 PUSH1 0x0 MSTORE PUSH1 0x20 PUSH1 0x0 KECCAK256 SWAP1 PUSH1 0x4 MUL ADD PUSH1 0x0 SWAP1 SWAP2 SWAP1 SWAP2 SWAP1 SWAP2 POP PUSH1 0x0 DUP3 ADD SLOAD DUP2 PUSH1 0x0 ADD SSTORE PUSH1 0x1 DUP3 ADD SLOAD DUP2 PUSH1 0x1 ADD SSTORE PUSH1 0x2 DUP3 ADD SLOAD DUP2 PUSH1 0x2 ADD SSTORE PUSH1 0x3 DUP3 ADD SLOAD DUP2 PUSH1 0x3 ADD SSTORE POP POP POP POP POP POP JUMP JUMPDEST PUSH1 0x5 PUSH1 0x0 SWAP1 SLOAD SWAP1 PUSH2 0x100 EXP SWAP1 DIV PUSH20 0xFFFFFFFFFFFFFFFFFFFFFFFFFFFFFFFFFFFFFFFF AND PUSH20 0xFFFFFFFFFFFFFFFFFFFFFFFFFFFFFFFFFFFFFFFF AND PUSH4 0xB8E88694 PUSH1 0x0 DUP1 PUSH1 0x0 PUSH1 0x64 PUSH1 0x0 DUP1 PUSH1 0x1 PUSH3 0x186A0 PUSH1 0x0 PUSH1 0x40 MLOAD DUP11 PUSH4 0xFFFFFFFF AND PUSH1 0xE0 SHL DUP2 MSTORE PUSH1 0x4 ADD PUSH2 0x2A5 SWAP10 SWAP9 SWAP8 SWAP7 SWAP6 SWAP5 SWAP4 SWAP3 SWAP2 SWAP1 PUSH2 0x1143 JUMP JUMPDEST PUSH1 0x0 PUSH1 0x40 MLOAD DUP1 DUP4 SUB DUP2 PUSH1 0x0 DUP8 DUP1 EXTCODESIZE ISZERO DUP1 ISZERO PUSH2 0x2BF JUMPI PUSH1 0x0 DUP1 REVERT JUMPDEST POP GAS CALL ISZERO DUP1 ISZERO PUSH2 0x2D3 JUMPI RETURNDATASIZE PUSH1 0x0 DUP1 RETURNDATACOPY RETURNDATASIZE PUSH1 0x0 REVERT JUMPDEST POP POP POP POP PUSH1 0x5 PUSH1 0x0 SWAP1 SLOAD SWAP1 PUSH2 0x100 EXP SWAP1 DIV PUSH20 0xFFFFFFFFFFFFFFFFFFFFFFFFFFFFFFFFFFFFFFFF AND PUSH20 0xFFFFFFFFFFFFFFFFFFFFFFFFFFFFFFFFFFFFFFFF AND PUSH4 0xB8E88694 PUSH1 0x1 PUSH1 0xA PUSH1 0x5 PUSH1 0x63 PUSH1 0x94 PUSH1 0x0 DUP1 PUSH3 0x18696 PUSH1 0x46 PUSH1 0x40 MLOAD DUP11 PUSH4 0xFFFFFFFF AND PUSH1 0xE0 SHL DUP2 MSTORE PUSH1 0x4 ADD PUSH2 0x34C SWAP10 SWAP9 SWAP8 SWAP7 SWAP6 SWAP5 SWAP4 SWAP3 SWAP2 SWAP1 PUSH2 0x11E4 JUMP JUMPDEST PUSH1 0x0 PUSH1 0x40 MLOAD DUP1 DUP4 SUB DUP2 PUSH1 0x0 DUP8 DUP1 EXTCODESIZE ISZERO DUP1 ISZERO PUSH2 0x366 JUMPI PUSH1 0x0 DUP1 REVERT JUMPDEST POP GAS CALL ISZERO DUP1 ISZERO PUSH2 0x37A JUMPI RETURNDATASIZE PUSH1 0x0 DUP1 RETURNDATACOPY RETURNDATASIZE PUSH1 0x0 REVERT JUMPDEST POP POP POP POP PUSH1 0x5 PUSH1 0x0 SWAP1 SLOAD SWAP1 PUSH2 0x100 EXP SWAP1 DIV PUSH20 0xFFFFFFFFFFFFFFFFFFFFFFFFFFFFFFFFFFFFFFFF AND PUSH20 0xFFFFFFFFFFFFFFFFFFFFFFFFFFFFFFFFFFFFFFFF AND PUSH4 0xB8E88694 PUSH1 0x2 PUSH2 0x3E8 PUSH1 0x3 PUSH1 0x28 PUSH2 0x51CA PUSH1 0x0 PUSH1 0x1 PUSH3 0x182B8 PUSH2 0x320 PUSH1 0x40 MLOAD DUP11 PUSH4 0xFFFFFFFF AND PUSH1 0xE0 SHL DUP2 MSTORE PUSH1 0x4 ADD PUSH2 0x3F7 SWAP10 SWAP9 SWAP8 SWAP7 SWAP6 SWAP5 SWAP4 SWAP3 SWAP2 SWAP1 PUSH2 0x1285 JUMP JUMPDEST PUSH1 0x0 PUSH1 0x40 MLOAD DUP1 DUP4 SUB DUP2 PUSH1 0x0 DUP8 DUP1 EXTCODESIZE ISZERO DUP1 ISZERO PUSH2 0x411 JUMPI PUSH1 0x0 DUP1 REVERT JUMPDEST POP GAS CALL ISZERO DUP1 ISZERO PUSH2 0x425 JUMPI RETURNDATASIZE PUSH1 0x0 DUP1 RETURNDATACOPY RETURNDATASIZE PUSH1 0x0 REVERT JUMPDEST POP POP POP POP PUSH1 0x5 PUSH1 0x0 SWAP1 SLOAD SWAP1 PUSH2 0x100 EXP SWAP1 DIV PUSH20 0xFFFFFFFFFFFFFFFFFFFFFFFFFFFFFFFFFFFFFFFF AND PUSH20 0xFFFFFFFFFFFFFFFFFFFFFFFFFFFFFFFFFFFFFFFF AND PUSH4 0xB8E88694 PUSH1 0x3 PUSH1 0x64 PUSH1 0x2 PUSH1 0x0 PUSH1 0x9 PUSH1 0x0 DUP1 PUSH1 0x50 PUSH1 0x0 PUSH1 0x40 MLOAD DUP11 PUSH4 0xFFFFFFFF AND PUSH1 0xE0 SHL DUP2 MSTORE PUSH1 0x4 ADD PUSH2 0x49C SWAP10 SWAP9 SWAP8 SWAP7 SWAP6 SWAP5 SWAP4 SWAP3 SWAP2 SWAP1 PUSH2 0x1326 JUMP JUMPDEST PUSH1 0x0 PUSH1 0x40 MLOAD DUP1 DUP4 SUB DUP2 PUSH1 0x0 DUP8 DUP1 EXTCODESIZE ISZERO DUP1 ISZERO PUSH2 0x4B6 JUMPI PUSH1 0x0 DUP1 REVERT JUMPDEST POP GAS CALL ISZERO DUP1 ISZERO PUSH2 0x4CA JUMPI RETURNDATASIZE PUSH1 0x0 DUP1 RETURNDATACOPY RETURNDATASIZE PUSH1 0x0 REVERT JUMPDEST POP POP POP POP JUMP JUMPDEST PUSH1 0x0 DUP1 DUP3 DUP5 PUSH2 0x4DF SWAP2 SWAP1 PUSH2 0x15A4 JUMP JUMPDEST SWAP1 POP PUSH1 0x0 PUSH1 0x2 DUP3 PUSH2 0x4F0 SWAP2 SWAP1 PUSH2 0x154A JUMP JUMPDEST SWAP1 POP DUP1 SWAP3 POP POP POP SWAP3 SWAP2 POP POP JUMP JUMPDEST PUSH1 0x0 DUP1 PUSH3 0x186A0 SWAP1 POP PUSH1 0x0 DUP1 JUMPDEST DUP7 MLOAD DUP2 LT ISZERO PUSH2 0x599 JUMPI DUP3 DUP6 DUP8 DUP4 DUP2 MLOAD DUP2 LT PUSH2 0x528 JUMPI PUSH2 0x527 PUSH2 0x184F JUMP JUMPDEST JUMPDEST PUSH1 0x20 MUL PUSH1 0x20 ADD ADD MLOAD PUSH2 0x53A SWAP2 SWAP1 PUSH2 0x15A4 JUMP JUMPDEST LT ISZERO PUSH2 0x586 JUMPI DUP5 DUP7 DUP3 DUP2 MLOAD DUP2 LT PUSH2 0x554 JUMPI PUSH2 0x553 PUSH2 0x184F JUMP JUMPDEST JUMPDEST PUSH1 0x20 MUL PUSH1 0x20 ADD ADD MLOAD PUSH2 0x566 SWAP2 SWAP1 PUSH2 0x15A4 JUMP JUMPDEST SWAP3 POP DUP7 DUP2 DUP2 MLOAD DUP2 LT PUSH2 0x57B JUMPI PUSH2 0x57A PUSH2 0x184F JUMP JUMPDEST JUMPDEST PUSH1 0x20 MUL PUSH1 0x20 ADD ADD MLOAD SWAP2 POP JUMPDEST DUP1 DUP1 PUSH2 0x591 SWAP1 PUSH2 0x17A8 JUMP JUMPDEST SWAP2 POP POP PUSH2 0x50A JUMP JUMPDEST POP DUP1 SWAP3 POP POP POP SWAP4 SWAP3 POP POP POP JUMP JUMPDEST PUSH1 0x0 DUP1 PUSH1 0x0 SWAP1 POP JUMPDEST PUSH1 0x4 DUP1 SLOAD SWAP1 POP DUP2 LT ISZERO PUSH2 0x635 JUMPI DUP4 PUSH1 0x4 DUP3 DUP2 SLOAD DUP2 LT PUSH2 0x5D0 JUMPI PUSH2 0x5CF PUSH2 0x184F JUMP JUMPDEST JUMPDEST SWAP1 PUSH1 0x0 MSTORE PUSH1 0x20 PUSH1 0x0 KECCAK256 SWAP1 PUSH1 0x4 MUL ADD PUSH1 0x0 ADD SLOAD EQ DUP1 ISZERO PUSH2 0x613 JUMPI POP DUP3 PUSH1 0x4 DUP3 DUP2 SLOAD DUP2 LT PUSH2 0x5FF JUMPI PUSH2 0x5FE PUSH2 0x184F JUMP JUMPDEST JUMPDEST SWAP1 PUSH1 0x0 MSTORE PUSH1 0x20 PUSH1 0x0 KECCAK256 SWAP1 PUSH1 0x4 MUL ADD PUSH1 0x2 ADD SLOAD EQ JUMPDEST ISZERO PUSH2 0x622 JUMPI PUSH1 0x1 SWAP2 POP POP PUSH2 0x63B JUMP JUMPDEST DUP1 DUP1 PUSH2 0x62D SWAP1 PUSH2 0x17A8 JUMP JUMPDEST SWAP2 POP POP PUSH2 0x5AE JUMP JUMPDEST POP PUSH1 0x0 SWAP1 POP JUMPDEST SWAP3 SWAP2 POP POP JUMP JUMPDEST PUSH1 0x60 PUSH1 0x0 DUP1 PUSH1 0x0 PUSH2 0x652 DUP8 DUP8 PUSH2 0x5A6 JUMP JUMPDEST ISZERO PUSH2 0x722 JUMPI PUSH1 0x0 JUMPDEST PUSH1 0x4 DUP1 SLOAD SWAP1 POP DUP2 LT ISZERO PUSH2 0x720 JUMPI DUP8 PUSH1 0x4 DUP3 DUP2 SLOAD DUP2 LT PUSH2 0x67C JUMPI PUSH2 0x67B PUSH2 0x184F JUMP JUMPDEST JUMPDEST SWAP1 PUSH1 0x0 MSTORE PUSH1 0x20 PUSH1 0x0 KECCAK256 SWAP1 PUSH1 0x4 MUL ADD PUSH1 0x0 ADD SLOAD EQ ISZERO PUSH2 0x70D JUMPI PUSH1 0x4 DUP2 DUP2 SLOAD DUP2 LT PUSH2 0x6A8 JUMPI PUSH2 0x6A7 PUSH2 0x184F JUMP JUMPDEST JUMPDEST SWAP1 PUSH1 0x0 MSTORE PUSH1 0x20 PUSH1 0x0 KECCAK256 SWAP1 PUSH1 0x4 MUL ADD PUSH1 0x0 ADD SLOAD SWAP4 POP PUSH1 0x4 DUP2 DUP2 SLOAD DUP2 LT PUSH2 0x6D0 JUMPI PUSH2 0x6CF PUSH2 0x184F JUMP JUMPDEST JUMPDEST SWAP1 PUSH1 0x0 MSTORE PUSH1 0x20 PUSH1 0x0 KECCAK256 SWAP1 PUSH1 0x4 MUL ADD PUSH1 0x1 ADD SLOAD SWAP3 POP PUSH1 0x4 DUP2 DUP2 SLOAD DUP2 LT PUSH2 0x6F8 JUMPI PUSH2 0x6F7 PUSH2 0x184F JUMP JUMPDEST JUMPDEST SWAP1 PUSH1 0x0 MSTORE PUSH1 0x20 PUSH1 0x0 KECCAK256 SWAP1 PUSH1 0x4 MUL ADD PUSH1 0x3 ADD SLOAD SWAP2 POP JUMPDEST DUP1 DUP1 PUSH2 0x718 SWAP1 PUSH2 0x17A8 JUMP JUMPDEST SWAP2 POP POP PUSH2 0x65A JUMP JUMPDEST POP JUMPDEST PUSH1 0x60 DUP1 PUSH1 0x5 PUSH1 0x0 SWAP1 SLOAD SWAP1 PUSH2 0x100 EXP SWAP1 DIV PUSH20 0xFFFFFFFFFFFFFFFFFFFFFFFFFFFFFFFFFFFFFFFF AND PUSH20 0xFFFFFFFFFFFFFFFFFFFFFFFFFFFFFFFFFFFFFFFF AND PUSH4 0x2BB1A9FB PUSH1 0x40 MLOAD DUP2 PUSH4 0xFFFFFFFF AND PUSH1 0xE0 SHL DUP2 MSTORE PUSH1 0x4 ADD PUSH1 0x0 PUSH1 0x40 MLOAD DUP1 DUP4 SUB DUP2 PUSH1 0x0 DUP8 DUP1 EXTCODESIZE ISZERO DUP1 ISZERO PUSH2 0x78F JUMPI PUSH1 0x0 DUP1 REVERT JUMPDEST POP GAS CALL ISZERO DUP1 ISZERO PUSH2 0x7A3 JUMPI RETURNDATASIZE PUSH1 0x0 DUP1 RETURNDATACOPY RETURNDATASIZE PUSH1 0x0 REVERT JUMPDEST POP POP POP POP PUSH1 0x40 MLOAD RETURNDATASIZE PUSH1 0x0 DUP3 RETURNDATACOPY RETURNDATASIZE PUSH1 0x1F NOT PUSH1 0x1F DUP3 ADD AND DUP3 ADD DUP1 PUSH1 0x40 MSTORE POP DUP2 ADD SWAP1 PUSH2 0x7CC SWAP2 SWAP1 PUSH2 0xD67 JUMP JUMPDEST DUP1 SWAP3 POP DUP2 SWAP4 POP POP POP PUSH1 0x0 PUSH2 0x7E1 DUP4 DUP4 DUP7 PUSH2 0x4FD JUMP JUMPDEST SWAP1 POP PUSH1 0x0 PUSH2 0x7EF DUP6 DUP4 PUSH2 0xAE9 JUMP JUMPDEST SWAP1 POP PUSH1 0x0 PUSH2 0x7FD DUP7 DUP12 PUSH2 0x4D0 JUMP JUMPDEST SWAP1 POP PUSH1 0x0 DUP2 DUP4 PUSH2 0x80D SWAP2 SWAP1 PUSH2 0x14C3 JUMP JUMPDEST DUP9 PUSH2 0x818 SWAP2 SWAP1 PUSH2 0x15A4 JUMP JUMPDEST GT ISZERO PUSH2 0xAA1 JUMPI PUSH1 0x5 PUSH1 0x0 SWAP1 SLOAD SWAP1 PUSH2 0x100 EXP SWAP1 DIV PUSH20 0xFFFFFFFFFFFFFFFFFFFFFFFFFFFFFFFFFFFFFFFF AND PUSH20 0xFFFFFFFFFFFFFFFFFFFFFFFFFFFFFFFFFFFFFFFF AND PUSH4 0x3D450D77 DUP5 PUSH1 0x0 PUSH1 0x40 MLOAD DUP4 PUSH4 0xFFFFFFFF AND PUSH1 0xE0 SHL DUP2 MSTORE PUSH1 0x4 ADD PUSH2 0x87C SWAP3 SWAP2 SWAP1 PUSH2 0x1404 JUMP JUMPDEST PUSH1 0x0 PUSH1 0x40 MLOAD DUP1 DUP4 SUB DUP2 PUSH1 0x0 DUP8 DUP1 EXTCODESIZE ISZERO DUP1 ISZERO PUSH2 0x896 JUMPI PUSH1 0x0 DUP1 REVERT JUMPDEST POP GAS CALL ISZERO DUP1 ISZERO PUSH2 0x8AA JUMPI RETURNDATASIZE PUSH1 0x0 DUP1 RETURNDATACOPY RETURNDATASIZE PUSH1 0x0 REVERT JUMPDEST POP POP POP POP PUSH1 0x5 PUSH1 0x0 SWAP1 SLOAD SWAP1 PUSH2 0x100 EXP SWAP1 DIV PUSH20 0xFFFFFFFFFFFFFFFFFFFFFFFFFFFFFFFFFFFFFFFF AND PUSH20 0xFFFFFFFFFFFFFFFFFFFFFFFFFFFFFFFFFFFFFFFF AND PUSH4 0xE19892A0 DUP5 PUSH1 0x23 DUP14 DUP11 PUSH2 0x8FB SWAP2 SWAP1 PUSH2 0x15A4 JUMP JUMPDEST PUSH2 0x905 SWAP2 SWAP1 PUSH2 0x1519 JUMP JUMPDEST PUSH1 0x23 DUP11 PUSH1 0x5 PUSH1 0x0 SWAP1 SLOAD SWAP1 PUSH2 0x100 EXP SWAP1 DIV PUSH20 0xFFFFFFFFFFFFFFFFFFFFFFFFFFFFFFFFFFFFFFFF AND PUSH20 0xFFFFFFFFFFFFFFFFFFFFFFFFFFFFFFFFFFFFFFFF AND PUSH4 0xFFCE5F81 DUP11 PUSH1 0x40 MLOAD DUP3 PUSH4 0xFFFFFFFF AND PUSH1 0xE0 SHL DUP2 MSTORE PUSH1 0x4 ADD PUSH2 0x963 SWAP2 SWAP1 PUSH2 0x13E9 JUMP JUMPDEST PUSH1 0x20 PUSH1 0x40 MLOAD DUP1 DUP4 SUB DUP2 DUP7 DUP1 EXTCODESIZE ISZERO DUP1 ISZERO PUSH2 0x97B JUMPI PUSH1 0x0 DUP1 REVERT JUMPDEST POP GAS STATICCALL ISZERO DUP1 ISZERO PUSH2 0x98F JUMPI RETURNDATASIZE PUSH1 0x0 DUP1 RETURNDATACOPY RETURNDATASIZE PUSH1 0x0 REVERT JUMPDEST POP POP POP POP PUSH1 0x40 MLOAD RETURNDATASIZE PUSH1 0x1F NOT PUSH1 0x1F DUP3 ADD AND DUP3 ADD DUP1 PUSH1 0x40 MSTORE POP DUP2 ADD SWAP1 PUSH2 0x9B3 SWAP2 SWAP1 PUSH2 0xE6A JUMP JUMPDEST PUSH2 0x9BD SWAP2 SWAP1 PUSH2 0x15A4 JUMP JUMPDEST PUSH2 0x9C7 SWAP2 SWAP1 PUSH2 0x1519 JUMP JUMPDEST PUSH2 0x9D1 SWAP2 SWAP1 PUSH2 0x14C3 JUMP JUMPDEST PUSH1 0x40 MLOAD DUP4 PUSH4 0xFFFFFFFF AND PUSH1 0xE0 SHL DUP2 MSTORE PUSH1 0x4 ADD PUSH2 0x9EE SWAP3 SWAP2 SWAP1 PUSH2 0x142D JUMP JUMPDEST PUSH1 0x0 PUSH1 0x40 MLOAD DUP1 DUP4 SUB DUP2 PUSH1 0x0 DUP8 DUP1 EXTCODESIZE ISZERO DUP1 ISZERO PUSH2 0xA08 JUMPI PUSH1 0x0 DUP1 REVERT JUMPDEST POP GAS CALL ISZERO DUP1 ISZERO PUSH2 0xA1C JUMPI RETURNDATASIZE PUSH1 0x0 DUP1 RETURNDATACOPY RETURNDATASIZE PUSH1 0x0 REVERT JUMPDEST POP POP POP POP DUP2 PUSH1 0x4 DUP10 DUP2 SLOAD DUP2 LT PUSH2 0xA35 JUMPI PUSH2 0xA34 PUSH2 0x184F JUMP JUMPDEST JUMPDEST SWAP1 PUSH1 0x0 MSTORE PUSH1 0x20 PUSH1 0x0 KECCAK256 SWAP1 PUSH1 0x4 MUL ADD PUSH1 0x1 ADD PUSH1 0x0 DUP3 DUP3 SLOAD PUSH2 0xA55 SWAP2 SWAP1 PUSH2 0x15A4 JUMP JUMPDEST SWAP3 POP POP DUP2 SWAP1 SSTORE POP PUSH1 0x40 MLOAD DUP1 PUSH1 0x40 ADD PUSH1 0x40 MSTORE DUP1 PUSH1 0x10 DUP2 MSTORE PUSH1 0x20 ADD PUSH32 0x4F72646572205375636365737366756C00000000000000000000000000000000 DUP2 MSTORE POP SWAP9 POP POP POP POP POP POP POP POP POP PUSH2 0xAE2 JUMP JUMPDEST PUSH1 0x40 MLOAD DUP1 PUSH1 0x40 ADD PUSH1 0x40 MSTORE DUP1 PUSH1 0x12 DUP2 MSTORE PUSH1 0x20 ADD PUSH32 0x496E73756666696369656E742046756E64730000000000000000000000000000 DUP2 MSTORE POP SWAP9 POP POP POP POP POP POP POP POP POP JUMPDEST SWAP4 SWAP3 POP POP POP JUMP JUMPDEST PUSH1 0x0 DUP1 DUP4 PUSH1 0x5 PUSH1 0x0 SWAP1 SLOAD SWAP1 PUSH2 0x100 EXP SWAP1 DIV PUSH20 0xFFFFFFFFFFFFFFFFFFFFFFFFFFFFFFFFFFFFFFFF AND PUSH20 0xFFFFFFFFFFFFFFFFFFFFFFFFFFFFFFFFFFFFFFFF AND PUSH4 0xFFCE5F81 DUP6 PUSH1 0x40 MLOAD DUP3 PUSH4 0xFFFFFFFF AND PUSH1 0xE0 SHL DUP2 MSTORE PUSH1 0x4 ADD PUSH2 0xB48 SWAP2 SWAP1 PUSH2 0x13E9 JUMP JUMPDEST PUSH1 0x20 PUSH1 0x40 MLOAD DUP1 DUP4 SUB DUP2 DUP7 DUP1 EXTCODESIZE ISZERO DUP1 ISZERO PUSH2 0xB60 JUMPI PUSH1 0x0 DUP1 REVERT JUMPDEST POP GAS STATICCALL ISZERO DUP1 ISZERO PUSH2 0xB74 JUMPI RETURNDATASIZE PUSH1 0x0 DUP1 RETURNDATACOPY RETURNDATASIZE PUSH1 0x0 REVERT JUMPDEST POP POP POP POP PUSH1 0x40 MLOAD RETURNDATASIZE PUSH1 0x1F NOT PUSH1 0x1F DUP3 ADD AND DUP3 ADD DUP1 PUSH1 0x40 MSTORE POP DUP2 ADD SWAP1 PUSH2 0xB98 SWAP2 SWAP1 PUSH2 0xE6A JUMP JUMPDEST PUSH2 0xBA2 SWAP2 SWAP1 PUSH2 0x15A4 JUMP JUMPDEST SWAP1 POP PUSH1 0x0 PUSH1 0x3 DUP3 PUSH2 0xBB3 SWAP2 SWAP1 PUSH2 0x154A JUMP JUMPDEST SWAP1 POP DUP1 SWAP3 POP POP POP SWAP3 SWAP2 POP POP JUMP JUMPDEST PUSH2 0xBCE PUSH1 0x0 DUP1 PUSH1 0x0 DUP1 PUSH2 0x1AD JUMP JUMPDEST PUSH2 0xBDE PUSH1 0x1 PUSH1 0x94 PUSH1 0x5 PUSH1 0x3 PUSH2 0x1AD JUMP JUMPDEST PUSH2 0xBEF PUSH1 0x2 PUSH2 0x51CA PUSH1 0x3 PUSH1 0x1 PUSH2 0x1AD JUMP JUMPDEST PUSH2 0xBFF PUSH1 0x3 PUSH1 0x9 PUSH1 0x2 PUSH1 0x4 PUSH2 0x1AD JUMP JUMPDEST JUMP JUMPDEST PUSH1 0x0 PUSH2 0xC14 PUSH2 0xC0F DUP5 PUSH2 0x147B JUMP JUMPDEST PUSH2 0x1456 JUMP JUMPDEST SWAP1 POP DUP1 DUP4 DUP3 MSTORE PUSH1 0x20 DUP3 ADD SWAP1 POP DUP3 DUP6 PUSH1 0x20 DUP7 MUL DUP3 ADD GT ISZERO PUSH2 0xC37 JUMPI PUSH2 0xC36 PUSH2 0x18B2 JUMP JUMPDEST JUMPDEST PUSH1 0x0 JUMPDEST DUP6 DUP2 LT ISZERO PUSH2 0xC67 JUMPI DUP2 PUSH2 0xC4D DUP9 DUP3 PUSH2 0xD3D JUMP JUMPDEST DUP5 MSTORE PUSH1 0x20 DUP5 ADD SWAP4 POP PUSH1 0x20 DUP4 ADD SWAP3 POP POP PUSH1 0x1 DUP2 ADD SWAP1 POP PUSH2 0xC3A JUMP JUMPDEST POP POP POP SWAP4 SWAP3 POP POP POP JUMP JUMPDEST PUSH1 0x0 PUSH2 0xC84 PUSH2 0xC7F DUP5 PUSH2 0x147B JUMP JUMPDEST PUSH2 0x1456 JUMP JUMPDEST SWAP1 POP DUP1 DUP4 DUP3 MSTORE PUSH1 0x20 DUP3 ADD SWAP1 POP DUP3 DUP6 PUSH1 0x20 DUP7 MUL DUP3 ADD GT ISZERO PUSH2 0xCA7 JUMPI PUSH2 0xCA6 PUSH2 0x18B2 JUMP JUMPDEST JUMPDEST PUSH1 0x0 JUMPDEST DUP6 DUP2 LT ISZERO PUSH2 0xCD7 JUMPI DUP2 PUSH2 0xCBD DUP9 DUP3 PUSH2 0xD52 JUMP JUMPDEST DUP5 MSTORE PUSH1 0x20 DUP5 ADD SWAP4 POP PUSH1 0x20 DUP4 ADD SWAP3 POP POP PUSH1 0x1 DUP2 ADD SWAP1 POP PUSH2 0xCAA JUMP JUMPDEST POP POP POP SWAP4 SWAP3 POP POP POP JUMP JUMPDEST PUSH1 0x0 DUP3 PUSH1 0x1F DUP4 ADD SLT PUSH2 0xCF6 JUMPI PUSH2 0xCF5 PUSH2 0x18AD JUMP JUMPDEST JUMPDEST DUP2 CALLDATALOAD PUSH2 0xD06 DUP5 DUP3 PUSH1 0x20 DUP7 ADD PUSH2 0xC01 JUMP JUMPDEST SWAP2 POP POP SWAP3 SWAP2 POP POP JUMP JUMPDEST PUSH1 0x0 DUP3 PUSH1 0x1F DUP4 ADD SLT PUSH2 0xD24 JUMPI PUSH2 0xD23 PUSH2 0x18AD JUMP JUMPDEST JUMPDEST DUP2 MLOAD PUSH2 0xD34 DUP5 DUP3 PUSH1 0x20 DUP7 ADD PUSH2 0xC71 JUMP JUMPDEST SWAP2 POP POP SWAP3 SWAP2 POP POP JUMP JUMPDEST PUSH1 0x0 DUP2 CALLDATALOAD SWAP1 POP PUSH2 0xD4C DUP2 PUSH2 0x18D5 JUMP JUMPDEST SWAP3 SWAP2 POP POP JUMP JUMPDEST PUSH1 0x0 DUP2 MLOAD SWAP1 POP PUSH2 0xD61 DUP2 PUSH2 0x18D5 JUMP JUMPDEST SWAP3 SWAP2 POP POP JUMP JUMPDEST PUSH1 0x0 DUP1 PUSH1 0x40 DUP4 DUP6 SUB SLT ISZERO PUSH2 0xD7E JUMPI PUSH2 0xD7D PUSH2 0x18BC JUMP JUMPDEST JUMPDEST PUSH1 0x0 DUP4 ADD MLOAD PUSH8 0xFFFFFFFFFFFFFFFF DUP2 GT ISZERO PUSH2 0xD9C JUMPI PUSH2 0xD9B PUSH2 0x18B7 JUMP JUMPDEST JUMPDEST PUSH2 0xDA8 DUP6 DUP3 DUP7 ADD PUSH2 0xD0F JUMP JUMPDEST SWAP3 POP POP PUSH1 0x20 DUP4 ADD MLOAD PUSH8 0xFFFFFFFFFFFFFFFF DUP2 GT ISZERO PUSH2 0xDC9 JUMPI PUSH2 0xDC8 PUSH2 0x18B7 JUMP JUMPDEST JUMPDEST PUSH2 0xDD5 DUP6 DUP3 DUP7 ADD PUSH2 0xD0F JUMP JUMPDEST SWAP2 POP POP SWAP3 POP SWAP3 SWAP1 POP JUMP JUMPDEST PUSH1 0x0 DUP1 PUSH1 0x0 PUSH1 0x60 DUP5 DUP7 SUB SLT ISZERO PUSH2 0xDF8 JUMPI PUSH2 0xDF7 PUSH2 0x18BC JUMP JUMPDEST JUMPDEST PUSH1 0x0 DUP5 ADD CALLDATALOAD PUSH8 0xFFFFFFFFFFFFFFFF DUP2 GT ISZERO PUSH2 0xE16 JUMPI PUSH2 0xE15 PUSH2 0x18B7 JUMP JUMPDEST JUMPDEST PUSH2 0xE22 DUP7 DUP3 DUP8 ADD PUSH2 0xCE1 JUMP JUMPDEST SWAP4 POP POP PUSH1 0x20 DUP5 ADD CALLDATALOAD PUSH8 0xFFFFFFFFFFFFFFFF DUP2 GT ISZERO PUSH2 0xE43 JUMPI PUSH2 0xE42 PUSH2 0x18B7 JUMP JUMPDEST JUMPDEST PUSH2 0xE4F DUP7 DUP3 DUP8 ADD PUSH2 0xCE1 JUMP JUMPDEST SWAP3 POP POP PUSH1 0x40 PUSH2 0xE60 DUP7 DUP3 DUP8 ADD PUSH2 0xD3D JUMP JUMPDEST SWAP2 POP POP SWAP3 POP SWAP3 POP SWAP3 JUMP JUMPDEST PUSH1 0x0 PUSH1 0x20 DUP3 DUP5 SUB SLT ISZERO PUSH2 0xE80 JUMPI PUSH2 0xE7F PUSH2 0x18BC JUMP JUMPDEST JUMPDEST PUSH1 0x0 PUSH2 0xE8E DUP5 DUP3 DUP6 ADD PUSH2 0xD52 JUMP JUMPDEST SWAP2 POP POP SWAP3 SWAP2 POP POP JUMP JUMPDEST PUSH1 0x0 DUP1 PUSH1 0x40 DUP4 DUP6 SUB SLT ISZERO PUSH2 0xEAE JUMPI PUSH2 0xEAD PUSH2 0x18BC JUMP JUMPDEST JUMPDEST PUSH1 0x0 PUSH2 0xEBC DUP6 DUP3 DUP7 ADD PUSH2 0xD3D JUMP JUMPDEST SWAP3 POP POP PUSH1 0x20 PUSH2 0xECD DUP6 DUP3 DUP7 ADD PUSH2 0xD3D JUMP JUMPDEST SWAP2 POP POP SWAP3 POP SWAP3 SWAP1 POP JUMP JUMPDEST PUSH1 0x0 DUP1 PUSH1 0x0 PUSH1 0x60 DUP5 DUP7 SUB SLT ISZERO PUSH2 0xEF0 JUMPI PUSH2 0xEEF PUSH2 0x18BC JUMP JUMPDEST JUMPDEST PUSH1 0x0 PUSH2 0xEFE DUP7 DUP3 DUP8 ADD PUSH2 0xD3D JUMP JUMPDEST SWAP4 POP POP PUSH1 0x20 PUSH2 0xF0F DUP7 DUP3 DUP8 ADD PUSH2 0xD3D JUMP JUMPDEST SWAP3 POP POP PUSH1 0x40 PUSH2 0xF20 DUP7 DUP3 DUP8 ADD PUSH2 0xD3D JUMP JUMPDEST SWAP2 POP POP SWAP3 POP SWAP3 POP SWAP3 JUMP JUMPDEST PUSH1 0x0 DUP1 PUSH1 0x0 DUP1 PUSH1 0x80 DUP6 DUP8 SUB SLT ISZERO PUSH2 0xF44 JUMPI PUSH2 0xF43 PUSH2 0x18BC JUMP JUMPDEST JUMPDEST PUSH1 0x0 PUSH2 0xF52 DUP8 DUP3 DUP9 ADD PUSH2 0xD3D JUMP JUMPDEST SWAP5 POP POP PUSH1 0x20 PUSH2 0xF63 DUP8 DUP3 DUP9 ADD PUSH2 0xD3D JUMP JUMPDEST SWAP4 POP POP PUSH1 0x40 PUSH2 0xF74 DUP8 DUP3 DUP9 ADD PUSH2 0xD3D JUMP JUMPDEST SWAP3 POP POP PUSH1 0x60 PUSH2 0xF85 DUP8 DUP3 DUP9 ADD PUSH2 0xD3D JUMP JUMPDEST SWAP2 POP POP SWAP3 SWAP6 SWAP2 SWAP5 POP SWAP3 POP JUMP JUMPDEST PUSH2 0xF9A DUP2 PUSH2 0x15D8 JUMP JUMPDEST DUP3 MSTORE POP POP JUMP JUMPDEST PUSH2 0xFA9 DUP2 PUSH2 0x15EE JUMP JUMPDEST DUP3 MSTORE POP POP JUMP JUMPDEST PUSH2 0xFB8 DUP2 PUSH2 0x1600 JUMP JUMPDEST DUP3 MSTORE POP POP JUMP JUMPDEST PUSH2 0xFC7 DUP2 PUSH2 0x1612 JUMP JUMPDEST DUP3 MSTORE POP POP JUMP JUMPDEST PUSH2 0xFD6 DUP2 PUSH2 0x1624 JUMP JUMPDEST DUP3 MSTORE POP POP JUMP JUMPDEST PUSH2 0xFE5 DUP2 PUSH2 0x1636 JUMP JUMPDEST DUP3 MSTORE POP POP JUMP JUMPDEST PUSH2 0xFF4 DUP2 PUSH2 0x1648 JUMP JUMPDEST DUP3 MSTORE POP POP JUMP JUMPDEST PUSH2 0x1003 DUP2 PUSH2 0x165A JUMP JUMPDEST DUP3 MSTORE POP POP JUMP JUMPDEST PUSH2 0x1012 DUP2 PUSH2 0x166C JUMP JUMPDEST DUP3 MSTORE POP POP JUMP JUMPDEST PUSH2 0x1021 DUP2 PUSH2 0x167E JUMP JUMPDEST DUP3 MSTORE POP POP JUMP JUMPDEST PUSH2 0x1030 DUP2 PUSH2 0x1690 JUMP JUMPDEST DUP3 MSTORE POP POP JUMP JUMPDEST PUSH2 0x103F DUP2 PUSH2 0x16A2 JUMP JUMPDEST DUP3 MSTORE POP POP JUMP JUMPDEST PUSH2 0x104E DUP2 PUSH2 0x16B4 JUMP JUMPDEST DUP3 MSTORE POP POP JUMP JUMPDEST PUSH2 0x105D DUP2 PUSH2 0x16C6 JUMP JUMPDEST DUP3 MSTORE POP POP JUMP JUMPDEST PUSH2 0x106C DUP2 PUSH2 0x16D8 JUMP JUMPDEST DUP3 MSTORE POP POP JUMP JUMPDEST PUSH2 0x107B DUP2 PUSH2 0x16EA JUMP JUMPDEST DUP3 MSTORE POP POP JUMP JUMPDEST PUSH2 0x108A DUP2 PUSH2 0x16FC JUMP JUMPDEST DUP3 MSTORE POP POP JUMP JUMPDEST PUSH2 0x1099 DUP2 PUSH2 0x170E JUMP JUMPDEST DUP3 MSTORE POP POP JUMP JUMPDEST PUSH2 0x10A8 DUP2 PUSH2 0x1720 JUMP JUMPDEST DUP3 MSTORE POP POP JUMP JUMPDEST PUSH2 0x10B7 DUP2 PUSH2 0x1732 JUMP JUMPDEST DUP3 MSTORE POP POP JUMP JUMPDEST PUSH1 0x0 PUSH2 0x10C8 DUP3 PUSH2 0x14A7 JUMP JUMPDEST PUSH2 0x10D2 DUP2 DUP6 PUSH2 0x14B2 JUMP JUMPDEST SWAP4 POP PUSH2 0x10E2 DUP2 DUP6 PUSH1 0x20 DUP7 ADD PUSH2 0x1744 JUMP JUMPDEST PUSH2 0x10EB DUP2 PUSH2 0x18C1 JUMP JUMPDEST DUP5 ADD SWAP2 POP POP SWAP3 SWAP2 POP POP JUMP JUMPDEST PUSH1 0x0 PUSH2 0x1103 PUSH1 0x0 DUP4 PUSH2 0x14B2 JUMP JUMPDEST SWAP2 POP PUSH2 0x110E DUP3 PUSH2 0x18D2 JUMP JUMPDEST PUSH1 0x0 DUP3 ADD SWAP1 POP SWAP2 SWAP1 POP JUMP JUMPDEST PUSH2 0x1122 DUP2 PUSH2 0x15E4 JUMP JUMPDEST DUP3 MSTORE POP POP JUMP JUMPDEST PUSH1 0x0 PUSH1 0x20 DUP3 ADD SWAP1 POP PUSH2 0x113D PUSH1 0x0 DUP4 ADD DUP5 PUSH2 0xF91 JUMP JUMPDEST SWAP3 SWAP2 POP POP JUMP JUMPDEST PUSH1 0x0 PUSH2 0x140 DUP3 ADD SWAP1 POP PUSH2 0x1159 PUSH1 0x0 DUP4 ADD DUP13 PUSH2 0xFA0 JUMP JUMPDEST PUSH2 0x1166 PUSH1 0x20 DUP4 ADD DUP12 PUSH2 0xFA0 JUMP JUMPDEST PUSH2 0x1173 PUSH1 0x40 DUP4 ADD DUP11 PUSH2 0xFA0 JUMP JUMPDEST PUSH2 0x1180 PUSH1 0x60 DUP4 ADD DUP10 PUSH2 0xFCD JUMP JUMPDEST PUSH2 0x118D PUSH1 0x80 DUP4 ADD DUP9 PUSH2 0xFA0 JUMP JUMPDEST PUSH2 0x119A PUSH1 0xA0 DUP4 ADD DUP8 PUSH2 0xFA0 JUMP JUMPDEST PUSH2 0x11A7 PUSH1 0xC0 DUP4 ADD DUP7 PUSH2 0xF91 JUMP JUMPDEST PUSH2 0x11B4 PUSH1 0xE0 DUP4 ADD DUP6 PUSH2 0xFAF JUMP JUMPDEST PUSH2 0x11C2 PUSH2 0x100 DUP4 ADD DUP5 PUSH2 0xFA0 JUMP JUMPDEST DUP2 DUP2 SUB PUSH2 0x120 DUP4 ADD MSTORE PUSH2 0x11D4 DUP2 PUSH2 0x10F6 JUMP JUMPDEST SWAP1 POP SWAP11 SWAP10 POP POP POP POP POP POP POP POP POP POP JUMP JUMPDEST PUSH1 0x0 PUSH2 0x140 DUP3 ADD SWAP1 POP PUSH2 0x11FA PUSH1 0x0 DUP4 ADD DUP13 PUSH2 0xFFA JUMP JUMPDEST PUSH2 0x1207 PUSH1 0x20 DUP4 ADD DUP12 PUSH2 0xFDC JUMP JUMPDEST PUSH2 0x1214 PUSH1 0x40 DUP4 ADD DUP11 PUSH2 0x1045 JUMP JUMPDEST PUSH2 0x1221 PUSH1 0x60 DUP4 ADD DUP10 PUSH2 0x109F JUMP JUMPDEST PUSH2 0x122E PUSH1 0x80 DUP4 ADD DUP9 PUSH2 0xFEB JUMP JUMPDEST PUSH2 0x123B PUSH1 0xA0 DUP4 ADD DUP8 PUSH2 0xFA0 JUMP JUMPDEST PUSH2 0x1248 PUSH1 0xC0 DUP4 ADD DUP7 PUSH2 0xF91 JUMP JUMPDEST PUSH2 0x1255 PUSH1 0xE0 DUP4 ADD DUP6 PUSH2 0x1090 JUMP JUMPDEST PUSH2 0x1263 PUSH2 0x100 DUP4 ADD DUP5 PUSH2 0x1054 JUMP JUMPDEST DUP2 DUP2 SUB PUSH2 0x120 DUP4 ADD MSTORE PUSH2 0x1275 DUP2 PUSH2 0x10F6 JUMP JUMPDEST SWAP1 POP SWAP11 SWAP10 POP POP POP POP POP POP POP POP POP POP JUMP JUMPDEST PUSH1 0x0 PUSH2 0x140 DUP3 ADD SWAP1 POP PUSH2 0x129B PUSH1 0x0 DUP4 ADD DUP13 PUSH2 0x1018 JUMP JUMPDEST PUSH2 0x12A8 PUSH1 0x20 DUP4 ADD DUP12 PUSH2 0xFBE JUMP JUMPDEST PUSH2 0x12B5 PUSH1 0x40 DUP4 ADD DUP11 PUSH2 0x1027 JUMP JUMPDEST PUSH2 0x12C2 PUSH1 0x60 DUP4 ADD DUP10 PUSH2 0x1036 JUMP JUMPDEST PUSH2 0x12CF PUSH1 0x80 DUP4 ADD DUP9 PUSH2 0x1009 JUMP JUMPDEST PUSH2 0x12DC PUSH1 0xA0 DUP4 ADD DUP8 PUSH2 0xFA0 JUMP JUMPDEST PUSH2 0x12E9 PUSH1 0xC0 DUP4 ADD DUP7 PUSH2 0xF91 JUMP JUMPDEST PUSH2 0x12F6 PUSH1 0xE0 DUP4 ADD DUP6 PUSH2 0x1081 JUMP JUMPDEST PUSH2 0x1304 PUSH2 0x100 DUP4 ADD DUP5 PUSH2 0x1063 JUMP JUMPDEST DUP2 DUP2 SUB PUSH2 0x120 DUP4 ADD MSTORE PUSH2 0x1316 DUP2 PUSH2 0x10F6 JUMP JUMPDEST SWAP1 POP SWAP11 SWAP10 POP POP POP POP POP POP POP POP POP POP JUMP JUMPDEST PUSH1 0x0 PUSH2 0x140 DUP3 ADD SWAP1 POP PUSH2 0x133C PUSH1 0x0 DUP4 ADD DUP13 PUSH2 0x1027 JUMP JUMPDEST PUSH2 0x1349 PUSH1 0x20 DUP4 ADD DUP12 PUSH2 0xFCD JUMP JUMPDEST PUSH2 0x1356 PUSH1 0x40 DUP4 ADD DUP11 PUSH2 0x1018 JUMP JUMPDEST PUSH2 0x1363 PUSH1 0x60 DUP4 ADD DUP10 PUSH2 0xFA0 JUMP JUMPDEST PUSH2 0x1370 PUSH1 0x80 DUP4 ADD DUP9 PUSH2 0x10AE JUMP JUMPDEST PUSH2 0x137D PUSH1 0xA0 DUP4 ADD DUP8 PUSH2 0xFA0 JUMP JUMPDEST PUSH2 0x138A PUSH1 0xC0 DUP4 ADD DUP7 PUSH2 0xF91 JUMP JUMPDEST PUSH2 0x1397 PUSH1 0xE0 DUP4 ADD DUP6 PUSH2 0x1072 JUMP JUMPDEST PUSH2 0x13A5 PUSH2 0x100 DUP4 ADD DUP5 PUSH2 0xFA0 JUMP JUMPDEST DUP2 DUP2 SUB PUSH2 0x120 DUP4 ADD MSTORE PUSH2 0x13B7 DUP2 PUSH2 0x10F6 JUMP JUMPDEST SWAP1 POP SWAP11 SWAP10 POP POP POP POP POP POP POP POP POP POP JUMP JUMPDEST PUSH1 0x0 PUSH1 0x20 DUP3 ADD SWAP1 POP DUP2 DUP2 SUB PUSH1 0x0 DUP4 ADD MSTORE PUSH2 0x13E1 DUP2 DUP5 PUSH2 0x10BD JUMP JUMPDEST SWAP1 POP SWAP3 SWAP2 POP POP JUMP JUMPDEST PUSH1 0x0 PUSH1 0x20 DUP3 ADD SWAP1 POP PUSH2 0x13FE PUSH1 0x0 DUP4 ADD DUP5 PUSH2 0x1119 JUMP JUMPDEST SWAP3 SWAP2 POP POP JUMP JUMPDEST PUSH1 0x0 PUSH1 0x40 DUP3 ADD SWAP1 POP PUSH2 0x1419 PUSH1 0x0 DUP4 ADD DUP6 PUSH2 0x1119 JUMP JUMPDEST PUSH2 0x1426 PUSH1 0x20 DUP4 ADD DUP5 PUSH2 0xF91 JUMP JUMPDEST SWAP4 SWAP3 POP POP POP JUMP JUMPDEST PUSH1 0x0 PUSH1 0x40 DUP3 ADD SWAP1 POP PUSH2 0x1442 PUSH1 0x0 DUP4 ADD DUP6 PUSH2 0x1119 JUMP JUMPDEST PUSH2 0x144F PUSH1 0x20 DUP4 ADD DUP5 PUSH2 0x1119 JUMP JUMPDEST SWAP4 SWAP3 POP POP POP JUMP JUMPDEST PUSH1 0x0 PUSH2 0x1460 PUSH2 0x1471 JUMP JUMPDEST SWAP1 POP PUSH2 0x146C DUP3 DUP3 PUSH2 0x1777 JUMP JUMPDEST SWAP2 SWAP1 POP JUMP JUMPDEST PUSH1 0x0 PUSH1 0x40 MLOAD SWAP1 POP SWAP1 JUMP JUMPDEST PUSH1 0x0 PUSH8 0xFFFFFFFFFFFFFFFF DUP3 GT ISZERO PUSH2 0x1496 JUMPI PUSH2 0x1495 PUSH2 0x187E JUMP JUMPDEST JUMPDEST PUSH1 0x20 DUP3 MUL SWAP1 POP PUSH1 0x20 DUP2 ADD SWAP1 POP SWAP2 SWAP1 POP JUMP JUMPDEST PUSH1 0x0 DUP2 MLOAD SWAP1 POP SWAP2 SWAP1 POP JUMP JUMPDEST PUSH1 0x0 DUP3 DUP3 MSTORE PUSH1 0x20 DUP3 ADD SWAP1 POP SWAP3 SWAP2 POP POP JUMP JUMPDEST PUSH1 0x0 PUSH2 0x14CE DUP3 PUSH2 0x15E4 JUMP JUMPDEST SWAP2 POP PUSH2 0x14D9 DUP4 PUSH2 0x15E4 JUMP JUMPDEST SWAP3 POP DUP3 PUSH32 0xFFFFFFFFFFFFFFFFFFFFFFFFFFFFFFFFFFFFFFFFFFFFFFFFFFFFFFFFFFFFFFFF SUB DUP3 GT ISZERO PUSH2 0x150E JUMPI PUSH2 0x150D PUSH2 0x17F1 JUMP JUMPDEST JUMPDEST DUP3 DUP3 ADD SWAP1 POP SWAP3 SWAP2 POP POP JUMP JUMPDEST PUSH1 0x0 PUSH2 0x1524 DUP3 PUSH2 0x15E4 JUMP JUMPDEST SWAP2 POP PUSH2 0x152F DUP4 PUSH2 0x15E4 JUMP JUMPDEST SWAP3 POP DUP3 PUSH2 0x153F JUMPI PUSH2 0x153E PUSH2 0x1820 JUMP JUMPDEST JUMPDEST DUP3 DUP3 DIV SWAP1 POP SWAP3 SWAP2 POP POP JUMP JUMPDEST PUSH1 0x0 PUSH2 0x1555 DUP3 PUSH2 0x15E4 JUMP JUMPDEST SWAP2 POP PUSH2 0x1560 DUP4 PUSH2 0x15E4 JUMP JUMPDEST SWAP3 POP DUP2 PUSH32 0xFFFFFFFFFFFFFFFFFFFFFFFFFFFFFFFFFFFFFFFFFFFFFFFFFFFFFFFFFFFFFFFF DIV DUP4 GT DUP3 ISZERO ISZERO AND ISZERO PUSH2 0x1599 JUMPI PUSH2 0x1598 PUSH2 0x17F1 JUMP JUMPDEST JUMPDEST DUP3 DUP3 MUL SWAP1 POP SWAP3 SWAP2 POP POP JUMP JUMPDEST PUSH1 0x0 PUSH2 0x15AF DUP3 PUSH2 0x15E4 JUMP JUMPDEST SWAP2 POP PUSH2 0x15BA DUP4 PUSH2 0x15E4 JUMP JUMPDEST SWAP3 POP DUP3 DUP3 LT ISZERO PUSH2 0x15CD JUMPI PUSH2 0x15CC PUSH2 0x17F1 JUMP JUMPDEST JUMPDEST DUP3 DUP3 SUB SWAP1 POP SWAP3 SWAP2 POP POP JUMP JUMPDEST PUSH1 0x0 DUP2 ISZERO ISZERO SWAP1 POP SWAP2 SWAP1 POP JUMP JUMPDEST PUSH1 0x0 DUP2 SWAP1 POP SWAP2 SWAP1 POP JUMP JUMPDEST PUSH1 0x0 PUSH2 0x15F9 DUP3 PUSH2 0x15E4 JUMP JUMPDEST SWAP1 POP SWAP2 SWAP1 POP JUMP JUMPDEST PUSH1 0x0 PUSH2 0x160B DUP3 PUSH2 0x15E4 JUMP JUMPDEST SWAP1 POP SWAP2 SWAP1 POP JUMP JUMPDEST PUSH1 0x0 PUSH2 0x161D DUP3 PUSH2 0x15E4 JUMP JUMPDEST SWAP1 POP SWAP2 SWAP1 POP JUMP JUMPDEST PUSH1 0x0 PUSH2 0x162F DUP3 PUSH2 0x15E4 JUMP JUMPDEST SWAP1 POP SWAP2 SWAP1 POP JUMP JUMPDEST PUSH1 0x0 PUSH2 0x1641 DUP3 PUSH2 0x15E4 JUMP JUMPDEST SWAP1 POP SWAP2 SWAP1 POP JUMP JUMPDEST PUSH1 0x0 PUSH2 0x1653 DUP3 PUSH2 0x15E4 JUMP JUMPDEST SWAP1 POP SWAP2 SWAP1 POP JUMP JUMPDEST PUSH1 0x0 PUSH2 0x1665 DUP3 PUSH2 0x15E4 JUMP JUMPDEST SWAP1 POP SWAP2 SWAP1 POP JUMP JUMPDEST PUSH1 0x0 PUSH2 0x1677 DUP3 PUSH2 0x15E4 JUMP JUMPDEST SWAP1 POP SWAP2 SWAP1 POP JUMP JUMPDEST PUSH1 0x0 PUSH2 0x1689 DUP3 PUSH2 0x15E4 JUMP JUMPDEST SWAP1 POP SWAP2 SWAP1 POP JUMP JUMPDEST PUSH1 0x0 PUSH2 0x169B DUP3 PUSH2 0x15E4 JUMP JUMPDEST SWAP1 POP SWAP2 SWAP1 POP JUMP JUMPDEST PUSH1 0x0 PUSH2 0x16AD DUP3 PUSH2 0x15E4 JUMP JUMPDEST SWAP1 POP SWAP2 SWAP1 POP JUMP JUMPDEST PUSH1 0x0 PUSH2 0x16BF DUP3 PUSH2 0x15E4 JUMP JUMPDEST SWAP1 POP SWAP2 SWAP1 POP JUMP JUMPDEST PUSH1 0x0 PUSH2 0x16D1 DUP3 PUSH2 0x15E4 JUMP JUMPDEST SWAP1 POP SWAP2 SWAP1 POP JUMP JUMPDEST PUSH1 0x0 PUSH2 0x16E3 DUP3 PUSH2 0x15E4 JUMP JUMPDEST SWAP1 POP SWAP2 SWAP1 POP JUMP JUMPDEST PUSH1 0x0 PUSH2 0x16F5 DUP3 PUSH2 0x15E4 JUMP JUMPDEST SWAP1 POP SWAP2 SWAP1 POP JUMP JUMPDEST PUSH1 0x0 PUSH2 0x1707 DUP3 PUSH2 0x15E4 JUMP JUMPDEST SWAP1 POP SWAP2 SWAP1 POP JUMP JUMPDEST PUSH1 0x0 PUSH2 0x1719 DUP3 PUSH2 0x15E4 JUMP JUMPDEST SWAP1 POP SWAP2 SWAP1 POP JUMP JUMPDEST PUSH1 0x0 PUSH2 0x172B DUP3 PUSH2 0x15E4 JUMP JUMPDEST SWAP1 POP SWAP2 SWAP1 POP JUMP JUMPDEST PUSH1 0x0 PUSH2 0x173D DUP3 PUSH2 0x15E4 JUMP JUMPDEST SWAP1 POP SWAP2 SWAP1 POP JUMP JUMPDEST PUSH1 0x0 JUMPDEST DUP4 DUP2 LT ISZERO PUSH2 0x1762 JUMPI DUP1 DUP3 ADD MLOAD DUP2 DUP5 ADD MSTORE PUSH1 0x20 DUP2 ADD SWAP1 POP PUSH2 0x1747 JUMP JUMPDEST DUP4 DUP2 GT ISZERO PUSH2 0x1771 JUMPI PUSH1 0x0 DUP5 DUP5 ADD MSTORE JUMPDEST POP POP POP POP JUMP JUMPDEST PUSH2 0x1780 DUP3 PUSH2 0x18C1 JUMP JUMPDEST DUP2 ADD DUP2 DUP2 LT PUSH8 0xFFFFFFFFFFFFFFFF DUP3 GT OR ISZERO PUSH2 0x179F JUMPI PUSH2 0x179E PUSH2 0x187E JUMP JUMPDEST JUMPDEST DUP1 PUSH1 0x40 MSTORE POP POP POP JUMP JUMPDEST PUSH1 0x0 PUSH2 0x17B3 DUP3 PUSH2 0x15E4 JUMP JUMPDEST SWAP2 POP PUSH32 0xFFFFFFFFFFFFFFFFFFFFFFFFFFFFFFFFFFFFFFFFFFFFFFFFFFFFFFFFFFFFFFFF DUP3 EQ ISZERO PUSH2 0x17E6 JUMPI PUSH2 0x17E5 PUSH2 0x17F1 JUMP JUMPDEST JUMPDEST PUSH1 0x1 DUP3 ADD SWAP1 POP SWAP2 SWAP1 POP JUMP JUMPDEST PUSH32 0x4E487B7100000000000000000000000000000000000000000000000000000000 PUSH1 0x0 MSTORE PUSH1 0x11 PUSH1 0x4 MSTORE PUSH1 0x24 PUSH1 0x0 REVERT JUMPDEST PUSH32 0x4E487B7100000000000000000000000000000000000000000000000000000000 PUSH1 0x0 MSTORE PUSH1 0x12 PUSH1 0x4 MSTORE PUSH1 0x24 PUSH1 0x0 REVERT JUMPDEST PUSH32 0x4E487B7100000000000000000000000000000000000000000000000000000000 PUSH1 0x0 MSTORE PUSH1 0x32 PUSH1 0x4 MSTORE PUSH1 0x24 PUSH1 0x0 REVERT JUMPDEST PUSH32 0x4E487B7100000000000000000000000000000000000000000000000000000000 PUSH1 0x0 MSTORE PUSH1 0x41 PUSH1 0x4 MSTORE PUSH1 0x24 PUSH1 0x0 REVERT JUMPDEST PUSH1 0x0 DUP1 REVERT JUMPDEST PUSH1 0x0 DUP1 REVERT JUMPDEST PUSH1 0x0 DUP1 REVERT JUMPDEST PUSH1 0x0 DUP1 REVERT JUMPDEST PUSH1 0x0 PUSH1 0x1F NOT PUSH1 0x1F DUP4 ADD AND SWAP1 POP SWAP2 SWAP1 POP JUMP JUMPDEST POP JUMP JUMPDEST PUSH2 0x18DE DUP2 PUSH2 0x15E4 JUMP JUMPDEST DUP2 EQ PUSH2 0x18E9 JUMPI PUSH1 0x0 DUP1 REVERT JUMPDEST POP JUMP INVALID LOG2 PUSH5 0x6970667358 0x22 SLT KECCAK256 0xA9 0xBB 0xE1 GAS RETURNDATASIZE CREATE2 GASLIMIT 0xC5 0x2C SWAP7 0x29 SAR 0x25 0xA7 MOD DUP6 SGT 0x48 0xFB 0xDE LOG0 RETURNDATACOPY 0xB9 0xD4 0x4D 0xAA PUSH1 0xE8 SGT 0x1F 0xB6 0xAF PUSH5 0x736F6C6343 STOP ADDMOD MOD STOP CALLER "
		},
		"gasEstimates": {
			"creation": {
				"codeDepositCost": "1286800",
				"executionCost": "1342",
				"totalCost": "1288142"
			},
			"external": {
				"AddCustomer(uint256,uint256,uint256,uint256)": "infinite",
				"CreateCustomers()": "infinite",
				"CreateTaxis()": "infinite",
				"CustomerAuthentication(uint256,uint256)": "infinite",
				"GetClosestVehicle(uint256[],uint256[],uint256)": "infinite",
				"InitialFeeCalculation(uint256,uint256)": "infinite",
				"OrderTaxi(uint256,uint256,uint256)": "infinite",
				"TravelFeeCalculation(uint256,uint256)": "infinite"
			}
		},
		"methodIdentifiers": {
			"AddCustomer(uint256,uint256,uint256,uint256)": "33c5342a",
			"CreateCustomers()": "fce64527",
			"CreateTaxis()": "3d805796",
			"CustomerAuthentication(uint256,uint256)": "7ee75515",
			"GetClosestVehicle(uint256[],uint256[],uint256)": "723e1129",
			"InitialFeeCalculation(uint256,uint256)": "ccbcfe75",
			"OrderTaxi(uint256,uint256,uint256)": "b2f563b8",
			"TravelFeeCalculation(uint256,uint256)": "6c9dca97"
		}
	},
	"abi": [
		{
			"inputs": [
				{
					"internalType": "uint256",
					"name": "_id",
					"type": "uint256"
				},
				{
					"internalType": "uint256",
					"name": "_money",
					"type": "uint256"
				},
				{
					"internalType": "uint256",
					"name": "_auth_key",
					"type": "uint256"
				},
				{
					"internalType": "uint256",
					"name": "_location",
					"type": "uint256"
				}
			],
			"name": "AddCustomer",
			"outputs": [],
			"stateMutability": "nonpayable",
			"type": "function"
		},
		{
			"inputs": [],
			"name": "CreateCustomers",
			"outputs": [],
			"stateMutability": "nonpayable",
			"type": "function"
		},
		{
			"inputs": [],
			"name": "CreateTaxis",
			"outputs": [],
			"stateMutability": "nonpayable",
			"type": "function"
		},
		{
			"inputs": [
				{
					"internalType": "uint256",
					"name": "id",
					"type": "uint256"
				},
				{
					"internalType": "uint256",
					"name": "auth_key",
					"type": "uint256"
				}
			],
			"name": "CustomerAuthentication",
			"outputs": [
				{
					"internalType": "bool",
					"name": "",
					"type": "bool"
				}
			],
			"stateMutability": "view",
			"type": "function"
		},
		{
			"inputs": [
				{
					"internalType": "uint256[]",
					"name": "taxi_ids",
					"type": "uint256[]"
				},
				{
					"internalType": "uint256[]",
					"name": "taxi_loc",
					"type": "uint256[]"
				},
				{
					"internalType": "uint256",
					"name": "location",
					"type": "uint256"
				}
			],
			"name": "GetClosestVehicle",
			"outputs": [
				{
					"internalType": "uint256",
					"name": "",
					"type": "uint256"
				}
			],
			"stateMutability": "pure",
			"type": "function"
		},
		{
			"inputs": [
				{
					"internalType": "uint256",
					"name": "uloc",
					"type": "uint256"
				},
				{
					"internalType": "uint256",
					"name": "vid",
					"type": "uint256"
				}
			],
			"name": "InitialFeeCalculation",
			"outputs": [
				{
					"internalType": "uint256",
					"name": "",
					"type": "uint256"
				}
			],
			"stateMutability": "view",
			"type": "function"
		},
		{
			"inputs": [
				{
					"internalType": "uint256",
					"name": "id",
					"type": "uint256"
				},
				{
					"internalType": "uint256",
					"name": "auth_key",
					"type": "uint256"
				},
				{
					"internalType": "uint256",
					"name": "destination",
					"type": "uint256"
				}
			],
			"name": "OrderTaxi",
			"outputs": [
				{
					"internalType": "string",
					"name": "",
					"type": "string"
				}
			],
			"stateMutability": "nonpayable",
			"type": "function"
		},
		{
			"inputs": [
				{
					"internalType": "uint256",
					"name": "uloc",
					"type": "uint256"
				},
				{
					"internalType": "uint256",
					"name": "destination",
					"type": "uint256"
				}
			],
			"name": "TravelFeeCalculation",
			"outputs": [
				{
					"internalType": "uint256",
					"name": "",
					"type": "uint256"
				}
			],
			"stateMutability": "pure",
			"type": "function"
		}
	]
}