{
    "contractName": "Calculator",
    "abi": [
        {
            "inputs": [
                {
                    "internalType": "uint256",
                    "name": "a",
                    "type": "uint256"
                },
                {
                    "internalType": "uint256",
                    "name": "b",
                    "type": "uint256"
                }
            ],
            "name": "add",
            "outputs": [
                {
                    "internalType": "uint256",
                    "name": "",
                    "type": "uint256"
                }
            ],
            "stateMutability": "view",
            "type": "function"
        },
        {
            "inputs": [
                {
                    "internalType": "uint256",
                    "name": "a",
                    "type": "uint256"
                },
                {
                    "internalType": "uint256",
                    "name": "b",
                    "type": "uint256"
                }
            ],
            "name": "divide",
            "outputs": [
                {
                    "internalType": "uint256",
                    "name": "",
                    "type": "uint256"
                }
            ],
            "stateMutability": "view",
            "type": "function"
        },
        {
            "inputs": [
                {
                    "internalType": "uint256",
                    "name": "a",
                    "type": "uint256"
                },
                {
                    "internalType": "uint256",
                    "name": "b",
                    "type": "uint256"
                }
            ],
            "name": "multiply",
            "outputs": [
                {
                    "internalType": "uint256",
                    "name": "",
                    "type": "uint256"
                }
            ],
            "stateMutability": "view",
            "type": "function"
        },
        {
            "inputs": [
                {
                    "internalType": "uint256",
                    "name": "a",
                    "type": "uint256"
                },
                {
                    "internalType": "uint256",
                    "name": "b",
                    "type": "uint256"
                }
            ],
            "name": "subtract",
            "outputs": [
                {
                    "internalType": "uint256",
                    "name": "",
                    "type": "uint256"
                }
            ],
            "stateMutability": "view",
            "type": "function"
        }
    ],
    "bytecode": "608060405234801561001057600080fd5b506101c4806100206000396000f3fe608060405234801561001057600080fd5b506004361061004c5760003560e01c8063165c4a16146100515780633ef5e44514610076578063771602f714610089578063f88e9fbf1461009c575b600080fd5b61006461005f3660046100e6565b6100af565b60405190815260200160405180910390f35b6100646100843660046100e6565b6100c2565b6100646100973660046100e6565b6100ce565b6100646100aa3660046100e6565b6100da565b60006100bb828461011e565b9392505050565b60006100bb828461013d565b60006100bb8284610154565b60006100bb828461016c565b600080604083850312156100f957600080fd5b50508035926020909101359150565b634e487b7160e01b600052601160045260246000fd5b600081600019048311821515161561013857610138610108565b500290565b60008282101561014f5761014f610108565b500390565b6000821982111561016757610167610108565b500190565b60008261018957634e487b7160e01b600052601260045260246000fd5b50049056fea2646970667358221220e735ee343c8c664c204ba12c215aad6721379696d4c9f769c215e90049038b9664736f6c634300080b0033",
    "sourcePath": "/Users/collinstratton/Google Drive/School/GCU/Fall 2021 - Spring 2022/CST-461/CST-461/IntroductionToEthereum/Program2.sol",
    "compiler": {
        "name": "solc",
        "version": "0.8.11+commit.d7f03943"
    },
    "functionHashes": {
        "add(uint256,uint256)": "771602f7",
        "divide(uint256,uint256)": "f88e9fbf",
        "multiply(uint256,uint256)": "165c4a16",
        "subtract(uint256,uint256)": "3ef5e445"
    },
    "gasEstimates": {
        "creation": {
            "codeDepositCost": "90400",
            "executionCost": "141",
            "totalCost": "90541"
        },
        "external": {
            "add(uint256,uint256)": "396",
            "divide(uint256,uint256)": "408",
            "multiply(uint256,uint256)": "374",
            "subtract(uint256,uint256)": "371"
        }
    }
}