{
    "contractName": "simpleVoter",
    "abi": [
        {
            "inputs": [],
            "name": "totalVotesA",
            "outputs": [
                {
                    "internalType": "uint256",
                    "name": "",
                    "type": "uint256"
                }
            ],
            "stateMutability": "view",
            "type": "function"
        },
        {
            "inputs": [],
            "name": "totalVotesB",
            "outputs": [
                {
                    "internalType": "uint256",
                    "name": "",
                    "type": "uint256"
                }
            ],
            "stateMutability": "view",
            "type": "function"
        },
        {
            "inputs": [],
            "name": "voteForA",
            "outputs": [],
            "stateMutability": "nonpayable",
            "type": "function"
        },
        {
            "inputs": [],
            "name": "voteForB",
            "outputs": [],
            "stateMutability": "nonpayable",
            "type": "function"
        },
        {
            "inputs": [],
            "name": "winner",
            "outputs": [
                {
                    "internalType": "string",
                    "name": "",
                    "type": "string"
                }
            ],
            "stateMutability": "view",
            "type": "function"
        }
    ],
    "bytecode": "608060405260008055600060015534801561001957600080fd5b506101ec806100296000396000f3fe608060405234801561001057600080fd5b50600436106100575760003560e01c80633ab46c861461005c578063a98fe17e14610073578063cc42f5b41461007d578063cdcf3e8e14610085578063dfbf53ae1461008d575b600080fd5b6000545b6040519081526020015b60405180910390f35b61007b6100a2565b005b600154610060565b61007b6100b9565b6100956100c8565b60405161006a9190610138565b600180549060006100b28361018d565b9190505550565b6000805490806100b28361018d565b606060015460005411156100f257506040805180820190915260018152604160f81b602082015290565b600054600154111561011a57506040805180820190915260018152602160f91b602082015290565b5060408051808201909152600381526254696560e81b602082015290565b600060208083528351808285015260005b8181101561016557858101830151858201604001528201610149565b81811115610177576000604083870101525b50601f01601f1916929092016040019392505050565b60006000198214156101af57634e487b7160e01b600052601160045260246000fd5b506001019056fea2646970667358221220b77fcc4217e3ce0fbabb4672ad713e1e189bae51adb05f04678706505248491864736f6c634300080b0033",
    "sourcePath": "/Users/collinstratton/Google Drive/School/GCU/Fall 2021 - Spring 2022/CST-461/CST-461/IntroductionToEthereum/Program4.sol",
    "compiler": {
        "name": "solc",
        "version": "0.8.11+commit.d7f03943"
    },
    "functionHashes": {
        "totalVotesA()": "3ab46c86",
        "totalVotesB()": "cc42f5b4",
        "voteForA()": "cdcf3e8e",
        "voteForB()": "a98fe17e",
        "winner()": "dfbf53ae"
    },
    "gasEstimates": {
        "creation": {
            "codeDepositCost": "98400",
            "executionCost": "10159",
            "totalCost": "108559"
        },
        "external": {
            "totalVotesA()": "2248",
            "totalVotesB()": "2303",
            "voteForA()": "24480",
            "voteForB()": "24436",
            "winner()": "infinite"
        }
    }
}