{
    "contractName": "SimpleStorage",
    "abi": [
        {
            "inputs": [
                {
                    "internalType": "uint256",
                    "name": "x",
                    "type": "uint256"
                }
            ],
            "name": "append",
            "outputs": [],
            "stateMutability": "nonpayable",
            "type": "function"
        },
        {
            "inputs": [],
            "name": "getArr",
            "outputs": [
                {
                    "internalType": "uint256[]",
                    "name": "",
                    "type": "uint256[]"
                }
            ],
            "stateMutability": "view",
            "type": "function"
        },
        {
            "inputs": [
                {
                    "internalType": "uint256",
                    "name": "pos",
                    "type": "uint256"
                }
            ],
            "name": "removeAt",
            "outputs": [],
            "stateMutability": "nonpayable",
            "type": "function"
        },
        {
            "inputs": [],
            "name": "sum",
            "outputs": [
                {
                    "internalType": "uint256",
                    "name": "",
                    "type": "uint256"
                }
            ],
            "stateMutability": "view",
            "type": "function"
        }
    ],
    "bytecode": "6000808055608081905260a0604081905261001d9160019190610030565b5034801561002a57600080fd5b50610090565b82805482825590600052602060002090810192821561006b579160200282015b8281111561006b578251825591602001919060010190610050565b5061007792915061007b565b5090565b5b80821115610077576000815560010161007c565b6102958061009f6000396000f3fe608060405234801561001057600080fd5b506004361061004c5760003560e01c8063853255cc14610051578063c624c6f21461006c578063e33b870714610081578063fb8cbced146100c3575b600080fd5b6100596100d8565b6040519081526020015b60405180910390f35b61007f61007a3660046101a3565b61012a565b005b61007f61008f3660046101a3565b6001805480820182556000919091527fb10e2d527612073b26eecdfd717e6a320cf44b4afac2b0732d9fcbe2b7fa0cf60155565b6100cb61014b565b60405161006391906101bc565b600080805b60015481101561012457600181815481106100fa576100fa610200565b906000526020600020015482610110919061022c565b91508061011c81610244565b9150506100dd565b50919050565b6001818154811061013d5761013d610200565b600091825260208220015550565b6060600180548060200260200160405190810160405280929190818152602001828054801561019957602002820191906000526020600020905b815481526020019060010190808311610185575b5050505050905090565b6000602082840312156101b557600080fd5b5035919050565b6020808252825182820181905260009190848201906040850190845b818110156101f4578351835292840192918401916001016101d8565b50909695505050505050565b634e487b7160e01b600052603260045260246000fd5b634e487b7160e01b600052601160045260246000fd5b6000821982111561023f5761023f610216565b500190565b600060001982141561025857610258610216565b506001019056fea264697066735822122011b049ce7e54508d255a0a60e60ea912cd284b72cf50a88f908a76259ca52aba64736f6c634300080b0033",
    "sourcePath": "/Users/collinstratton/Google Drive/School/GCU/Fall 2021 - Spring 2022/CST-461/CST-461/IntroductionToEthereum/Program1.sol",
    "compiler": {
        "name": "solc",
        "version": "0.8.11+commit.d7f03943"
    },
    "functionHashes": {
        "append(uint256)": "e33b8707",
        "getArr()": "fb8cbced",
        "removeAt(uint256)": "c624c6f2",
        "sum()": "853255cc"
    },
    "gasEstimates": {
        "creation": {
            "codeDepositCost": "132200",
            "executionCost": "infinite",
            "totalCost": "infinite"
        },
        "external": {
            "append(uint256)": "46570",
            "getArr()": "infinite",
            "removeAt(uint256)": "7409",
            "sum()": "infinite"
        }
    }
}