{
    "contractName": "Store",
    "abi": [
        {
            "inputs": [
                {
                    "internalType": "uint256",
                    "name": "amount",
                    "type": "uint256"
                }
            ],
            "name": "addFunds",
            "outputs": [],
            "stateMutability": "nonpayable",
            "type": "function"
        },
        {
            "inputs": [],
            "name": "buyOutfit",
            "outputs": [],
            "stateMutability": "payable",
            "type": "function"
        },
        {
            "inputs": [],
            "name": "buyPants",
            "outputs": [],
            "stateMutability": "payable",
            "type": "function"
        },
        {
            "inputs": [],
            "name": "buyShirt",
            "outputs": [],
            "stateMutability": "payable",
            "type": "function"
        },
        {
            "inputs": [],
            "name": "totalMoney",
            "outputs": [
                {
                    "internalType": "uint256",
                    "name": "",
                    "type": "uint256"
                }
            ],
            "stateMutability": "view",
            "type": "function"
        }
    ],
    "bytecode": "608060405260008055600a600155601460025534801561001e57600080fd5b506101d48061002e6000396000f3fe60806040526004361061004a5760003560e01c806328366a6b1461004f578063347a2c951461005957806387da21e314610061578063be99970514610083578063dad2b643146100a3575b600080fd5b6100576100ab565b005b6100576100eb565b34801561006d57600080fd5b5060005460405190815260200160405180910390f35b34801561008f57600080fd5b5061005761009e366004610140565b610109565b610057610122565b6000546002546001546100be919061016f565b116100e9576002546001546100d3919061016f565b6000808282546100e39190610187565b90915550505b565b600054600254116100e9576002546000808282546100e39190610187565b8060008082825461011a919061016f565b909155505050565b600054600154116100e9576001546000808282546100e39190610187565b60006020828403121561015257600080fd5b5035919050565b634e487b7160e01b600052601160045260246000fd5b6000821982111561018257610182610159565b500190565b60008282101561019957610199610159565b50039056fea26469706673582212206c0b0622350731097720c0e6a43de29ebb3b662513bca578027511bafdbfa89664736f6c634300080b0033",
    "sourcePath": "/Users/collinstratton/Google Drive/School/GCU/Fall 2021 - Spring 2022/CST-461/CST-461/IntroductionToEthereum/Program3.sol",
    "compiler": {
        "name": "solc",
        "version": "0.8.11+commit.d7f03943"
    },
    "functionHashes": {
        "addFunds(uint256)": "be999705",
        "buyOutfit()": "28366a6b",
        "buyPants()": "347a2c95",
        "buyShirt()": "dad2b643",
        "totalMoney()": "87da21e3"
    },
    "gasEstimates": {
        "creation": {
            "codeDepositCost": "93600",
            "executionCost": "49359",
            "totalCost": "142959"
        },
        "external": {
            "addFunds(uint256)": "24562",
            "buyOutfit()": "infinite",
            "buyPants()": "30735",
            "buyShirt()": "30801",
            "totalMoney()": "2290"
        }
    }
}