{
    "contractName": "creator",
    "abi": [
        {
            "inputs": [
                {
                    "internalType": "uint32",
                    "name": "cID_",
                    "type": "uint32"
                },
                {
                    "internalType": "uint32",
                    "name": "mID_",
                    "type": "uint32"
                }
            ],
            "name": "addMove",
            "outputs": [
                {
                    "internalType": "string",
                    "name": "",
                    "type": "string"
                }
            ],
            "stateMutability": "nonpayable",
            "type": "function"
        },
        {
            "inputs": [
                {
                    "internalType": "string",
                    "name": "n",
                    "type": "string"
                },
                {
                    "internalType": "uint32",
                    "name": "a",
                    "type": "uint32"
                },
                {
                    "internalType": "uint32",
                    "name": "d",
                    "type": "uint32"
                },
                {
                    "internalType": "uint32",
                    "name": "h",
                    "type": "uint32"
                }
            ],
            "name": "createCryptomon",
            "outputs": [
                {
                    "internalType": "string",
                    "name": "",
                    "type": "string"
                }
            ],
            "stateMutability": "nonpayable",
            "type": "function"
        },
        {
            "inputs": [
                {
                    "internalType": "string",
                    "name": "n",
                    "type": "string"
                },
                {
                    "internalType": "uint32",
                    "name": "d",
                    "type": "uint32"
                }
            ],
            "name": "createMove",
            "outputs": [
                {
                    "internalType": "string",
                    "name": "",
                    "type": "string"
                }
            ],
            "stateMutability": "nonpayable",
            "type": "function"
        },
        {
            "inputs": [
                {
                    "internalType": "uint32",
                    "name": "",
                    "type": "uint32"
                }
            ],
            "name": "cryptomonList",
            "outputs": [
                {
                    "internalType": "uint32",
                    "name": "id",
                    "type": "uint32"
                },
                {
                    "internalType": "string",
                    "name": "name",
                    "type": "string"
                },
                {
                    "internalType": "uint32",
                    "name": "attack",
                    "type": "uint32"
                },
                {
                    "internalType": "uint32",
                    "name": "defense",
                    "type": "uint32"
                },
                {
                    "internalType": "uint32",
                    "name": "hp",
                    "type": "uint32"
                },
                {
                    "internalType": "address",
                    "name": "owner",
                    "type": "address"
                },
                {
                    "components": [
                        {
                            "internalType": "uint32",
                            "name": "id",
                            "type": "uint32"
                        },
                        {
                            "internalType": "string",
                            "name": "name",
                            "type": "string"
                        },
                        {
                            "internalType": "uint32",
                            "name": "damage",
                            "type": "uint32"
                        }
                    ],
                    "internalType": "struct creator.move",
                    "name": "move1",
                    "type": "tuple"
                },
                {
                    "components": [
                        {
                            "internalType": "uint32",
                            "name": "id",
                            "type": "uint32"
                        },
                        {
                            "internalType": "string",
                            "name": "name",
                            "type": "string"
                        },
                        {
                            "internalType": "uint32",
                            "name": "damage",
                            "type": "uint32"
                        }
                    ],
                    "internalType": "struct creator.move",
                    "name": "move2",
                    "type": "tuple"
                }
            ],
            "stateMutability": "view",
            "type": "function"
        },
        {
            "inputs": [
                {
                    "internalType": "uint32",
                    "name": "",
                    "type": "uint32"
                }
            ],
            "name": "movesList",
            "outputs": [
                {
                    "internalType": "uint32",
                    "name": "id",
                    "type": "uint32"
                },
                {
                    "internalType": "string",
                    "name": "name",
                    "type": "string"
                },
                {
                    "internalType": "uint32",
                    "name": "damage",
                    "type": "uint32"
                }
            ],
            "stateMutability": "view",
            "type": "function"
        },
        {
            "inputs": [
                {
                    "internalType": "uint32",
                    "name": "cID_",
                    "type": "uint32"
                },
                {
                    "internalType": "address",
                    "name": "newOwner_",
                    "type": "address"
                }
            ],
            "name": "updateOwner",
            "outputs": [
                {
                    "internalType": "string",
                    "name": "",
                    "type": "string"
                }
            ],
            "stateMutability": "nonpayable",
            "type": "function"
        }
    ],
    "bytecode": "608060405234801561001057600080fd5b50610ea8806100206000396000f3fe608060405234801561001057600080fd5b50600436106100625760003560e01c8063558dfe1c1461006757806373ff50391461009057806393df1bca146100b2578063a73ad2a6146100d9578063bc5ff07b146100ec578063eda9da50146100ff575b600080fd5b61007a61007536600461097a565b610112565b6040516100879190610a0a565b60405180910390f35b6100a361009e366004610a24565b61017e565b60405161008793929190610a3f565b6100c56100c0366004610a24565b610237565b604051610087989796959493929190610ab1565b61007a6100e7366004610b30565b6104a1565b61007a6100fa366004610c06565b61070e565b61007a61010d366004610c75565b61081a565b63ffffffff82166000908152600360209081526040918290206002810180546bffffffffffffffffffffffff16600160601b6001600160a01b0387160217905591516060926101679260019091019101610d8d565b604051602081830303815290604052905092915050565b60016020819052600091825260409091208054918101805463ffffffff909316926101a890610cba565b80601f01602080910402602001604051908101604052809291908181526020018280546101d490610cba565b80156102215780601f106101f657610100808354040283529160200191610221565b820191906000526020600020905b81548152906001019060200180831161020457829003601f168201915b5050506002909301549192505063ffffffff1683565b6003602052600090815260409020805460018201805463ffffffff909216929161026090610cba565b80601f016020809104026020016040519081016040528092919081815260200182805461028c90610cba565b80156102d95780601f106102ae576101008083540402835291602001916102d9565b820191906000526020600020905b8154815290600101906020018083116102bc57829003601f168201915b505050506002830154604080516060810190915260038501805463ffffffff9081168352600487018054969782861697640100000000870484169750600160401b870490931695600160601b90046001600160a01b031694909390929091602084019161034590610cba565b80601f016020809104026020016040519081016040528092919081815260200182805461037190610cba565b80156103be5780601f10610393576101008083540402835291602001916103be565b820191906000526020600020905b8154815290600101906020018083116103a157829003601f168201915b50505091835250506002919091015463ffffffff90811660209283015260408051606081019091526006850180549092168152600785018054949594919384019161040890610cba565b80601f016020809104026020016040519081016040528092919081815260200182805461043490610cba565b80156104815780601f1061045657610100808354040283529160200191610481565b820191906000526020600020905b81548152906001019060200180831161046457829003601f168201915b50505091835250506002919091015463ffffffff16602090910152905088565b604080516060818101835263ffffffff80851660008181526001602081815296822080549094168652918152818652910180549294919392918301916104e690610cba565b80601f016020809104026020016040519081016040528092919081815260200182805461051290610cba565b801561055f5780601f106105345761010080835404028352916020019161055f565b820191906000526020600020905b81548152906001019060200180831161054257829003601f168201915b505050918352505063ffffffff80861660009081526001602090815260408083206002015484169482019490945291881681526003909152206004018054919250906105aa90610cba565b90506000036106255763ffffffff84811660009081526003602081815260409092208451918101805463ffffffff1916929094169190911783558382015180518594936105fc936004019201906108c8565b50604091909101516002909101805463ffffffff191663ffffffff9092169190911790556106bd565b63ffffffff84166000908152600360205260409020600701805461064890610cba565b90506000036106bd5763ffffffff8481166000908152600360209081526040909120835160068201805463ffffffff191691909416178355838201518051859493610698936007019201906108c8565b50604091909101516002909101805463ffffffff191663ffffffff9092169190911790555b63ffffffff80841660009081526001602081815260408084209489168452600382529283902092516106f6948301939092019101610dc6565b60405160208183030381529060405291505092915050565b6002805460609160009163ffffffff16908261072983610e0f565b82546101009290920a63ffffffff81810219909316918316021790915581166000818152600360209081526040909120805463ffffffff1916909217825588519293506107809260019290920191908901906108c8565b5063ffffffff8181166000908152600360209081526040918290206002810180548a861667ffffffffffffffff19909116176401000000008a8716021767ffffffffffffffff16600160401b958916959095026bffffffffffffffffffffffff169490941733600160601b02179093559051610800926001019101610e40565b604051602081830303815290604052915050949350505050565b600080546060919063ffffffff16818061083383610e0f565b82546101009290920a63ffffffff81810219909316918316021790915581166000818152600160208181526040909220805463ffffffff19169093178355875193945061088693920191908701906108c8565b5063ffffffff81811660009081526001602081815260409283902060028101805463ffffffff19169589169590951790945591516106f6939091019101610e40565b8280546108d490610cba565b90600052602060002090601f0160209004810192826108f6576000855561093c565b82601f1061090f57805160ff191683800117855561093c565b8280016001018555821561093c579182015b8281111561093c578251825591602001919060010190610921565b5061094892915061094c565b5090565b5b80821115610948576000815560010161094d565b803563ffffffff8116811461097557600080fd5b919050565b6000806040838503121561098d57600080fd5b61099683610961565b915060208301356001600160a01b03811681146109b257600080fd5b809150509250929050565b6000815180845260005b818110156109e3576020818501810151868301820152016109c7565b818111156109f5576000602083870101525b50601f01601f19169290920160200192915050565b602081526000610a1d60208301846109bd565b9392505050565b600060208284031215610a3657600080fd5b610a1d82610961565b600063ffffffff808616835260606020840152610a5f60608401866109bd565b9150808416604084015250949350505050565b600063ffffffff808351168452602083015160606020860152610a9860608601826109bd565b9050816040850151166040860152809250505092915050565b600061010063ffffffff808c168452816020850152610ad28285018c6109bd565b8a82166040860152898216606086015290881660808501526001600160a01b03871660a085015283810360c08501529050610b0d8186610a72565b905082810360e0840152610b218185610a72565b9b9a5050505050505050505050565b60008060408385031215610b4357600080fd5b610b4c83610961565b9150610b5a60208401610961565b90509250929050565b634e487b7160e01b600052604160045260246000fd5b600082601f830112610b8a57600080fd5b813567ffffffffffffffff80821115610ba557610ba5610b63565b604051601f8301601f19908116603f01168101908282118183101715610bcd57610bcd610b63565b81604052838152866020858801011115610be657600080fd5b836020870160208301376000602085830101528094505050505092915050565b60008060008060808587031215610c1c57600080fd5b843567ffffffffffffffff811115610c3357600080fd5b610c3f87828801610b79565b945050610c4e60208601610961565b9250610c5c60408601610961565b9150610c6a60608601610961565b905092959194509250565b60008060408385031215610c8857600080fd5b823567ffffffffffffffff811115610c9f57600080fd5b610cab85828601610b79565b925050610b5a60208401610961565b600181811c90821680610cce57607f821691505b602082108103610cee57634e487b7160e01b600052602260045260246000fd5b50919050565b8054600090600181811c9080831680610d0e57607f831692505b60208084108203610d2f57634e487b7160e01b600052602260045260246000fd5b818015610d435760018114610d5457610d81565b60ff19861689528489019650610d81565b60008881526020902060005b86811015610d795781548b820152908501908301610d60565b505084890196505b50505050505092915050565b6000610d998284610cf4565b7f206f776e65722075706461746564207375636365737366756c6c7921000000008152601c019392505050565b6000610dd28285610cf4565b6901030b23232b2103a37960b51b8152610def600a820185610cf4565b6d207375636365737366756c6c792160901b8152600e0195945050505050565b600063ffffffff808316818103610e3657634e487b7160e01b600052601160045260246000fd5b6001019392505050565b6000610e4c8284610cf4565b752063726561746564207375636365737366756c6c792160501b8152601601939250505056fea2646970667358221220d5c24f7acc05e4a4e431089046d46f958dcd11ec597de32dece93ea2821d22e664736f6c634300080d0033",
    "sourcePath": "/Users/collinstratton/Google Drive/School/GCU/Fall 2021 - Spring 2022/CST-461/CST-461/Cryptomon/contracts/creator.sol",
    "compiler": {
        "name": "solc",
        "version": "0.8.13+commit.abaa5c0e"
    },
    "functionHashes": {
        "addMove(uint32,uint32)": "a73ad2a6",
        "createCryptomon(string,uint32,uint32,uint32)": "bc5ff07b",
        "createMove(string,uint32)": "eda9da50",
        "cryptomonList(uint32)": "93df1bca",
        "movesList(uint32)": "73ff5039",
        "updateOwner(uint32,address)": "558dfe1c"
    },
    "gasEstimates": {
        "creation": {
            "codeDepositCost": "750400",
            "executionCost": "786",
            "totalCost": "751186"
        },
        "external": {
            "addMove(uint32,uint32)": "infinite",
            "createCryptomon(string,uint32,uint32,uint32)": "infinite",
            "createMove(string,uint32)": "infinite",
            "cryptomonList(uint32)": "infinite",
            "movesList(uint32)": "infinite",
            "updateOwner(uint32,address)": "infinite"
        }
    }
}