{
  "contractName": "DataTypes",
  "abi": [
    {
      "inputs": [],
      "name": "getStateVariables",
      "outputs": [
        {
          "internalType": "uint256",
          "name": "",
          "type": "uint256"
        },
        {
          "internalType": "int256",
          "name": "",
          "type": "int256"
        },
        {
          "internalType": "uint256",
          "name": "",
          "type": "uint256"
        },
        {
          "internalType": "bool",
          "name": "",
          "type": "bool"
        },
        {
          "internalType": "address",
          "name": "",
          "type": "address"
        },
        {
          "internalType": "bytes32",
          "name": "",
          "type": "bytes32"
        },
        {
          "internalType": "string",
          "name": "",
          "type": "string"
        }
      ],
      "stateMutability": "view",
      "type": "function",
      "constant": true
    }
  ],
  "bytecode": "0x608060405260096000557fffffffffffffffffffffffffffffffffffffffffffffffffffffffffffffffbc6001556011600260006101000a81548160ff021916908360ff1602179055506001600260016101000a81548160ff021916908315150217905550336002806101000a81548173ffffffffffffffffffffffffffffffffffffffff021916908373ffffffffffffffffffffffffffffffffffffffff1602179055507f68656c6c6f0000000000000000000000000000000000000000000000000000006003556040518060400160405280600581526020017f68656c6c6f00000000000000000000000000000000000000000000000000000081525060049080519060200190610113929190610126565b5034801561012057600080fd5b5061022a565b828054610132906101f8565b90600052602060002090601f016020900481019282610154576000855561019b565b82601f1061016d57805160ff191683800117855561019b565b8280016001018555821561019b579182015b8281111561019a57825182559160200191906001019061017f565b5b5090506101a891906101ac565b5090565b5b808211156101c55760008160009055506001016101ad565b5090565b7f4e487b7100000000000000000000000000000000000000000000000000000000600052602260045260246000fd5b6000600282049050600182168061021057607f821691505b60208210811415610224576102236101c9565b5b50919050565b6103a1806102396000396000f3fe608060405234801561001057600080fd5b506004361061002b5760003560e01c8063dde89cf514610030575b600080fd5b610038610054565b60405161004b9796959493929190610294565b60405180910390f35b6000806000806000806060600054600154600260009054906101000a900460ff16600260019054906101000a900460ff1660028054906101000a900473ffffffffffffffffffffffffffffffffffffffff1660035460048460ff1694508080546100bd90610339565b80601f01602080910402602001604051908101604052809291908181526020018280546100e990610339565b80156101365780601f1061010b57610100808354040283529160200191610136565b820191906000526020600020905b81548152906001019060200180831161011957829003601f168201915b50505050509050965096509650965096509650965090919293949596565b6000819050919050565b61016781610154565b82525050565b6000819050919050565b6101808161016d565b82525050565b60008115159050919050565b61019b81610186565b82525050565b600073ffffffffffffffffffffffffffffffffffffffff82169050919050565b60006101cc826101a1565b9050919050565b6101dc816101c1565b82525050565b6000819050919050565b6101f5816101e2565b82525050565b600081519050919050565b600082825260208201905092915050565b60005b8381101561023557808201518184015260208101905061021a565b83811115610244576000848401525b50505050565b6000601f19601f8301169050919050565b6000610266826101fb565b6102708185610206565b9350610280818560208601610217565b6102898161024a565b840191505092915050565b600060e0820190506102a9600083018a61015e565b6102b66020830189610177565b6102c3604083018861015e565b6102d06060830187610192565b6102dd60808301866101d3565b6102ea60a08301856101ec565b81810360c08301526102fc818461025b565b905098975050505050505050565b7f4e487b7100000000000000000000000000000000000000000000000000000000600052602260045260246000fd5b6000600282049050600182168061035157607f821691505b602082108114156103655761036461030a565b5b5091905056fea2646970667358221220d91f3f339a2d2b80b27bfd6adca5b6ea71d8c5aca5ec4abbf9d35599e4a0b8be64736f6c634300080b0033",
  "immutableReferences": {},
  "source": "pragma solidity ^0.8.11;  // ^0.4.24; \r\n\r\n/*\r\n* @title Solidity data types\r\n* @author Michael Solomon\r\n* @notice A simply smart contract to demonstrate simple data types available in Solidity\r\n* \r\n*/\r\n\r\ncontract DataTypes {\r\n\r\n    uint x = 9;\r\n    int i = -68; \r\n    uint8 j = 17;\r\n    bool isEthereumCool = true; \r\n    address owner = msg.sender; // msg.sender is the Ethereum address of the account that sent this transaction\r\n    bytes32 bMsg = \"hello\";\r\n    string sMsg = \"hello\"; \r\n\r\n    function getStateVariables() public view returns (uint, int, uint, bool, address, bytes32, string memory) {\r\n        return (x, i, j, isEthereumCool, owner, bMsg, sMsg); \r\n    }\r\n\r\n    function setbMsg(bytes32 newValue) private returns (bytes32) {\r\n        bMsg = newValue;\r\n    }\r\n}",
  "sourcePath": "/Users/collinstratton/Google Drive/School/GCU/Fall 2021 - Spring 2022/CST-461/CST-461/Participation/DataTypes/contracts/FlowControl.sol",
  "compiler": {
    "name": "solc",
    "version": "0.8.11+commit.d7f03943.Emscripten.clang"
  },
  "schemaVersion": "3.4.4",
  "updatedAt": "2022-01-29T08:54:14.505Z",
  "networkType": "ethereum",
  "devdoc": {
    "kind": "dev",
    "methods": {},
    "version": 1
  },
  "userdoc": {
    "kind": "user",
    "methods": {},
    "version": 1
  }
}