{
  "contractName": "DataTypes",
  "abi": [
    {
      "inputs": [],
      "name": "getStateVariables",
      "outputs": [
        {
          "internalType": "uint256",
          "name": "",
          "type": "uint256"
        },
        {
          "internalType": "int256",
          "name": "",
          "type": "int256"
        },
        {
          "internalType": "uint256",
          "name": "",
          "type": "uint256"
        },
        {
          "internalType": "bool",
          "name": "",
          "type": "bool"
        },
        {
          "internalType": "address",
          "name": "",
          "type": "address"
        },
        {
          "internalType": "bytes32",
          "name": "",
          "type": "bytes32"
        },
        {
          "internalType": "string",
          "name": "",
          "type": "string"
        }
      ],
      "stateMutability": "view",
      "type": "function"
    },
    {
      "inputs": [],
      "name": "loop",
      "outputs": [],
      "stateMutability": "nonpayable",
      "type": "function"
    }
  ],
  "bytecode": "0x608060405260096000557fffffffffffffffffffffffffffffffffffffffffffffffffffffffffffffffbc6001556011600260006101000a81548160ff021916908360ff1602179055506001600260016101000a81548160ff021916908315150217905550336002806101000a81548173ffffffffffffffffffffffffffffffffffffffff021916908373ffffffffffffffffffffffffffffffffffffffff1602179055507f68656c6c6f0000000000000000000000000000000000000000000000000000006003556040518060400160405280600581526020017f68656c6c6f00000000000000000000000000000000000000000000000000000081525060049080519060200190610113929190610126565b5034801561012057600080fd5b5061022a565b828054610132906101f8565b90600052602060002090601f016020900481019282610154576000855561019b565b82601f1061016d57805160ff191683800117855561019b565b8280016001018555821561019b579182015b8281111561019a57825182559160200191906001019061017f565b5b5090506101a891906101ac565b5090565b5b808211156101c55760008160009055506001016101ad565b5090565b7f4e487b7100000000000000000000000000000000000000000000000000000000600052602260045260246000fd5b6000600282049050600182168061021057607f821691505b60208210811415610224576102236101c9565b5b50919050565b610477806102396000396000f3fe608060405234801561001057600080fd5b50600436106100365760003560e01c8063a92100cb1461003b578063dde89cf514610045575b600080fd5b610043610069565b005b61004d610093565b60405161006097969594939291906102f2565b60405180910390f35b5b600a60005410156100915760008081548092919061008790610397565b919050555061006a565b565b60008060008060008060606000805410156100ad57600080fd5b600060015413156100bd57600080fd5b600054600154600260009054906101000a900460ff16600260019054906101000a900460ff1660028054906101000a900473ffffffffffffffffffffffffffffffffffffffff1660035460048460ff16945080805461011b9061040f565b80601f01602080910402602001604051908101604052809291908181526020018280546101479061040f565b80156101945780601f1061016957610100808354040283529160200191610194565b820191906000526020600020905b81548152906001019060200180831161017757829003601f168201915b50505050509050965096509650965096509650965090919293949596565b6000819050919050565b6101c5816101b2565b82525050565b6000819050919050565b6101de816101cb565b82525050565b60008115159050919050565b6101f9816101e4565b82525050565b600073ffffffffffffffffffffffffffffffffffffffff82169050919050565b600061022a826101ff565b9050919050565b61023a8161021f565b82525050565b6000819050919050565b61025381610240565b82525050565b600081519050919050565b600082825260208201905092915050565b60005b83811015610293578082015181840152602081019050610278565b838111156102a2576000848401525b50505050565b6000601f19601f8301169050919050565b60006102c482610259565b6102ce8185610264565b93506102de818560208601610275565b6102e7816102a8565b840191505092915050565b600060e082019050610307600083018a6101bc565b61031460208301896101d5565b61032160408301886101bc565b61032e60608301876101f0565b61033b6080830186610231565b61034860a083018561024a565b81810360c083015261035a81846102b9565b905098975050505050505050565b7f4e487b7100000000000000000000000000000000000000000000000000000000600052601160045260246000fd5b60006103a2826101b2565b91507fffffffffffffffffffffffffffffffffffffffffffffffffffffffffffffffff8214156103d5576103d4610368565b5b600182019050919050565b7f4e487b7100000000000000000000000000000000000000000000000000000000600052602260045260246000fd5b6000600282049050600182168061042757607f821691505b6020821081141561043b5761043a6103e0565b5b5091905056fea264697066735822122032fe02e496559737491443bf2f40dd01afec80ec4f646fc97cb319197535afbb64736f6c634300080b0033",
  "immutableReferences": {},
  "source": "pragma solidity ^0.8.11;  // ^0.4.24; \r\n\r\n/*\r\n* @title Solidity data types\r\n* @author Michael Solomon\r\n* @notice A simply smart contract to demonstrate simple data types available in Solidity\r\n* \r\n*/\r\n\r\ncontract DataTypes {\r\n\r\n    uint x = 9;\r\n    int i = -68; \r\n    uint8 j = 17;\r\n    bool isEthereumCool = true; \r\n    address owner = msg.sender; // msg.sender is the Ethereum address of the account that sent this transaction\r\n    bytes32 bMsg = \"hello\";\r\n    string sMsg = \"hello\"; \r\n\r\n    function getStateVariables() public view returns (uint, int, uint, bool, address, bytes32, string memory) {\r\n        require (x >= 0);\r\n        require (i <= 0);\r\n        return (x, i, j, isEthereumCool, owner, bMsg, sMsg); \r\n    }\r\n\r\n    function loop() public {\r\n        while (x < 10) {\r\n            x++;\r\n        }\r\n    }\r\n\r\n}",
  "sourcePath": "/Users/collinstratton/Google Drive/School/GCU/Fall 2021 - Spring 2022/CST-461/CST-461/Participation/DataTypes/contracts/DataTypes.sol",
  "compiler": {
    "name": "solc",
    "version": "0.8.11+commit.d7f03943.Emscripten.clang"
  },
  "schemaVersion": "3.4.4",
  "updatedAt": "2022-01-29T09:45:57.640Z",
  "devdoc": {
    "kind": "dev",
    "methods": {},
    "version": 1
  },
  "userdoc": {
    "kind": "user",
    "methods": {},
    "version": 1
  }
}